:02176B0014E286
:02176D0010FB6F
:02176F0011CE99
:02177100152140
:02177300155C03
:1008260053746172740053657474696E6700536320
:100836006F7265003E3E0020200067616D6573742F
:10084600617465206E6F770073636F726573746190
:100856007465206E6F770000000000000000000045
:100866000000000000000000000000000000000082
:100876000000000000000000000000000000000072
:1008860000000000000000008080C0C0C0E0E0E082
:10089600F0F0F0F0F0F0F0F0F0F0F0F0F0E0E0E082
:1008A600C0C0C08000000000000000000000000082
:1008B6000000000000000000000000000000000032
:1008C6000000000000000000000000000000000022
:1008D6000000000000000000000000000000000012
:1008E6000000000000000000000000000000000002
:1008F60000000000000000000000000000000000F2
:1009060080E0F0F8FCFEFEFFFFFFFFFF7F7F3F3F2A
:100916001F1F1F1F0F0F0F0F0F0F1F1F1F3F3F3FE1
:100926007F7FFFFFFFFFFEFCF8F0E0C080000000C5
:1009360000000000000000000000000000000000B1
:1009460000000000000000000000000000000000A1
:100956000000000000000000000000000000000091
:100966000000000000000000000000000000000081
:1009760000000000000000000000000080F0FCFF06
:10098600FFFFFFFFFFFF3F0F07030100000000000E
:100996000000008080808080808080000000000051
:1009A6000000000181C3E7FFFFFFFFFFFFFFFCF030
:1009B60080000000000000000000000000000000B1
:1009C6000000000000000000000000000000000021
:1009D6000000000000000000000000000000000011
:1009E6000000000000000000000000000000000001
:1009F6000000000000000000000000E0FFFFFFFF15
:100A0600FFFFFFFF07000000000000000000F0FCF1
:100A1600FEFFFFFFFFFFFFFFFFFFFFFFFF3E3C78EC
:100A2600787C7E7F7F7F7F7F7FFFFFFFFFFFFFFF5B
:100A3600FF000000000000000000000000000000B1
:100A460000000000000000000000000000000000A0
:100A56000000000000000000000000000000000090
:100A66000000000000000000000000000000000080
:100A76000000000000000000000000037FFFFFFFF1
:100A8600FFFFFFFFF0000000000000000000071F4E
:100A96007F7FFFFFFFFFFFFFFFFFFFFFFF0000005D
:100AA600000000000000000000FFFFFFFFFFFFFF47
:100AB6007F000000000000000000000000000000B1
:100AC6000000000000000000000000000000000020
:100AD6000000000000000000000000000000000010
:100AE6000000000000000000000000000000000000
:100AF60000000000000000000000000000030F3F9F
:100B06007FFFFFFFFFFFFCF8E0C080000000000051
:100B160000000000010101010101010000000000C8
:100B26000000000000000000F0FFFFFF7F1F0F0322
:100B360000000000000000000000000000000000AF
:100B4600000000000000000000000000000000009F
:100B5600000000000000000000000000000000008F
:100B6600000000000000000000000000000000007F
:100B7600000000000000000000000000000000006F
:100B860000C1E3FFFFFFFFFFFFFFFFFFFFFEFEFCCD
:100B9600FCFCF8F8F8F8F8F8F8F8F8F8F8FCFCFCBB
:100BA600FEFEFCFCFCFCF8F8FFFFFFFFFFFFFFFF6B
:100BB600FFFF1F0000000000000000000000000012
:100BC600000000000000000000000000000000001F
:100BD600000000000000000000000000000000000F
:100BE60000000000000000000000000000000000FF
:100BF60000000000000000000000000000000000EF
:100C060003030303010101010000000000000000CE
:100C160000000000000001010103030303070707AA
:100C2600070F0F0F0F0F0F0F0F0F0F0F0F0F0707E6
:100C360003010000000000000000000000000000AA
:100C4600000000000000000000000000000000009E
:070C56000000000000000097
:0C175E00011800011700011900011A0019
:1014E20075A0FF120F407524087525FF7526087533
:1014F200275D7B80E4FDFF121435E4FBFA7D327F29
:1015020080120D6F7F01120C5D7F02120C5D7F0352
:0F151200120C5D7F04120C5DE4FF120CE680FEEC
:1010FB00AF18EF60030211C220B133FBFA7D037FFF
:10110B0080120D6F20B127E4FBFA7D0A7F80120D50
:10111B006F151AAF1AC3748094805003751A02208E
:10112B00B10CE4FBFA7D017F80120D6F80F120B0D2
:10113B0037E4FBFA7D0A7F80120D6F30B0FDE4FBC4
:10114B00FA7D0A7F80120D6F051AAF1AD3EF940246
:10115B00748094804003E4F51A20B00CE4FBFA7D14
:10116B00017F80120D6F80F120B242E4FBFA7D0A01
:10117B007F80120D6F30B2FDE4FBFA7D0A7F801287
:10118B000D6FAF1AEF7003751801AF1AEF64017092
:10119B0003751701AF1AEF6402700375190120B2C2
:1011AB000CE4FBFA7D017F80120D6F80F1E4FBFAFA
:1011BB007D147F80120D6FAF18AF17AF19EF64015D
:0311CB000210FB14
:1011CE0075A0AA1215FFAF18EF70FBAF19EF70F6EE
:1011DE00AF17EF70F17BFF7A087926754910FD7F06
:1011EE001912149E7BFF7A08792C7549107D037FA6
:1011FE001912149E7BFF7A0879347549107D067F8B
:10120E001912149EE51A14601F14604424027070A3
:10121E007BFF7A08793A754910E4FD7F0312149E1C
:10122E007BFF7A08793D80167BFF7A08793D7549F8
:10123E0010E4FD7F0312149E7BFF7A08793A7549FC
:10124E00107D037F0312149E7BFF7A08793D802662
:10125E007BFF7A08793D754910E4FD7F0312149ED9
:10126E007BFF7A08793D7549107D037F0312149E2A
:10127E007BFF7A08793A7549107D067F0312149E1A
:0D128E00E4FBFA7D0A7F80120D6F0211D47F
:10152100AF18EF640170281215FF75A0017BFF7AD7
:101531000879407549107D037F0312149EE4FBFA7C
:101541007D1E7F02120D6F1215FFE4F51880D1E4A4
:0B155100FBFA7D647F80120D6F80C5E7
:10155C00AF19EF640170281215FF75A0027BFF7A9A
:10156C0008794E7549107D037F0312149EE4FBFA33
:10157C007D1E7F02120D6F1215FFE4F51980D1E468
:0B158C00FBFA7D647F80120D6F80C5AC
:1016BA00D3EF9400EE940040147D657C18ED1D7004
:0D16CA00011CED4C70F7EF1F70E61E80E371
:0116D70022F0
:1016D800EF1FAA0670011E4A600FE4FDEDC3947B5C
:0916E8007480948050EA0D80F337
:0116F10022D6
:09177500D290D291C291C29022DF
:07000300D290C291D29122BC
:0B17320012163812173DAF04121638D3
:05173D00D290C29022D1
:07163100AC071217757F786A
:10163800C290E4FEEEC3940874809480501BAD07FA
:10164800530580ED64807004D2918002C291EF2529
:09165800E0FFD290C2900E80DB8D
:011661002266
:0E17420012163112173DE4FF12173202000397
:0E17500012163112173D7F40121732020003AD
:10166200EF24B0FFEE33FEE4FDFC12167DE4FDFC38
:0B167200FFFE12167D7F10E4FDFCFE61
:10167D00AB07AA06ED4C6003021750AF03121742D9
:01168D00223A
:021597008F1BA8
:10159900E4F9E9FF7E00C394087480948050231213
:1015A9001662E4F51CC3E51C948074809480500F86
:1015B900AF1B7E007D017C0012167D051C80E609AB
:0215C90080D0D0
:0115CB0022FD
:10168E00A907ED24B0FFE433FEE4FDFC12167DE95C
:10169E0054F0C4540F7E004410FFE4FDFC12167D7E
:0C16AE00E9540FFF7E00E4FDFC02167DF5
:10170A007F8D121679E4FDFC7F14FE12167DE4FD2E
:07171A00FC7FAFFE02167D0B
:10172100E4FDFC7F8D121673E4FDFC7FAEFE021614
:011731007D3A
:1015FF00E4F9E9FF7E00C3940874809480502212AE
:10160F001662E4F544C3E544948074809480500ED0
:10161F007D017C00E4FFFE12167D054480E7098002
:01162F00D1E9
:011630002297
:1015CC00E4F9E9FF7E00C3940874809480502312E0
:1015DC001662E4F51DC3E51D948074809480500F51
:1015EC007D017C007F017E0012167D051D80E609C1
:0215FC0080D09D
:0115FE0022CA
:041020008F4B8D4C19
:10102400E4F54FF9EB24E0F54FD3EF947F7480940B
:10103400804007E4F54B054C054CE54E6410707A8E
:10104400AD4CAF4B12168EE4F9E9C3940874809446
:1010540080502975F010E54FA429F582E435F0F5A8
:1010640083E5822436F582E5833402F583E493FF35
:101074007E007D017C0012167D0980CDE54C04FDC7
:10108400AF4B12168EE4F9E9C3940874809480502F
:101094006575F010E54FA429F582E435F0F583E594
:1010A40082243EF582E5833402F583E493FF7E00D7
:1010B4007D017C0012167D0980CDAD4CAF4B12161C
:1010C4008EE4F9E9C3940674809480502975F0067F
:1010D400E54FA4240EF582E5F03400F583E582297A
:1010E400F582E43583F583E493FF7E007D017C0083
:0610F40012167D0980CDFB
:0110FA0022D3
:0416F2008F1EA90599
:1016F6007F017E00AD0119ED6009AD1E7C0012125E
:03170600C880F1A7
:0117090022BD
:0813BB008F0E8D0F8A108B11BB
:1013C300E4F516F514E514C395125065C3E51295BB
:1013D3001414FD7F0A1216F2AC10AD11CFCDCFCE8F
:1013E300CCCE1212DA7C007D0A1212DA8D15E516C4
:1013F3007023E51214FFE514C39F5019E51570120D
:10140300E513C3138514F0A4250EFF85134E7B202B
:101413008016751601E513C3138514F0A4250EFF7A
:10142300E5152430FB85134EAD0F121020051480F3
:011433009424
:011434002295
:0A149E008F448D458B468A4789482C
:1014A800E4F54AAB46AA47A948854A8275830012E3
:1014B800129BFB602485494EAD45AF441210207441
:1014C800082544F544D39478748094804007E4F563
:0914D8004405450545054A80CA9A
:0114E10022E8
:041435008F218B2355
:10143900E4F528F529E5245407700BE52413131363
:10144900541FF52B800AE524131313541F04F52B9D
:101459008D2BE52BC39524503BAD2BAF2112168E56
:1014690085212AE52AC395235026AB25AA26A92733
:101479000529E529AE287002052814F5828E831204
:10148900129BFF7E007D017C0012167D052A80D308
:04149900052B80BEE1
:01149D00222C
:100F4000E4FDFC7FAEFE12166CE4FDFC7F40FE1259
:100F5000167DE4FDFC7FB0FE12167DE4FDFC7F8172
:100F6000FE12167DE4FDFC7FFFFE12167DE4FDFC03
:100F70007FA1FE12167DE4FDFC7FA6FE12167DE425
:100F8000FDFC7FA8FE12167DE4FDFC7F3FFE1216DD
:100F90007DE4FDFC7FC8FE12167DE4FDFC7FD3FEE0
:100FA00012167DE4FDFCFFFE12167DE4FDFC7FD5EC
:100FB000FE12167DE4FDFC7F80FE12167DE4FDFC32
:100FC0007FD8FE12167DE4FDFC7F05FE12167DE43F
:100FD000FDFC7FD9FE12167DE4FDFC7FF1FE1216AA
:100FE0007DE4FDFC7FDAFE12167DE4FDFC7F12FE3F
:100FF00012167DE4FDFC7FDBFE12167DE4FDFC7F16
:1010000030FE12167DE4FDFC7F8DFE12167DE4FDA0
:10101000FC7F14FE12167DE4FDFC7FAFFE02167D00
:10000E000000000000000000002F000000000700AC
:10001E00070000147F147F1400242A7F2A12006226
:10002E0064081323003649552250000005030000D2
:10003E0000001C224100000041221C000014083E5A
:10004E0008140008083E0808000000A06000000820
:10005E000808080800006060000000201008040274
:10006E00003E5149453E0000427F40000042615132
:10007E004946002141454B31001814127F100027CC
:10008E0045454539003C4A4949300001710905038F
:10009E0000364949493600064949291E00003636C0
:1000AE000000000056360000000814224100001423
:1000BE001414141400004122140800020151090600
:1000CE0000324959513E007C1211127C007F494981
:1000DE004936003E41414122007F4141221C007FB2
:1000EE0049494941007F09090901003E4149497AC0
:1000FE00007F0808087F0000417F4100002040413A
:10010E003F01007F08142241007F40404040007FA5
:10011E00020C027F007F0408107F003E4141413EE9
:10012E00007F09090906003E4151215E007F091931
:10013E0029460046494949310001017F0101003F2E
:10014E004040403F001F2040201F003F4038403FAE
:10015E000063140814630007087008070061514912
:10016E00454300007F41410000552A552A550000A5
:10017E0041417F0000040201020400404040404023
:10018E00000001020400002054545478007F4844BB
:10019E00443800384444442000384444487F0038F2
:1001AE005454541800087E0901020018A4A4A47C1B
:1001BE00007F080404780000447D400000408084E5
:1001CE007D00007F102844000000417F4000007C2D
:1001DE0004180478007C0804047800384444443839
:1001EE0000FC242424180018242418FC007C080485
:1001FE00040800485454542000043F444020003C5E
:10020E004040207C001C2040201C003C4030403CE4
:10021E00004428102844001CA0A0A07C0044645474
:10022E004C441414141414140000000000000000B8
:10023E000000000000000000000000F800000000B8
:10024E00000000333000000000100C06100C0600F9
:10025E00000000000000000040C07840C078400060
:10026E00043F04043F040400007088FC08300000C2
:10027E00001820FF211E0000F008F000E01800001A
:10028E0000211C031E211E0000F0088870000000D3
:10029E001E2123241927211010160E000000000025
:1002AE000000000000000000000000E01804020042
:1002BE00000000071820400000020418E0000000B3
:1002CE000040201807000000404080F080404000B1
:1002DE000202010F01020200000000F00000000007
:1002EE000101011F010101000000000000000000DB
:1002FE0080B0700000000000000000000000000050
:10030E0000010101010101010000000000000000D8
:10031E000030300000000000000000008060180473
:10032E00006018060100000000E010080810E00050
:10033E00000F102020100F00001010F80000000019
:10034E000020203F20200000007008080888700060
:10035E0000302824222130000030088888483000E0
:10036E000018202020110E000000C02010F8000000
:10037E0000070424243F240000F808888808080099
:10038E000019212020110E0000E0108888180000AE
:10039E00000F112020110E0000380808C838080080
:1003AE000000003F00000000007088080888700000
:1003BE00001C222121221C0000E010080810E00081
:1003CE000000312222110F00000000C0C00000000A
:1003DE00000000303000000000000080000000002F
:1003EE000000806000000000000080402010080027
:1003FE0000010204081020004040404040404000F0
:10040E0004040404040404000008102040800000CA
:10041E000020100804020100007048080808F000CF
:10042E000000003036010000C030C828E810E0009F
:10043E000718272423140B000000C038E00000002A
:10044E00203C23020227382008F888888870000094
:10045E00203F202020110E00C03008080808380068
:10046E00071820202010080008F808080810E000DF
:10047E00203F202020100F0008F88888E808100080
:10048E00203F20202320180008F88888E808100054
:10049E00203F200003000000C0300808083800008C
:1004AE0007182020221E020008F808000008F8088D
:1004BE00203F210101213F20000808F80808000014
:1004CE000020203F2020000000000808F808080047
:1004DE00C08080807F00000008F888C028180800BF
:1004EE00203F20012638200008F8080000000000F8
:1004FE00203F20202020300008F8F800F8F80800EF
:10050E00203F003F003F200008F830C00008F808E8
:10051E00203F200007183F00E01008080810E000F8
:10052E000F10202020100F0008F808080808F0000F
:10053E00203F210101010000E01008080810E00032
:10054E000F18242438504F0008F8888888887000C7
:10055E00203F2000030C3020007088080808380067
:10056E000038202121221C00180808F8080818005D
:10057E000000203F2000000008F808000008F808DE
:10058E00001F202020201F000878880000C838088F
:10059E00000007380E010000F80800F80008F80007
:1005AE00033C0700073C03000818688080681808A1
:1005BE0020302C03032C30200838C800C83808001F
:1005CE000000203F2000000010080808C83808006E
:1005DE002038262120201800000000FE0202020012
:1005EE000000007F40404000000C30C000000000C2
:1005FE00000000010638C00000020202FE000000EA
:10060E00004040407F00000000000402020204008F
:10061E0000000000000000000000000000000000CC
:10062E0080808080808080800002020400000000B4
:10063E0000000000000000000000808080800000AC
:10064E000019242222223F2008F80080800000009A
:10065E00003F112020110E0000000080808000005D
:10066E00000E112020201100000000808088F8006C
:10067E00000E112020103F2000008080808000009E
:10068E00001F222222221300008080F08888881802
:10069E000020203F2020000000008080808080000D
:1006AE00006B94949493600008F8008080800000A2
:1006BE00203F210000203F2000809898000000007D
:1006CE000020203F202000000000008098980000AD
:1006DE0000C08080807F000008F8000080808000CD
:1006EE00203F24022D302000000808F800000000F2
:1006FE000020203F202000008080808080808000AD
:10070E00203F20003F20003F80800080808000003E
:10071E00203F210000203F200000808080800000CC
:10072E00001F202020201F008080008080000000FD
:10073E0080FFA12020110E0000000080808080002C
:10074E00000E112020A0FF8080808000808080001D
:10075E0020203F212000010000008080808080004A
:10076E000033242424241900008080E080800000BF
:10077E000000001F2020000080800000008080000C
:10078E00001F202020103F2080808000008080806D
:10079E0000010E30080601008080008000808080FD
:1007AE000F300C030C300F00008080008080800022
:1007BE000020312E0E31200080808000008080804D
:1007CE0080818E70180601000080808080808000FD
:1007DE000021302C2221300000000000807C02021B
:1007EE0000000000003F404000000000FF0000003D
:1007FE0000000000FF0000000002027C80000000EC
:10080E000040403F00000000000601010202040407
:08081E000000000000000000D2
:100C5D00EFD3940440037FFF2274512F2FF8E62029
:100C6D00E5F4C2AFE64430F6D2AFAE0CEEC39F5002
:100C7D00210E745A2EF8E6F908E618BE040274FF28
:100C8D00FDED69600909E71919F7090980F31616D1
:100C9D0080DAEED39F400405810581EED39F40227B
:100CAD00745A2EF808E6F9EEB50C02A9811806065D
:100CBD00E6FDED6960091919E70909F71980F31EB9
:100CCD0080D9EF245AF8E604F8EF2F0490176B93B0
:090CDD00F608EF2F93F67F0022C8
:100CE600EFD3940440037FFF22EF232451F8E6302C
:100CF600E5F4C2AFE6548CF6D2AFE50CB5070A743C
:100D06005A2FF8E6F581020E49502E745B2FF8E64D
:100D1600BF040274FFFD18E6F9745A2FF8FBE6FCCF
:100D2600E96C6008A805E7F61D1980F4A803A60576
:100D36001FE50CB507E37F0022745B2FF8E6FD186C
:100D460086010F745A2FF8A601088604E50CB5072C
:100D560002AC81ED6C60080D09A805E6F780F4E5A4
:090D66000CB507DE89817F002233
:100D6F008FF0E4FFFEE50C232450F8C2A930F70DF5
:100D7F007F08E6600B2DF660325030800730F106A9
:100D8F00EDF660277E020830F010C2AFE610E725BF
:100D9F000E30E20CD2AF7F048014C2AFE610E7151D
:100DAF0054EC4EF6D2AFD2A9020E497F0808EF4499
:0F0DBF0083F4C2AF56C6D2AFD2A954804FFF22E1
:03000B00020DD310
:100DCE00C2AF80FE32120DD285D00B75D008AAE0CC
:100DDE00C28CE58A24F7F58AE58C34D8F58CD28C52
:100DEE00EC245BF8E6BC040274FFC39581B41400D6
:100DFE0040CE7905785016E608700BC2AFE630E1AA
:100E0E00034418F6D2AF08D9EDEA8BD03000012298
:100E1E00D50DFCC0E0C0D0C0F0C083C082C000C001
:100E2E0001C002C003C004C005C006C007E50C2304
:100E3E002451F87440C2AF46F6D2AFD200E50CFF93
:100E4E00232451F80F0808BF05047F007851E630BF
:100E5E00E4F200E50CC39F5020050C745A250CF8E3
:100E6E00E6FDA68108E6AE0CBE040274FFCDF8E8DE
:100E7E006D60E008E6C0E080F6E50CD39F4027E504
:100E8E000C245BF8E6AE0CBE040274FFFD18E6CD32
:100E9E00F8E5816D6006D0E0F61880F5E50C245A71
:100EAE00C8F6150C80D3750D05E50C232451F87F7B
:100EBE0004C2AFE610E61E30E00310E20C7F0030F5
:050ECE00E10730E30420
:100ED3007F0854F4547CC6D2AF54804207C2002228
:100EE300F6D2AFD007D006D005D004D003D002D0BD
:100EF30001D000D082D083D0F0D0D0D0E0C2002285
:100F0300785AA68174046006FF0876FFDFFB7F052D
:100F1300E47850F608F608DFFA7851763090176BCC
:100F2300740193C0E0E493C0E0750D054389017536
:0D0F33008AF0758CD8D28CD2AFD2A92204DE
:0300000002132FB9
:0C132F00787FE4F6D8FD75815E0213762D
:10129B00BB010CE58229F582E5833AF583E0225008
:1012AB0006E92582F8E622BBFE06E92582F8E22252
:0D12BB00E58229F582E5833AF583E493226C
:1012C800EF8DF0A4A8F0CF8CF0A428CE8DF0A42E3A
:0212D800FE22F4
:1012DA00BC000BBE0029EF8DF084FFADF022E4CCF8
:1012EA00F875F008EF2FFFEE33FEEC33FCEE9DECC1
:1012FA00984005FCEE9DFE0FD5F0E9E4CEFD22ED07
:10130A00F8F5F0EE8420D21CFEADF075F008EF2F50
:10131A00FFED33FD4007985006D5F0F222C398FD41
:05132A000FD5F0EA22DE
:10133B00020F03E493A3F8E493A34003F68001F2B6
:10134B0008DFF48029E493A3F85407240CC8C333B3
:10135B00C4540F4420C8834004F456800146F6DF82
:10136B00E4800B010204081020408090175EE47E9D
:10137B00019360BCA3FF543F30E509541FFEE49377
:10138B00A360010ECF54C025E060A840B8E493A33E
:10139B00FAE493A3F8E493A3C8C582C8CAC583CA69
:1013AB00F0A3C8C582C8CAC583CADFE9DEE780BE21
:01176A00007E
:00000001FF
