:0220DC001901E8
:0220DE000AD91D
:0220E0000F0BE4
:0220E200179B4A
:0220E4001CDE00
:0220E6001E5486
:0220E80020983E
:10148C00514720446173682076322E39004B6579C0
:10149C00313A7570004B6579323A646F776E004B58
:1014AC006579333A636F6D6669726D004C6F616478
:1014BC00696E672E2E2E0057656C636F6D6521204B
:1014CC00200053746172740053657474696E670004
:1014DC00496E666F003E3E00547261636B203100B2
:1014EC00547261636B203200746F703A00417574F2
:1014FC00683A4B79756E616E610032352F342F323C
:10150C0030323500696E20415438394335325243FC
:10151C000056322E39007072657373203320746F4D
:10152C00207175697400547261636B31206E6F7732
:10153C0000547261636B32206E6F770047616D658A
:0D154C00204F7665720053706565643A00AB
:1019A900C101C100C102C103C1044200C700004214
:1019B90000CA00004100C9014100C6014100CC77BD
:0419C9004100C40411
:1019010075A0FF1212D5121DACE4FBFA7D327F8067
:101911001209087BFF7A14798C9000587408F0E45E
:10192100FD7F03121D487BFF7A147999900058744A
:1019310008F07D027F03121D487BFF7A1479A19084
:1019410000587408F07D037F03121D487BFF7A1451
:1019510079AB9000587408F07D047F03121D487B19
:10196100FF7A1479B89000587408F07D067F03124D
:101971001D48E4FBFA7DE87F801209087BFF7A1499
:1019810079C39000587408F07D067F03121D48E466
:10199100FBFA7D647F801209087F011207F67F023E
:0819A1001207F6E4FF02087FC3
:100AD900300103020BAF300003020BAF30020302F7
:100AE9000BAF20B139E4FBFA7D037F80120908209E
:100AF900B12CE4FBFA7D0A7F801209089000C6E058
:100B090014F0E0C394017480948050037403F020BE
:100B1900B10CE4FBFA7D017F8012090880F120B055
:100B290039E4FBFA7D037F8012090820B02CE4FB2D
:100B3900FA7D0A7F801209089000C6E004F0E0D32C
:100B490094037480948040037401F020B00CE4FB9A
:100B5900FA7D017F8012090880F120B249E4FBFA8D
:100B69007D037F8012090820B23CE4FBFA7D0A7FED
:100B7900801209089000C6E024FE600B1460162458
:100B8900027014D2018010D2007F0212087F7F0503
:100B99001207F68002D20220B20CE4FBFA7D017F33
:100BA9008012090880F1200103020C90300303022E
:100BB9000C9020B139E4FBFA7D037F8012090820EB
:100BC900B12CE4FBFA7D0A7F801209089000C9E084
:100BD90014F0E0C394017480948050037402F020EF
:100BE900B10CE4FBFA7D017F8012090880F120B085
:100BF90039E4FBFA7D037F8012090820B02CE4FB5D
:100C0900FA7D0A7F801209089000C9E004F0E0D358
:100C190094027480948040037401F020B00CE4FBCA
:100C2900FA7D017F8012090880F120B232E4FBFAD3
:100C39007D037F8012090820B21BE4FBFA7D0A7F3D
:100C490080120908D20320B20CE4FBFA7D017F80EF
:100C590012090880F17F0212087F7F031207F6202C
:100C6900B325E4FBFA7D037F8012090820B316E45B
:100C7900FBFA7D0A800820B30CE4FBFA7D017F8032
:100C890012090880F1C20130022820B225E4FBFADA
:100C99007D037F8012090820B216E4FBFA7D0A80E1
:100CA9000820B20CE4FBFA7D017F8012090880F16B
:100CB900C202200003020AD920B139E4FBFA7D03FC
:100CC9007F8012090820B12CE4FBFA7D0A7F80128B
:100CD90009089000C4E014F0E0C394027480948081
:100CE90050037401F020B10CE4FBFA7D017F8012FE
:100CF900090880F120B039E4FBFA7D037F801209ED
:100D09000820B02CE4FBFA7D0A7F801209089000C4
:100D1900C4E004F0E0D3940774809480400374081D
:100D2900F020B00CE4FBFA7D017F8012090880F104
:100D390030B203020AD9E4FBFA7D037F8012090865
:100D490020B216E4FBFA7D0A800820B20CE4FBFA13
:0E0D59007D017F8012090880F1C200020AD9D4
:100F0B00300103020F9B300003020F9B30020302E0
:100F1B000F9B121DAC7BFF7A1479CE900058741086
:100F2B00F0E4FD7F19121D487BFF7A1479D49000F1
:100F3B00587410F07D037F19121D487BFF7A1479CA
:100F4B00DC9000587410F07D067F19121D4890003C
:100F5B00C6E024FE6017146024240270337BFF7AF2
:100F6B001479E19000587410F0E4FD801E7BFF7A39
:100F7B001479E19000587410F07D03800E7BFF7A9A
:100F8B001479E19000587410F07D067F03121D4810
:100F9B0020010302102E30030302102E121DAC7B16
:100FAB00FF7A1479E49000587410F0E4FD7F191265
:100FBB001D487BFF7A1479EC9000587410F07D0378
:100FCB007F19121D487BFF7A1479F490005874082E
:100FDB00F07D067F03121D489000C9E024FE601BC4
:100FEB000470407BFF7A1479E19000587410F0E4A0
:100FFB00FD7F03121D489000C780167BFF7A147982
:10100B00E19000587410F07D037F03121D4890008F
:10101B00CAE0FAA3E0FB90004D7408F07D067F2830
:10102B00121850300262121DAC7BFF7A1479F990C2
:10103B0000587410F0E4FD7F03121D487BFF7A15F6
:10104B0079069000587408F07D037F03121D487BCE
:10105B00FF7A1579109000587408F07D047F031205
:10106B001D487BFF7A15791D9000587408F07D059B
:10107B007F03121D487BFF7A15792290005874105C
:10108B00F07D067F03121D48E4FBFA7D0A7F801278
:05109B000908020F0B23
:10179B00200103021843200303021843121DAC90CF
:1017AB0000C9E064017BFF70067A1B791180047A13
:1017BB001B7936121F7CD20430040CE4FBFA7D64D7
:1017CB007F8012090880F19000C9E064017BFF70F3
:1017DB00067A15793280047A15793D900058741089
:1017EB00F0E4FD7F03121D487BFF7A1579489000CA
:1017FB00587410F07D037F03121D489000C9E064FC
:10180B000170059000C780039000CAE0FAA3E0FBCB
:10181B0090004D7410F07D067F03121850E4FBFA14
:10182B007DD07F80120908C203C2017F021207F626
:10183B007F0312087F02179BE4FBFA7D647F801203
:05184B00090802179BD3
:101CDE0030010F30030CE4FBFA7D0A7F80120908F5
:101CEE0080EE3001492003469000C9E06401701A6D
:101CFE00FF121E99D39000C8E09F9000C7E09E404F
:101D0E002DE0FCA3E0FDE4FF80219000C9E0640219
:101D1E00701C7F04121E99D39000CBE09F9000CAD6
:101D2E00E09E400AE0FCA3E0FD7F04121F4FE4FB9F
:0A1D3E00FA7D647F80120908809688
:101E5400300036121DAC7BFF7A157952900058740D
:101E640010F07D037F03121D489000C4E0FB7A004C
:101E740090004D7410F07D037F3C121850E4FBFA7F
:101E84007D0A7F8012090880C7E4FBFA7D647F80A5
:051E940012090880BBEB
:10209800300405121559C204E4FBFA7D0A7F801248
:0420A800090880ECB7
:1019CD004100CD004400CE000000004400D20000D4
:0219DD00000008
:101F4F00AB07AE04ED7818CEC313CE13D8F99000BB
:101F5F00CEF0AE04ED7810CEC313CE13D8F99000A7
:0D1F6F00CFF0ECA3F0EDA3F0AF03021BF7E1
:101E9900E4FDFC121A519000D3E07E007810C333A0
:101EA900CE33CED8F9FDAC069000D2E07E0078188A
:101EB900C333CE33CED8F9FFEE4CFCEF4DFD900085
:0C1EC900D4E04CFEEDFFA3E0FDEF4DFF68
:011ED50022EA
:051BF700900047EFF033
:101BFC0012000E7FA0121FCA1220AC4019E49000F4
:101C0C00CDF0900047E0FF121FCA1220AC4007E451
:101C1C009000CDF080089000CD7401F0803EE490EF
:101C2C000048F0900048E0FFC39404748094805006
:101C3C002B74CE2FF582E43400F583E0FF121FCA1B
:101C4C001220AC4007E49000CDF080089000CD74D9
:0F1C5C0001F08008900048E004F080C71220CE0D
:011C6B002256
:051A5100900047EFF0DA
:101A560012000E7FA0121FCA1220AC402FE4900085
:101A6600CDF0900047E0FF121FCA1220AC4007E4F9
:101A76009000CDF08002801412000E7FA1121FCAC2
:101A86001220AC4007E49000CDF080089000CD74A1
:101A960001F08040E4900048F0900048E0C39404D0
:101AA60074809480502E12205E900048E0FE24D26E
:101AB600F582E43400F583EFF0EEC394037480946A
:101AC600805004C2078002D2071220BE900048E070
:071AD60004F080C51220CED0
:011ADD0022E6
:10207F00EF1FAC0670011E4C600E7516027517EF40
:08208F00D517FDD516FA80E813
:012097002226
:0219DF00C10540
:09000E00D2A1D2A0C2A002000898
:0E20CE00C2A1C2A0D2A1120008D2A002000836
:1020AC00C2A1D2A0D2A1120008A2A09205C2A1A2E4
:0220BC000522FB
:1020BE00C2A1A20792A0D2A1120008C2A1D2A02250
:101FCA00E4FEEEC39408748094805015C2A1EF30E9
:101FDA00E704D2A08002C2A0D2A1EF25E0FF0E80C2
:051FEA00E1C2A1D2A03C
:011FEF0022CF
:10205E00E4FFD2A0FEEEC39408748094805011EF7A
:10206E0025E0FFC2A1D2A130A0034401FF0E80E5FE
:01207E00223F
:020008000022D4
:101C6C00E49000E5F020B1167F14FE12207F30B115
:101C7C00FD7F147E0012207F9000E57401F020B0EF
:101C8C00177F147E0012207F30B0FD7F147E00126F
:101C9C00207F9000E57402F020B2177F147E0012B2
:101CAC00207F30B2FD7F147E0012207F9000E574FF
:101CBC0003F020B3177F147E0012207F30B3FD7F1A
:101CCC00147E0012207F9000E57404F09000E5E093
:011CDC00FF08
:011CDD0022E4
:101ADE001D04011E04022004002204021D04011E26
:101AEE0004022004002204021D04011E040220042C
:101AFE00002204021D04011E04022004002204021E
:101B0E000000001D041B0219041B021D031E011DF3
:101B1E00021B0400001D041B0219041B021D031EE0
:101B2E00011D021B040000FF19021D0220062202E5
:101B3E0020021D0219021D021B0419021B021D04A4
:101B4E00000019021D022006220220021D021902A7
:0D1B5E001D021B041902180219040000FFEB
:1019E100604A006E0000F88CF8F3F95BF9B8FA155B
:1019F100FA67FAB9FB04FB4BFB90FBCFFC10FC44EC
:101A0100FC79FCACFCDCFD09FD34FD5CFD82FDA62E
:101A1100FDC8FDE8FE06FE22FE3DFE56FE6EFE8579
:101A2100FE9AFEAEFEC1FED3FEE4FEF4FF034300C8
:091A31006400000042006900009D
:101F7C0053890F438910758DFC758B18C28FC28ED7
:101F8C00D2ABD2AFE4900069F0A3F0900064EBF018
:071F9C00A3EAF0A3E9F02223
:03001B00021F13AE
:101F1300C0E0C083C082C0D075D000C00690006D01
:101F2300E025E0246EF582E43400F583E0FEA3E0CF
:101F33004E600E900068E0F58B900067E0F58DB27F
:0C1F4300A5D006D0D0D082D083D0E032F0
:10155900900064E0FBA3E0FAA3E0F9EA494B7002CA
:10156900801C900064E0FBA3E0FAA3E0F990006915
:10157900E0FEA3E0F5828E8312163CF470030200AC
:1015890003900064E0FBA3E0FAA3E0F9900069E0AE
:10159900FEA3E0F5828E8312163C90006DF0900058
:1015A9006AE004F07006900069E004F0900069E0D8
:1015B900FEA3E0F5828E8312163CFF7E007C017D3E
:1015C9002C12167BEF7802CEC313CE13D8F9FF90F5
:1015D900006BEEF0A3EFF090006AE004F070069063
:1015E9000069E004F090006DE025E0246EF582E4E6
:1015F9003400F583E0FCA3E0FDEC900067F0A3ED77
:10160900F0D28E90006BE0FEA3E0FF12207FC28E25
:0A1619007F0A7E0012207F02156B8D
:05000300C28EC2A5221F
:040017002000510074
:101A3A00020E000002100000041200000000410023
:061A4A00B9004100B800E4
:050D67009000D6EFF042
:100D6C00E4A3F09000D7E0C3940274809480400315
:100D7C00020EB5E0FF240EF8E69000D9F074102FA7
:100D8C00F8E6A3F0E49000D8F09000DAE0FF9000D1
:100D9C00D8E0FEC39F4003020EA1A8067E0074019A
:100DAC00088005C333CE33CED8F9FF9000D9E0FDCF
:100DBC00EF5D7003020E989000D7E075F005A42447
:100DCC00BAF9740035F0FAA3E0FF29F9E43AFA9085
:100DDC0000DB7401F0A3EAF0A3E9F09000D7E0FE89
:100DEC0075F005A424BAF582E43400F583E5822F6E
:100DFC00F582E43583F583E0FFEE7003FD80027D20
:100E0C00037BFF7A0079179000587410F0121D487C
:100E1C009000DBE0FBA3E0FAA3E0F9121623FC90B0
:100E2C0000D6E0FDECD39D50239000D9E0FF90005C
:100E3C00D8E0FEF87401088002C333D8FCF45F904C
:100E4C0000D9F0E49000B9F005128040C3EC9D127B
:100E5C0016699000D8E0FF9000D7E0FE75F005A46D
:100E6C0024BAF582E43400F583E5822FF582E4356B
:100E7C0083F583E0FFEE7003FD80027D037BFF7A38
:100E8C000079199000587410F0121D489000D8E0A9
:100E9C0004F0020D959000D9E0FF9000D7E0240EED
:100EAC00F8A607E004F0020D6FE49000D7F0900074
:100EBC00D7E0C394027480948050439000D7E0FD37
:100ECC002410F8E6FFD39400748094804028EF142B
:100EDC00FF7E007401A807088005C333CE33CED83B
:100EEC00F9FF740E2DF8E6FDEF5D700A9000D7E067
:0E0EFC002410F81680C59000D7E004F080B0F6
:010F0A0022C4
:1016E2009000B8E0FE2DF582E43CF583E4937003AC
:1016F20002179AEE2402FBE433FAED2BF582EC3A60
:10170200F583E49314FEC394027480948040030230
:10171200179374102EF8E6FDC394057480948050DC
:1017220070EF25E0FFC374799FFFEE75F005A424E6
:10173200BAF582E43400F583E5822DF582E435833F
:10174200F583EFF0740E2EF8C000E6FFA8057401D1
:10175200088002C333D8FC4FD000F674102EF8066E
:10176200EE75F005A424BAF582E43400F583E5822F
:101772002DF582E43583F583E0FFEE7003FD8002F0
:101782007D037BFF7A0079199000587410F0121DC6
:08179200489000B8E02403F0C8
:01179A00222C
:0510A0009000DEEFF0FE
:1010A500ED14A3F0E4A3F0A3F09000DFE0FF24101B
:1010B500F8E6FE9000E1E0FDC39E40030211C57411
:1010C5000E2FF8E6FB7A007E007401A8050880055E
:1010D500C333CE33CED8F9FFEE5AFEEF5B4E700325
:1010E5000211BC9000E1E0FF9000DFE075F005A47F
:1010F50024BAF582E43400F583E5822FF582E435E0
:1011050083F583E0FFC39428748094804003021123
:10111500BCEF24F0FFE434FFFE9000DEE0FD7C0030
:1011250012168DEFFD7C00C39401748094805008E5
:101135009000E07403F08016C3ED9402EC64809493
:10114500809000E050057402F080037401F0900077
:10115500E1E0FF9000DFE0FE75F005A424BAF5821A
:10116500E43400F583E5822FF582E43583F583E0E9
:10117500FFEE7003FD80027D037BFF7A00791790F7
:1011850000587410F0121D489000DFE0240EF8C0DE
:1011950000E6FF9000E1E0FEF87401088002C33329
:1011A500D8FCF45FD000F69000E0E0FF2412F806CA
:1011B5009000B9E004F0229000E1E004F00210AEE6
:0211C5007F00A9
:0111C7002205
:0513BC009000E2EFF0DB
:1013C100E4A3F09000E3E0C39402748094804003AE
:1013D100021489E4A3F09000E3E0FF2410F8E6FE94
:1013E100A3E0FDC39E4003021480740E2FF8E6FBB8
:1013F1007A007E007401A805088005C333CE33CE80
:10140100D8F9FFEE5AFEEF5B4E606B9000E4E0FF0F
:101411009000E3E075F005A424BAF582E43400F508
:1014210083E5822FF582E43583F583E0FF9000E2C6
:10143100E0FEEFD39E503FA3E07003FD80027D03E9
:101441007BFF7A0079179000587410F0121D4890B4
:1014510000E3E0240EF8C000E6FFA3E0FEF874010B
:10146100088002C333D8FCF45FD000F60512E49083
:1014710000B9F07F01229000E4E004F00213D7905C
:0A14810000E3E004F00213C47F0052
:01148B00223E
:101FA300C2A1E4FEEEC39408748094805018EF54E9
:101FB3008064807004D2A08002C2A0EF25E0FFD22B
:061FC300A1C2A10E80DEA8
:011FC90022F5
:101FF000900063EFF012000E7F78121FA31220AC46
:10200000E4FF121FA31220AC900063E0FF121FA395
:062010001220AC0220CEFC
:10201600900063EFF012000E7F78121FA31220AC1F
:102026007F40121FA31220AC900063E0FF121FA393
:062036001220AC0220CED6
:06203C007F10E4FDFCFE34
:10204200900061EEF0A3EFF0ED4C9000616006A30A
:0C205200E0FF022016A3E0FF121FF022A6
:1012D5007FAE12203EE4FDFCFFFE12204212203CB0
:1012E500E4FDFC7F40FE122042E4FDFC7FB0FE12CF
:1012F5002042E4FDFC7F81FE122042E4FDFC7FFFDD
:10130500FE122042E4FDFC7FA1FE122042E4FDFC1A
:101315007FA6FE122042E4FDFC7FA8FE122042E4D7
:10132500FDFC7F3FFE122042E4FDFC7FC8FE12203B
:1013350042E4FDFC7FD3FE122042E4FDFCFFFE12D9
:101345002042E4FDFC7FD5FE122042E4FDFC7F80B7
:10135500FE122042E4FDFC7FD8FE122042E4FDFC93
:101365007F05FE122042E4FDFC7FD9FE122042E4F7
:10137500FDFC7FF1FE122042E4FDFC7FDAFE122027
:1013850042E4FDFC7F12FE122042E4FDFC7FDBFE01
:10139500122042E4FDFC7F30FE122042E4FDFC7F7A
:1013A5008DFE122042E4FDFC7F14FE122042E4FD76
:0713B500FC7FAFFE022042A5
:101DAC00E4900049F0900049E0FF7E00C394087471
:101DBC008094805044EF24B0FFEE33FEE4FDFC121F
:101DCC002042E4FDFCFFFE12204212203CE4900075
:101DDC004AF090004AE0C394807480948050127D45
:101DEC00017C00E4FFFE12204290004AE004F080E7
:091DFC00E1900049E004F080AC24
:011E050022BA
:081ED60090005AE0FFA3E0FDBB
:101EDE00900060EFF0ED24B0FFE433FEE4FDFC1261
:101EEE002042900060E054F0C4540F7E004410FF76
:101EFE00E4FDFC122042900060E0540FFF7E00E4EF
:051F0E00FDFC02204271
:0B11C80090005BEDF090005AEFF0FD8E
:1011D300EB24E090005EF0EDD3947874809480402B
:1011E3000AE490005AF0A3E02402F090005DE0646A
:1011F30010600302128E121ED6E490005FF090007E
:101203005FE0FFC3940874809480503090005EE0E8
:1012130075F010A42FF582E435F0F583E5822446BA
:10122300F582E5833402F583E493FF7E007D017C40
:101233000012204290005FE004F080C290005AE068
:10124300FFA3E004FD121EDEE490005FF090005F58
:10125300E0FFC3940874809480507690005EE0753C
:10126300F010A42FF582E435F0F583E582244EF5E2
:1012730082E5833402F583E493FF7E007D017C00E5
:1012830012204290005FE004F080C2121ED6E49068
:10129300005FF090005FE0FFC39406748094805079
:1012A3003090005EE075F006A4241EF582E5F0346C
:1012B30000F583E5822FF582E43583F583E493FF1C
:1012C3007E007D017C0012204290005FE004F080EC
:0112D300C258
:0112D40022F7
:101D4800900053EFF0A3EDF0A3EBF0A3EAF0A3E9C2
:011D5800F09A
:101D5900E4900059F0900055E0FBA3E0FAA3E0F904
:101D6900900059E0F58275830012163CFB603390B0
:101D79000053E0FFA3E0FD900058E090005DF012F1
:101D890011C8900053E02408F0E0D394787480944B
:101D9900804007E4F0A3E02402F0900059E004F049
:021DA90080B305
:011DAB002215
:0E185000900049EFF0A3EDF0A3EAF0A3EBF057
:10185E00E4FB90004BE0FEA3E0FF7C037DE8121654
:10186E008DEF243090004EF090004BE0FEA3E0FF91
:10187E007C007D6412168D7C007D0A12168DED247F
:10188E003090004FF090004BE0FEA3E0FF7C007D17
:10189E000A12168D7C007D0A12168DED24309000F2
:1018AE0050F090004BE0FEA3E0FF7C007D0A121684
:1018BE008DED2430900051F0E4A3F0EBC39403744B
:1018CE008094805011744E2BF582E43400F583E041
:1018DE00B430030B80E5900049E0FFA3E0FD744EA9
:1018EE002BF9E43400FA7B0190004DE0900058F0A3
:0318FE00021D4880
:101E0600E4FDFC7F2EFE122042E4FDFC7F27FE123D
:101E16002042E4FDFCFFFE122042E4FDFCFFFE1220
:101E26002042E4FDFC7F05FE122042E4FDFC7F011A
:101E3600FE122042E4FDFCFFFE122042E4FDFC7F80
:0E1E46007FFE122042E4FDFC7F2FFE022042B0
:10001E000000000000000000002F0000000007009C
:10002E00070000147F147F1400242A7F2A12006216
:10003E0064081323003649552250000005030000C2
:10004E0000001C224100000041221C000014083E4A
:10005E0008140008083E0808000000A06000000810
:10006E000808080800006060000000201008040264
:10007E00003E5149453E0000427F40000042615122
:10008E004946002141454B31001814127F100027BC
:10009E0045454539003C4A4949300001710905037F
:1000AE0000364949493600064949291E00003636B0
:1000BE000000000056360000000814224100001413
:1000CE0014141414000041221408000201510906F0
:1000DE0000324959513E007C1211127C007F494971
:1000EE004936003E41414122007F4141221C007FA2
:1000FE0049494941007F09090901003E4149497AB0
:10010E00007F0808087F0000417F41000020404129
:10011E003F01007F08142241007F40404040007F95
:10012E00020C027F007F0408107F003E4141413ED9
:10013E00007F09090906003E4151215E007F091921
:10014E0029460046494949310001017F0101003F1E
:10015E004040403F001F2040201F003F4038403F9E
:10016E000063140814630007087008070061514902
:10017E00454300007F41410000552A552A55000095
:10018E0041417F0000040201020400404040404013
:10019E00000001020400002054545478007F4844AB
:1001AE00443800384444442000384444487F0038E2
:1001BE005454541800087E0901020018A4A4A47C0B
:1001CE00007F080404780000447D400000408084D5
:1001DE007D00007F102844000000417F4000007C1D
:1001EE0004180478007C0804047800384444443829
:1001FE0000FC242424180018242418FC007C080475
:10020E00040800485454542000043F444020003C4D
:10021E004040207C001C2040201C003C4030403CD4
:10022E00004428102844001CA0A0A07C0044645464
:10023E004C441414141414140000000000000000A8
:10024E000000000000000000000000F800000000A8
:10025E00000000333000000000100C06100C0600E9
:10026E00000000000000000040C07840C078400050
:10027E00043F04043F040400007088FC08300000B2
:10028E00001820FF211E0000F008F000E01800000A
:10029E0000211C031E211E0000F0088870000000C3
:1002AE001E2123241927211010160E000000000015
:1002BE000000000000000000000000E01804020032
:1002CE00000000071820400000020418E0000000A3
:1002DE000040201807000000404080F080404000A1
:1002EE000202010F01020200000000F000000000F7
:1002FE000101011F010101000000000000000000CB
:10030E0080B070000000000000000000000000003F
:10031E0000010101010101010000000000000000C8
:10032E000030300000000000000000008060180463
:10033E00006018060100000000E010080810E00040
:10034E00000F102020100F00001010F80000000009
:10035E000020203F20200000007008080888700050
:10036E0000302824222130000030088888483000D0
:10037E000018202020110E000000C02010F80000F0
:10038E0000070424243F240000F808888808080089
:10039E000019212020110E0000E01088881800009E
:1003AE00000F112020110E0000380808C838080070
:1003BE000000003F000000000070880808887000F0
:1003CE00001C222121221C0000E010080810E00071
:1003DE000000312222110F00000000C0C0000000FA
:1003EE00000000303000000000000080000000001F
:1003FE000000806000000000000080402010080017
:10040E0000010204081020004040404040404000DF
:10041E0004040404040404000008102040800000BA
:10042E000020100804020100007048080808F000BF
:10043E000000003036010000C030C828E810E0008F
:10044E000718272423140B000000C038E00000001A
:10045E00203C23020227382008F888888870000084
:10046E00203F202020110E00C03008080808380058
:10047E00071820202010080008F808080810E000CF
:10048E00203F202020100F0008F88888E808100070
:10049E00203F20202320180008F88888E808100044
:1004AE00203F200003000000C0300808083800007C
:1004BE0007182020221E020008F808000008F8087D
:1004CE00203F210101213F20000808F80808000004
:1004DE000020203F2020000000000808F808080037
:1004EE00C08080807F00000008F888C028180800AF
:1004FE00203F20012638200008F8080000000000E8
:10050E00203F20202020300008F8F800F8F80800DE
:10051E00203F003F003F200008F830C00008F808D8
:10052E00203F200007183F00E01008080810E000E8
:10053E000F10202020100F0008F808080808F000FF
:10054E00203F210101010000E01008080810E00022
:10055E000F18242438504F0008F8888888887000B7
:10056E00203F2000030C3020007088080808380057
:10057E000038202121221C00180808F8080818004D
:10058E000000203F2000000008F808000008F808CE
:10059E00001F202020201F000878880000C838087F
:1005AE00000007380E010000F80800F80008F800F7
:1005BE00033C0700073C0300081868808068180891
:1005CE0020302C03032C30200838C800C83808000F
:1005DE000000203F2000000010080808C83808005E
:1005EE002038262120201800000000FE0202020002
:1005FE000000007F40404000000C30C000000000B2
:10060E00000000010638C00000020202FE000000D9
:10061E00004040407F00000000000402020204007F
:10062E0000000000000000000000000000000000BC
:10063E0080808080808080800002020400000000A4
:10064E00000000000000000000008080808000009C
:10065E000019242222223F2008F80080800000008A
:10066E00003F112020110E0000000080808000004D
:10067E00000E112020201100000000808088F8005C
:10068E00000E112020103F2000008080808000008E
:10069E00001F222222221300008080F088888818F2
:1006AE000020203F202000000000808080808000FD
:1006BE00006B94949493600008F800808080000092
:1006CE00203F210000203F2000809898000000006D
:1006DE000020203F2020000000000080989800009D
:1006EE0000C08080807F000008F8000080808000BD
:1006FE00203F24022D302000000808F800000000E2
:10070E000020203F2020000080808080808080009C
:10071E00203F20003F20003F80800080808000002E
:10072E00203F210000203F200000808080800000BC
:10073E00001F202020201F008080008080000000ED
:10074E0080FFA12020110E0000000080808080001C
:10075E00000E112020A0FF8080808000808080000D
:10076E0020203F212000010000008080808080003A
:10077E000033242424241900008080E080800000AF
:10078E000000001F202000008080000000808000FC
:10079E00001F202020103F2080808000008080805D
:1007AE0000010E30080601008080008000808080ED
:1007BE000F300C030C300F00008080008080800012
:1007CE000020312E0E31200080808000008080803D
:1007DE0080818E70180601000080808080808000ED
:0807EE000021302C2221300013
:1007F600EFD3940640037FFF2274222F2FF8E620C2
:10080600E5F4C2AFE64430F6D2AFAE0CEEC39F506D
:10081600210E74182EF8E6F908E618BE060274FFD3
:10082600FDED69600909E71919F7090980F316163C
:1008360080DAEED39F400405810581EED39F4022E6
:1008460074182EF808E6F9EEB50C02A9811806060A
:10085600E6FDED6960091919E70909F71980F31E24
:1008660080D9EF2418F8E604F8EF2F049020DC93E3
:09087600F608EF2F93F67F002233
:10087F00EFD3940640037FFF22EF232422F8E630C4
:10088F00E5F4C2AFE6548CF6D2AFE50CB5070A74A7
:10089F00182FF8E6F5810209E2502E74192FF8E6A9
:1008AF00BF060274FFFD18E6F974182FF8FBE6FC7B
:1008BF00E96C6008A805E7F61D1980F4A803A605E2
:1008CF001FE50CB507E37F002274192FF8E6FD181A
:1008DF0086010F74182FF8A601088604E50CB507DA
:1008EF0002AC81ED6C60080D09A805E6F780F4E510
:0908FF000CB507DE89817F00229F
:100908008FF0E4FFFEE50C232421F8C2A930F70D8F
:100918007F08E6600B2DF660325030800730F10614
:10092800EDF660277E020830F010C2AFE610E7252A
:100938000E30E20CD2AF7F048014C2AFE610E71588
:1009480054EC4EF6D2AFD2A90209E27F0808EF4470
:0F09580083F4C2AF56C6D2AFD2A954804FFF224C
:03000B0002096C7B
:10096700C2AF80FE3212096B85D00B75D008AAE0A2
:10097700C28CE58A24F7F58AE58C34D8F58CD28CBD
:10098700EC2419F8E6BC060274FFC39581B4140081
:1009970040CE7907782116E608700BC2AFE630E142
:1009A700034418F6D2AF08D9EDEA8BD030060122FE
:1009B700D50DFCC0E0C0D0C0F0C083C082C000C06D
:1009C70001C002C003C004C005C006C007E50C2370
:1009D7002422F87440C2AF46F6D2AFD206E50CFF28
:1009E700232422F80F0808BF07047F007822E63087
:1009F700E4F200E50CC39F5020050C7418250CF891
:100A0700E6FDA68108E6AE0CBE060274FFCDF8E847
:100A17006D60E008E6C0E080F6E50CD39F4027E56F
:100A27000C2419F8E6AE0CBE060274FFFD18E6CDDD
:100A3700F8E5816D6006D0E0F61880F5E50C24181E
:100A4700C8F6150C80D3750D05E50C232422F87F15
:100A570004C2AFE610E61E30E00310E20C7F003060
:050A6700E10730E3048B
:100A6C007F0854F4547CC6D2AF54804207C206228D
:100A7C00F6D2AFD007D006D005D004D003D002D028
:100A8C0001D000D082D083D0F0D0D0D0E0C20622EA
:100A9C007818A68174066006FF0876FFDFFB7F07D7
:100AAC00E47821F608F608DFFA782276309020DC1C
:100ABC00740193C0E0E493C0E0750D0543890175A2
:0D0ACC008AF0758CD8D28CD2AFD2A9220648
:03000000021B6B75
:0C1B6B00787FE4F6D8FD75812E021BB2D5
:10162300BB010689828A83E0225002E722BBFE02C5
:09163300E32289828A83E49322F8
:10163C00BB010CE58229F582E5833AF583E0225063
:10164C0006E92582F8E622BBFE06E92582F8E222AD
:0D165C00E58229F582E5833AF583E49322C7
:10166900BB010689828A83F0225002F722BBFE0160
:02167900F3225A
:10167B00EF8DF0A4A8F0CF8CF0A428CE8DF0A42E83
:02168B00FE223D
:10168D00BC000BBE0029EF8DF084FFADF022E4CC41
:10169D00F875F008EF2FFFEE33FEEC33FCEE9DEC0A
:1016AD00984005FCEE9DFE0FD5F0E9E4CEFD22ED50
:1016BD00F8F5F0EE8420D21CFEADF075F008EF2F9A
:1016CD00FFED33FD4007985006D5F0F222C398FD8B
:0516DD000FD5F0EA2228
:101B7700020A9CE493A3F8E493A34003F68001F2DE
:101B870008DFF48029E493A3F85407240CC8C3336F
:101B9700C4540F4420C8834004F456800146F6DF3E
:101BA700E4800B01020408102040809019A9E47E0C
:101BB700019360BCA3FF543F30E509541FFEE49333
:101BC700A360010ECF54C025E060A840B8E493A3FA
:101BD700FAE493A3F8E493A3C8C582C8CAC583CA25
:101BE700F0A3C8C582C8CAC583CADFE9DEE780BEDD
:011A50000095
:00000001FF
