:021A3B00180E83
:021A3D000F5C3C
:021A3F0014157C
:021A4100174B41
:021A430016EBA0
:021A4500116A24
:021A47001987FD
:1008260053746172740053657474696E6700536320
:100836006F7265003E3E0020200067616D6573742F
:10084600617465206E6F7700747261636B31203D51
:100856002031303030303000747261636B32203DAD
:10086600203130303030300073706565643A0020D6
:100876000051000000000000000000000000000021
:100886000000000000000000000000000000000062
:100896000000000000000000000000000000000052
:1008A600000000008080C0C0C0E0E0E0F0F0F0F0A2
:1008B600F0F0F0F0F0F0F0F0F0E0E0E0C0C0C08062
:1008C6000000000000000000000000000000000022
:1008D6000000000000000000000000000000000012
:1008E6000000000000000000000000000000000002
:1008F60000000000000000000000000000000000F2
:1009060000000000000000000000000000000000E1
:1009160000000000000000000000000080E0F0F889
:10092600FCFEFEFFFFFFFFFF7F7F3F3F1F1F1F1FD6
:100936000F0F0F0F0F0F1F1F1F3F3F3F7F7FFFFF41
:10094600FFFFFEFCF8F0E0C08000000000000000A1
:100956000000000000000000000000000000000091
:100966000000000000000000000000000000000081
:100976000000000000000000000000000000000071
:100986000000000000000000000000000000000061
:10099600000000000000000080F0FCFFFFFFFFFFEA
:1009A600FFFF3F0F0703010000000000000000806A
:1009B60080808080808080000000000000000001B0
:1009C60081C3E7FFFFFFFFFFFFFFFCF08000000091
:1009D6000000000000000000000000000000000011
:1009E6000000000000000000000000000000000001
:1009F60000000000000000000000000000000000F1
:100A060000000000000000000000000000000000E0
:100A160000000000000000E0FFFFFFFFFFFFFFFFF8
:100A260007000000000000000000F0FCFEFFFFFFD2
:100A3600FFFFFFFFFFFFFFFFFF3E3C78787C7E7FD6
:100A46007F7F7F7F7FFFFFFFFFFFFFFFFF0000002D
:100A56000000000000000000000000000000000090
:100A66000000000000000000000000000000000080
:100A76000000000000000000000000000000000070
:100A86000000000000000000000000000000000060
:100A960000000000000000037FFFFFFFFFFFFFFFD5
:100AA600F0000000000000000000071F7F7FFFFF2E
:100AB600FFFFFFFFFFFFFFFFFF0000000000000039
:100AC6000000000000FFFFFFFFFFFFFF7F000000A8
:100AD6000000000000000000000000000000000010
:100AE6000000000000000000000000000000000000
:100AF60000000000000000000000000000000000F0
:100B060000000000000000000000000000000000DF
:100B1600000000000000000000030F3F7FFFFFFF02
:100B2600FFFFFCF8E0C080000000000000000000AD
:100B360001010101010101000000000000000000A8
:100B460000000000F0FFFFFF7F1F0F030000000002
:100B5600000000000000000000000000000000008F
:100B6600000000000000000000000000000000007F
:100B7600000000000000000000000000000000006F
:100B8600000000000000000000000000000000005F
:100B960000000000000000000000000000C1E3FFAC
:100BA600FFFFFFFFFFFFFFFFFFFEFEFCFCFCF8F868
:100BB600F8F8F8F8F8F8F8F8F8FCFCFCFEFEFCFC8F
:100BC600FCFCF8F8FFFFFFFFFFFFFFFFFFFF1F0022
:100BD600000000000000000000000000000000000F
:100BE60000000000000000000000000000000000FF
:100BF60000000000000000000000000000000000EF
:100C060000000000000000000000000000000000DE
:100C160000000000000000000000000003030303C2
:100C260001010101000000000000000000000000BA
:100C3600000001010103030303070707070F0F0F56
:100C46000F0F0F0F0F0F0F0F0F0F070703010000F6
:100C5600000000000000000000000000000000008E
:100C6600000000000000000000000000000000007E
:030C76000000007B
:1019EB00C101C100C102011A01011D7701180401D7
:0219FB001701D2
:10180E0075A0FF12125A7524087525FF75260875E6
:10181E0027797B80E4FDFF121682E4FBFA7D327F8E
:10182E0080120D8B7F01120C797F02120C797F06CC
:08183E00120C79E4FF020D0217
:100F5C00300103021044300003021044300203023B
:100F6C00104420B137E4FBFA7D037F80120D8B20F7
:100F7C00B12AE4FBFA7D0A7F80120D8B151AAF1A89
:100F8C00C3EF9401748094805003751A0320B10C44
:100F9C00E4FBFA7D017F80120D8B80F120B037E4E9
:100FAC00FBFA7D037F80120D8B20B02AE4FBFA7DC7
:100FBC000A7F80120D8B051AAF1AD3EF940374803D
:100FCC0094804003751A0120B00CE4FBFA7D017F7C
:100FDC0080120D8B80F120B255E4FBFA7D037F80EB
:100FEC00120D8B20B248E4FBFA7D0A7F80120D8B28
:100FFC00E51A24FE601214601A24027022D2017FBA
:10100C0002120D027F038014D2007F02120D027FA8
:10101C00058009D2027F02120D027F04120C792086
:10102C00B20CE4FBFA7D017F80120D8B80F1E4FBA6
:10103C00FA7D0A7F80120D8B30013220B22FE4FB37
:10104C00FA7D037F80120D8B20B216E4FBFA7D0A29
:10105C00800820B20CE4FBFA7D017F80120D8B809E
:10106C00F1C201E4FBFA7D037F80120D8B2000039B
:10107C0002112F20B137E4FBFA7D037F80120D8B18
:10108C0020B12AE4FBFA7D0A7F80120D8B1518AF74
:10109C0018C3EF940274809480500375180120B12A
:1010AC000CE4FBFA7D017F80120D8B80F120B037B0
:1010BC00E4FBFA7D037F80120D8B20B02AE4FBFA4F
:1010CC007D0A7F80120D8B0518AF18D3EF9407742F
:1010DC00809480400375180820B00CE4FBFA7D0165
:1010EC007F80120D8B80F120B22FE4FBFA7D037F01
:1010FC0080120D8B20B216E4FBFA7D0A800820B218
:10110C000CE4FBFA7D017F80120D8B80F1C200E4B0
:10111C00FBFA7D037F80120D8BE4FBFA7D0A7F8046
:10112C00120D8B200203020F5C30B203020F5CE441
:10113C00FBFA7D037F80120D8BE4FBFA7D0A80089D
:10114C0020B20CE4FBFA7D017F80120D8B80F1C282
:0E115C0002E4FBFA7D037F80120D8B020F5C14
:101415001218AEE4FBFA7D0A7F80120D8B75A0AA27
:101425002001F02002ED2000EA7BFF7A087926757D
:101435005510E4FD7F191217907BFF7A08792C75FA
:1014450055107D037F191217907BFF7A0879347543
:1014550055107D067F19121790E51A24FE601F149A
:101465006044240270707BFF7A08793A755510E460
:10147500FD7F031217907BFF7A08793D80167BFF6D
:101485007A08793D755510E4FD7F031217907BFFAF
:101495007A08793A7555107D037F031217907BFF03
:1014A5007A08793D80267BFF7A08793D755510E4E9
:1014B500FD7F031217907BFF7A08793D7555107DE6
:1014C500037F031217907BFF7A08793A7555107DD3
:1014D500067F03121790E4FBFA7D0A7F80120D8BBD
:0314E500021425C9
:10174B003001361218AE75A0013001127BFF7A08FA
:10175B0079407555107D037F0312179080EB12189B
:10176B00AEE4FBFA7D647F80120D8BC2017F021207
:10177B000C797F03120D0280C7E4FBFA7D647F8036
:05178B00120D8B80BB74
:1016EB0030025112125A1218AE75A00230022C7B26
:1016FB00FF7A08794E7555107D037F031217907B87
:10170B00FF7A08795E7555107D067F03121790E4FA
:10171B00FBFA7D147F80120D8B80D1E4FBFA7D6484
:10172B007F80120D8B1218AE7F02120C797F041280
:10173B000D0280ACE4FBFA7D647F80120D8B80A0E0
:10116A0020000302124D12125A1218AEE4FBFA7D45
:10117A000A7F80120D8B75A00320000302123385AB
:10118A001819E4FBFA7D017F80120D8BE51975F0C1
:10119A000A84E5F02430F51BE4F51CFBFA7D017F97
:1011AA0080120D8B7BFF7A08796E7555107D037F4F
:1011BA0003121790E4FBFA7D017F80120D8B7B00EE
:1011CA007A00791B7555107D037F3C121790E51D37
:1011DA00D395184034AF1DEF9478748094805029C9
:1011EA007BFF7A087975755510E4FDAF1D121790CB
:1011FA00C3E51D9518F51D7BFF7A0879777555109B
:10120A00E4FDAF1D12179080137BFF7A087975757C
:10121A005510E4FDAF1D121790751D77E4FBFA7D9A
:10122A00017F80120D8B021183E4FBFA7D647F80BB
:10123A00120D8B1218AE7F02120C797F05120D0265
:10124A0002116AE4FBFA7D647F80120D8B02116A37
:1019870030010CE4FBFA7D647F80120D8B80F1E45B
:0B199700FBFA7D647F80120D8B80E561
:10196900D3EF9400EE940040147D657C18ED1D7052
:0D197900011CED4C70F7EF1F70E61E80E3BF
:01198600223E
:1019A200EF1FAA0670011E4A600FE4FDEDC3947B8F
:0919B2007480948050EA0D80F36A
:0119BB002209
:091A4900D290D291C291C2902208
:07000300D290C291D29122BC
:0B1A0F001218E7121A1AAF041218E7B1
:051A1A00D290C29022F1
:0718E000AC07121A497F78E2
:1018E700C290E4FEEEC3940874809480501BAD0749
:1018F700530580ED64807004D2918002C291EF2578
:09190700E0FFD290C2900E80DBDB
:0119100022B4
:0E1A1F001218E0121A1AE4FF121A0F02000346
:0E1A2D001218E0121A1A7F40121A0F0200035C
:10191100EF24B0FFEE33FEE4FDFC12192CE4FDFCD4
:0B192100FFFE12192C7F10E4FDFCFEFD
:10192C00AB07AA06ED4C6003021A2DAF03121A1F67
:01193C002288
:021846008F1EF3
:10184800E4F9E9FF7E00C394087480948050231261
:101858001911E4F51FC3E51F948074809480500F1C
:10186800AF1E7E007D017C0012192C051F80E60941
:0218780080D01E
:01187A00224B
:10193D00A907ED24B0FFE433FEE4FDFC12192CE9F8
:10194D0054F0C4540F7E004410FFE4FDFC12192C1A
:0C195D00E9540FFF7E00E4FDFC02192C91
:1019D4007F8D121928E4FDFC7F14FE12192CE4FDFE
:0719E400FC7FAFFE02192C8D
:1019FE00E4FDFC7F8D121922E4FDFC7FAEFE021980
:011A0E002CAB
:1018AE00E4F9E9FF7E00C3940874809480502212FC
:1018BE001911E4F550C3E550948074809480500E55
:1018CE007D017C00E4FFFE12192C055080E7098093
:0118DE00D138
:0118DF0022E6
:10187B00E4F9E9FF7E00C39408748094805023122E
:10188B001911E4F55CC3E55C948074809480500F6F
:10189B007D017C007F017E0012192C055C80E6091E
:0218AB0080D0EB
:0118AD002218
:04133A008F578D58E4
:10133E00E4F55BF9EB24E0F55BD3EF947F748094D6
:10134E00804007E4F55705580558E55A6410707A41
:10135E00AD58AF5712193DE4F9E9C394087480945F
:10136E0080502975F010E55BA429F582E435F0F57F
:10137E0083E5822436F582E5833402F583E493FF18
:10138E007E007D017C0012192C0980CDE55804FDEC
:10139E00AF5712193DE4F9E9C39408748094805054
:1013AE006575F010E55BA429F582E435F0F583E56B
:1013BE0082243EF582E5833402F583E493FF7E00BA
:1013CE007D017C0012192C0980CDAD58AF57121932
:1013DE003DE4F9E9C3940674809480502975F006B3
:1013EE00E55BA4240EF582E5F03400F583E5822951
:1013FE00F582E43583F583E493FF7E007D017C0066
:06140E0012192C0980CD2B
:0114140022B5
:0419BC008F5DA9058D
:1019C0007F017E00AD0119ED6009AD5D7C0012154F
:0319D0001580F18E
:0119D30022F1
:081608008F0E8D0F8A108B116B
:10161000E4F516F514E514C395125065C3E512956B
:101620001414FD7F0A1219BCAC10AD11CFCDCFCE72
:10163000CCCE1215277C007D0A1215278D15E516D4
:101640007023E51214FFE514C39F5019E5157012BD
:10165000E513C3138514F0A4250EFF85135A7B20D0
:101660008016751601E513C3138514F0A4250EFF2B
:10167000E5152430FB85135AAD0F12133A0514807B
:0116800094D5
:011681002246
:0A1790008F508D518B528A538954FB
:10179A00E4F556AB52AA53A95485568275830012B2
:1017AA0014E8FB602485555AAD51AF5012133A74B0
:1017BA00082550F550D39478748094804007E4F556
:0917CA005005510551055680CA75
:0117D30022F3
:041682008F218B2306
:10168600E4F528F529E5245407700BE52413131314
:10169600541FF52B800AE524131313541F04F52B4E
:1016A6008D2BE52BC39524503BAD2BAF2112193D55
:1016B60085212AE52AC395235026AB25AA26A927E4
:1016C6000529E529AE287002052814F5828E8312B5
:1016D60014E8FF7E007D017C0012192C052A80D3B8
:0416E600052B80BE92
:0116EA0022DD
:10125A00E4FDFC7FAEFE12191BE4FDFC7F40FE128A
:10126A00192CE4FDFC7FB0FE12192CE4FDFC7F81F1
:10127A00FE12192CE4FDFC7FFFFE12192CE4FDFC82
:10128A007FA1FE12192CE4FDFC7FA6FE12192CE4A4
:10129A00FDFC7FA8FE12192CE4FDFC7F3FFE12190B
:1012AA002CE4FDFC7FC8FE12192CE4FDFC7FD3FE62
:1012BA0012192CE4FDFCFFFE12192CE4FDFC7FD56B
:1012CA00FE12192CE4FDFC7F80FE12192CE4FDFCB1
:1012DA007FD8FE12192CE4FDFC7F05FE12192CE4BE
:1012EA00FDFC7FD9FE12192CE4FDFC7FF1FE1219D8
:1012FA002CE4FDFC7FDAFE12192CE4FDFC7F12FEC1
:10130A0012192CE4FDFC7FDBFE12192CE4FDFC7F94
:10131A0030FE12192CE4FDFC7F8DFE12192CE4FD1F
:10132A00FC7F14FE12192CE4FDFC7FAFFE02192C7F
:1017D400AB05AA077F2D121A1FE4FF121A1FEA6431
:1017E40001700DFF121A1F7F01121A1F7F07800D4F
:1017F4007F03121A1FEB14FF121A1F7F05121A1F00
:0A180400E4FF121A1F7F7F021A1F73
:10000E000000000000000000002F000000000700AC
:10001E00070000147F147F1400242A7F2A12006226
:10002E0064081323003649552250000005030000D2
:10003E0000001C224100000041221C000014083E5A
:10004E0008140008083E0808000000A06000000820
:10005E000808080800006060000000201008040274
:10006E00003E5149453E0000427F40000042615132
:10007E004946002141454B31001814127F100027CC
:10008E0045454539003C4A4949300001710905038F
:10009E0000364949493600064949291E00003636C0
:1000AE000000000056360000000814224100001423
:1000BE001414141400004122140800020151090600
:1000CE0000324959513E007C1211127C007F494981
:1000DE004936003E41414122007F4141221C007FB2
:1000EE0049494941007F09090901003E4149497AC0
:1000FE00007F0808087F0000417F4100002040413A
:10010E003F01007F08142241007F40404040007FA5
:10011E00020C027F007F0408107F003E4141413EE9
:10012E00007F09090906003E4151215E007F091931
:10013E0029460046494949310001017F0101003F2E
:10014E004040403F001F2040201F003F4038403FAE
:10015E000063140814630007087008070061514912
:10016E00454300007F41410000552A552A550000A5
:10017E0041417F0000040201020400404040404023
:10018E00000001020400002054545478007F4844BB
:10019E00443800384444442000384444487F0038F2
:1001AE005454541800087E0901020018A4A4A47C1B
:1001BE00007F080404780000447D400000408084E5
:1001CE007D00007F102844000000417F4000007C2D
:1001DE0004180478007C0804047800384444443839
:1001EE0000FC242424180018242418FC007C080485
:1001FE00040800485454542000043F444020003C5E
:10020E004040207C001C2040201C003C4030403CE4
:10021E00004428102844001CA0A0A07C0044645474
:10022E004C441414141414140000000000000000B8
:10023E000000000000000000000000F800000000B8
:10024E00000000333000000000100C06100C0600F9
:10025E00000000000000000040C07840C078400060
:10026E00043F04043F040400007088FC08300000C2
:10027E00001820FF211E0000F008F000E01800001A
:10028E0000211C031E211E0000F0088870000000D3
:10029E001E2123241927211010160E000000000025
:1002AE000000000000000000000000E01804020042
:1002BE00000000071820400000020418E0000000B3
:1002CE000040201807000000404080F080404000B1
:1002DE000202010F01020200000000F00000000007
:1002EE000101011F010101000000000000000000DB
:1002FE0080B0700000000000000000000000000050
:10030E0000010101010101010000000000000000D8
:10031E000030300000000000000000008060180473
:10032E00006018060100000000E010080810E00050
:10033E00000F102020100F00001010F80000000019
:10034E000020203F20200000007008080888700060
:10035E0000302824222130000030088888483000E0
:10036E000018202020110E000000C02010F8000000
:10037E0000070424243F240000F808888808080099
:10038E000019212020110E0000E0108888180000AE
:10039E00000F112020110E0000380808C838080080
:1003AE000000003F00000000007088080888700000
:1003BE00001C222121221C0000E010080810E00081
:1003CE000000312222110F00000000C0C00000000A
:1003DE00000000303000000000000080000000002F
:1003EE000000806000000000000080402010080027
:1003FE0000010204081020004040404040404000F0
:10040E0004040404040404000008102040800000CA
:10041E000020100804020100007048080808F000CF
:10042E000000003036010000C030C828E810E0009F
:10043E000718272423140B000000C038E00000002A
:10044E00203C23020227382008F888888870000094
:10045E00203F202020110E00C03008080808380068
:10046E00071820202010080008F808080810E000DF
:10047E00203F202020100F0008F88888E808100080
:10048E00203F20202320180008F88888E808100054
:10049E00203F200003000000C0300808083800008C
:1004AE0007182020221E020008F808000008F8088D
:1004BE00203F210101213F20000808F80808000014
:1004CE000020203F2020000000000808F808080047
:1004DE00C08080807F00000008F888C028180800BF
:1004EE00203F20012638200008F8080000000000F8
:1004FE00203F20202020300008F8F800F8F80800EF
:10050E00203F003F003F200008F830C00008F808E8
:10051E00203F200007183F00E01008080810E000F8
:10052E000F10202020100F0008F808080808F0000F
:10053E00203F210101010000E01008080810E00032
:10054E000F18242438504F0008F8888888887000C7
:10055E00203F2000030C3020007088080808380067
:10056E000038202121221C00180808F8080818005D
:10057E000000203F2000000008F808000008F808DE
:10058E00001F202020201F000878880000C838088F
:10059E00000007380E010000F80800F80008F80007
:1005AE00033C0700073C03000818688080681808A1
:1005BE0020302C03032C30200838C800C83808001F
:1005CE000000203F2000000010080808C83808006E
:1005DE002038262120201800000000FE0202020012
:1005EE000000007F40404000000C30C000000000C2
:1005FE00000000010638C00000020202FE000000EA
:10060E00004040407F00000000000402020204008F
:10061E0000000000000000000000000000000000CC
:10062E0080808080808080800002020400000000B4
:10063E0000000000000000000000808080800000AC
:10064E000019242222223F2008F80080800000009A
:10065E00003F112020110E0000000080808000005D
:10066E00000E112020201100000000808088F8006C
:10067E00000E112020103F2000008080808000009E
:10068E00001F222222221300008080F08888881802
:10069E000020203F2020000000008080808080000D
:1006AE00006B94949493600008F8008080800000A2
:1006BE00203F210000203F2000809898000000007D
:1006CE000020203F202000000000008098980000AD
:1006DE0000C08080807F000008F8000080808000CD
:1006EE00203F24022D302000000808F800000000F2
:1006FE000020203F202000008080808080808000AD
:10070E00203F20003F20003F80800080808000003E
:10071E00203F210000203F200000808080800000CC
:10072E00001F202020201F008080008080000000FD
:10073E0080FFA12020110E0000000080808080002C
:10074E00000E112020A0FF8080808000808080001D
:10075E0020203F212000010000008080808080004A
:10076E000033242424241900008080E080800000BF
:10077E000000001F2020000080800000008080000C
:10078E00001F202020103F2080808000008080806D
:10079E0000010E30080601008080008000808080FD
:1007AE000F300C030C300F00008080008080800022
:1007BE000020312E0E31200080808000008080804D
:1007CE0080818E70180601000080808080808000FD
:1007DE000021302C2221300000000000807C02021B
:1007EE0000000000003F404000000000FF0000003D
:1007FE0000000000FF0000000002027C80000000EC
:10080E000040403F00000000000601010202040407
:08081E000000000000000000D2
:100C7900EFD3940640037FFF22745F2F2FF8E620FD
:100C8900E5F4C2AFE64430F6D2AFAE0CEEC39F50E6
:100C9900210E746C2EF8E6F908E618BE060274FFF8
:100CA900FDED69600909E71919F7090980F31616B5
:100CB90080DAEED39F400405810581EED39F40225F
:100CC900746C2EF808E6F9EEB50C02A9811806062F
:100CD900E6FDED6960091919E70909F71980F31E9D
:100CE90080D9EF246CF8E604F8EF2F04901A3B93AF
:090CF900F608EF2F93F67F0022AC
:100D0200EFD3940640037FFF22EF23245FF8E630FF
:100D1200E5F4C2AFE6548CF6D2AFE50CB5070A741F
:100D22006C2FF8E6F581020E65502E746D2FF8E6F1
:100D3200BF060274FFFD18E6F9746C2FF8FBE6FC9F
:100D4200E96C6008A805E7F61D1980F4A803A6055A
:100D52001FE50CB507E37F0022746D2FF8E6FD183E
:100D620086010F746C2FF8A601088604E50CB507FE
:100D720002AC81ED6C60080D09A805E6F780F4E588
:090D82000CB507DE89817F002217
:100D8B008FF0E4FFFEE50C23245EF8C2A930F70DCB
:100D9B007F08E6600B2DF660325030800730F1068D
:100DAB00EDF660277E020830F010C2AFE610E725A3
:100DBB000E30E20CD2AF7F048014C2AFE610E71501
:100DCB0054EC4EF6D2AFD2A9020E657F0808EF4461
:0F0DDB0083F4C2AF56C6D2AFD2A954804FFF22C5
:03000B00020DEFF4
:100DEA00C2AF80FE32120DEE85D00B75D008AAE094
:100DFA00C28CE58A24F7F58AE58C34D8F58CD28C36
:100E0A00EC246DF8E6BC060274FFC39581B41400A5
:100E1A0040CE7907785E16E608700BC2AFE630E17D
:100E2A00034418F6D2AF08D9EDEA8BD03003012279
:100E3A00D50DFCC0E0C0D0C0F0C083C082C000C0E5
:100E4A0001C002C003C004C005C006C007E50C23E8
:100E5A00245FF87440C2AF46F6D2AFD203E50CFF66
:100E6A0023245FF80F0808BF07047F00785FE63085
:100E7A00E4F200E50CC39F5020050C746C250CF8B5
:100E8A00E6FDA68108E6AE0CBE060274FFCDF8E8C0
:100E9A006D60E008E6C0E080F6E50CD39F4027E5E8
:100EAA000C246DF8E6AE0CBE060274FFFD18E6CD02
:100EBA00F8E5816D6006D0E0F61880F5E50C246C43
:100ECA00C8F6150C80D3750D05E50C23245FF87F51
:100EDA0004C2AFE610E61E30E00310E20C7F0030D9
:050EEA00E10730E30404
:100EEF007F0854F4547CC6D2AF54804207C2032209
:100EFF00F6D2AFD007D006D005D004D003D002D0A1
:100F0F0001D000D082D083D0F0D0D0D0E0C2032265
:100F1F00786CA68174066006FF0876FFDFFB7F07FB
:100F2F00E4785EF608F608DFFA785F7630901A3BC1
:100F3F00740193C0E0E493C0E0750D05438901751A
:0D0F4F008AF0758CD8D28CD2AFD2A92206C0
:0300000002157C6A
:0C157C00787FE4F6D8FD7581720215C37B
:1014E800BB010CE58229F582E5833AF583E02250B9
:1014F80006E92582F8E622BBFE06E92582F8E22203
:0D150800E58229F582E5833AF583E493221C
:10151500EF8DF0A4A8F0CF8CF0A428CE8DF0A42EEA
:02152500FE22A4
:10152700BC000BBE0029EF8DF084FFADF022E4CCA8
:10153700F875F008EF2FFFEE33FEEC33FCEE9DEC71
:10154700984005FCEE9DFE0FD5F0E9E4CEFD22EDB7
:10155700F8F5F0EE8420D21CFEADF075F008EF2F01
:10156700FFED33FD4007985006D5F0F222C398FDF2
:051577000FD5F0EA228F
:10158800020F1FE493A3F8E493A34003F68001F24B
:1015980008DFF48029E493A3F85407240CC8C33364
:1015A800C4540F4420C8834004F456800146F6DF33
:1015B800E4800B01020408102040809019EBE47EBF
:1015C800019360BCA3FF543F30E509541FFEE49328
:1015D800A360010ECF54C025E060A840B8E493A3EF
:1015E800FAE493A3F8E493A3C8C582C8CAC583CA1A
:1015F800F0A3C8C582C8CAC583CADFE9DEE780BED2
:0119FD0000E9
:00000001FF
