:02000E0018C315
:020010000836B0
:020012000EDA04
:0200140011B128
:0200160019FFD0
:0200180013448F
:10148000514720446173682076322E36004B6579CF
:10149000313A7570004B6579323A646F776E004B64
:1014A0006579333A636F6D6669726D004C6F616484
:1014B000696E672E2E2E0057656C636F6D65212057
:1014C00020005065726665637400476F6F6420206A
:1014D0002000426164202020200053746172740057
:1014E00053657474696E6700496E666F003E3E0016
:1014F0002020004B6579343A6261636B0020202024
:101500002020202020202000547261636B203100B5
:10151000547261636B203200746F703A00417574CD
:10152000683A4B79756E616E610032352F342F3217
:1015300030323500696E20415438394335325243D8
:101540000056322E36007072657373203320746F2C
:10155000207175697400547261636B31206E6F770E
:101560000067616D6520656E6400796F7572207328
:10157000636F726500547261636B32206E6F770027
:1015800073706565643A002400200051004D697352
:05159000732020200083
:101B1A00C101C100C102C1034200B400004200B7C2
:101B2A0000004200B100004100B6014100B301418A
:101B3A0000BB774100AF04C1044100BC004100AEC4
:011B4A000199
:1018C30075A0FF121681121C77E4FBFA7D327F802C
:1018D300120D097BFF7A1479809000537408F0E4A9
:1018E300FD7F03121C137BFF7A14798D90005374D0
:1018F30008F07D027F03121C137BFF7A1479959005
:1019030000537408F07D037F03121C137BFF7A14CA
:10191300799F9000537408F07D047F03121C137B9E
:10192300FF7A1479AC9000537408F07D067F03129C
:101933001C13E4FBFA7DE87F80120D097BFF7A1408
:1019430079B79000537408F07D067F03121C13E4EB
:10195300FBFA7D647F80120D097F01120BF77F0272
:08196300120BF7E4FF020C80F7
:1008360030010302091630000302091630020302D2
:10084600091620B139E4FBFA7D037F80120D0920D9
:10085600B12CE4FBFA7D0A7F80120D099000B3E00B
:1008660014F0E0C394017480948050037403F02064
:10087600B10CE4FBFA7D017F80120D0980F120B0F6
:1008860039E4FBFA7D037F80120D0920B02CE4FBCE
:10089600FA7D0A7F80120D099000B3E004F0E0D3E0
:1008A60094037480948040037401F020B00CE4FB40
:1008B600FA7D017F80120D0980F120B249E4FBFA2E
:1008C6007D037F80120D0920B23CE4FBFA7D0A7F8E
:1008D60080120D099000B3E024FE600B146016240C
:1008E600027014D2018010D2007F02120C807F05A4
:1008F600120BF78002D20220B20CE4FBFA7D017FD4
:1009060080120D0980F1E4FBFA7D0A7F80120D0941
:10091600200103020A0B300303020A0B20B139E45B
:10092600FBFA7D037F80120D0920B12CE4FBFA7DD2
:100936000A7F80120D099000B6E014F0E0C394011E
:100946007480948050037402F020B10CE4FBFA7DAD
:10095600017F80120D0980F120B039E4FBFA7D0396
:100966007F80120D0920B02CE4FBFA7D0A7F8012ED
:100976000D099000B6E004F0E0D3940274809480F0
:1009860040037401F020B00CE4FBFA7D017F801275
:100996000D0980F120B232E4FBFA7D037F80120D4F
:1009A6000920B21BE4FBFA7D0A7F80120D09D203EF
:1009B60020B20CE4FBFA7D017F80120D0980F17FE5
:1009C60002120C807F03120BF720B32FE4FBFA7D93
:1009D600037F80120D0920B316E4FBFA7D0A800816
:1009E60020B30CE4FBFA7D017F80120D0980F1C271
:1009F60001E4FBFA7D037F80120D09E4FBFA7D0A10
:100A06007F80120D0930022F20B22CE4FBFA7D0301
:100A16007F80120D09E4FBFA7D0A800820B20CE4FF
:100A2600FBFA7D017F80120D0980F1E4FBFA7D64FB
:100A36007F80120D09C20230013830033520B232F0
:100A4600E4FBFA7D037F80120D0920B216E4FBFA5F
:100A56007D0A800820B20CE4FBFA7D017F80120D2E
:100A66000980F1121C77C203E4FBFA7D647F8012D1
:100A76000D0920000302083620B139E4FBFA7D0394
:100A86007F80120D0920B12CE4FBFA7D0A7F8012CB
:100A96000D099000AFE014F0E0C3940274809480D6
:100AA60050037401F020B10CE4FBFA7D017F801243
:100AB6000D0980F120B039E4FBFA7D037F80120D29
:100AC6000920B02CE4FBFA7D0A7F80120D09900004
:100AD600AFE004F0E0D39407748094804003740878
:100AE600F020B00CE4FBFA7D017F80120D0980F145
:100AF60020B22FE4FBFA7D037F80120D0920B21687
:100B0600E4FBFA7D0A800820B20CE4FBFA7D017F43
:100B160080120D0980F1C200E4FBFA7D037F80128A
:100B26000D0930B303020BEAE4FBFA7D037F801262
:100B36000D0920B316E4FBFA7D0A800820B30CE405
:100B4600FBFA7D017F80120D0980F1D2049000BB73
:100B5600E024F0FFE434FFFE9000AFE0FD7C0012DD
:100B660019AA9000BCEFF0E4FBFA7D037F80120D1A
:100B7600099000BBE0C3942874809480505C3004D4
:100B860059A3E0C394017480948050087BFF7A14C3
:100B960079C280289000BCE0C3940274809480508F
:100BA600087BFF7A1479CA80139000BCE0C39403D3
:100BB6007480948050137BFF7A1479D2900053741A
:100BC60008F07D067F03121C139000AFE025E0FFBE
:100BD600C374799F9000BBF0C204E4FBFA7D037FE7
:100BE60080120D09E4FBFA7D0A7F80120D090208C6
:010BF60036C8
:100EDA00121C77E4FBFA7D0A7F80120D0975A0AA1D
:100EEA00300103020FD6300003020FD6300203028C
:100EFA000FD67BFF7A1479DA9000537410F0E4FD70
:100F0A007F19121C137BFF7A1479E0900053741036
:100F1A00F07D037F19121C137BFF7A1479E8900085
:100F2A00537410F07D067F19121C139000B3E0244D
:100F3A00FE602514605024026003020FC97BFF7A09
:100F4A001479ED9000537410F0E4FD7F03121C1322
:100F5A007BFF7A1479F080197BFF7A1479F090007C
:100F6A00537410F0E4FD7F03121C137BFF7A14798B
:100F7A00ED9000537410F07D037F03121C137BFF66
:100F8A007A1479F0802C7BFF7A1479F090005374EC
:100F9A0010F0E4FD7F03121C137BFF7A1479F090A2
:100FAA0000537410F07D037F03121C137BFF7A1425
:100FBA0079ED9000537410F07D067F03121C13E440
:100FCA00FBFA7D0A7F80120D09020EEA2001030254
:100FDA00112A30030302112A121C777BFF7A147933
:100FEA008D9000537408F07D017F03121C137BFF60
:100FFA007A1479959000537408F07D027F03121CCD
:10100A00137BFF7A14799F9000537408F07D037F55
:10101A0003121C137BFF7A1479F39000537408F0BF
:10102A007D047F03121C137BFF7A1479AC90005362
:10103A007408F07D067F03121C13E4FBFA7DE87F37
:10104A0080120D097BFF7A1479FD9000537408F021
:10105A007D067F03121C13121C7720010302111D47
:10106A0030030302111D7BFF7A157908900053742F
:10107A0010F0E4FD7F19121C137BFF7A157910908A
:10108A0000537410F07D037F19121C137BFF7A152D
:10109A0079189000537408F07D067F03121C139090
:1010AA0000B6E024FE602E0470B07BFF7A1479ED5E
:1010BA009000537410F0E4FD7F03121C137BFF7A37
:1010CA001479F09000537410F07D037F03121C13FF
:1010DA009000B480297BFF7A1479F0900053741041
:1010EA00F0E4FD7F03121C137BFF7A1479ED900064
:1010FA00537410F07D037F03121C139000B7E0FABB
:10110A00A3E0FB9000487408F07D067F28121812AD
:10111A00021064121C77E4FBFA7D647F80120D09C9
:10112A00200203020EDD121C7730026B7BFF7A1558
:10113A00791D9000537410F0E4FD7F03121C137B99
:10114A00FF7A15792A9000537408F07D037F031201
:10115A001C137BFF7A1579349000537408F07D04D0
:10116A007F03121C137BFF7A157941900053740890
:10117A00F07D057F03121C137BFF7A1579469000D8
:10118A00537410F07D067F03121C13E4FBFA7DE80A
:10119A007F80120D098092121C77E4FBFA7D0A7F88
:0711AA0080120D09020EDDA9
:1011B100200103021337D203121C7775A0017BFFB4
:1011C1007A1479AC9000537410F07D037F03121CE4
:1011D100137F04120BF72001030212799000B6E08D
:1011E10064016003021279200303021279121C7751
:1011F1007BFF7A1579569000537410F07D037F03BD
:10120100121C137BFF7A1479AC9000537408F07DA3
:10121100067F03121C137BFF7A1B79A5121D58E46C
:10122100FBFA7DE87F80120D09121C773003A77B42
:10123100FF7A1579619000537410F0E4FD7F031279
:101241001C137BFF7A15796A9000537410F07D03AB
:101251007F03121C139000B4E0FAA3E0FB90004856
:101261007410F07D067F03121812E4FBFA7DE87F0B
:1012710080120D09C20380B420010302131B9000E8
:10128100B6E06402600302131B20030302131B1266
:101291001C777BFF7A1579759000537410F07D03EC
:1012A1007F03121C137BFF7A1479AC9000537408EE
:1012B100F07D067F03121C137BFF7A1B79DC121D64
:1012C10058E4FBFA7DE87F80120D09121C77300388
:1012D100A77BFF7A1579619000537410F0E4FD7FCC
:1012E10003121C137BFF7A15796A9000537410F076
:1012F1007D037F03121C139000B7E0FAA3E0FB907B
:1013010000487410F07D067F03121812E4FBFA7D89
:10131100E87F80120D09C20380B4121C77E4FBFA46
:101321007D647F80120D09C2017F02120BF77F03DA
:10133100120C800211B1E4FBFA7D647F80120D0969
:031341000211B1E5
:1019FF00200103021A8D30031A9000B2E004F07038
:101A0F00069000B1E004F0E4FBFA7D647F80120DD4
:101A1F000980DD9000B6E06401702D9000B4E0FE07
:101A2F00A3E0FFD39000B2E09F9000B1E09E40187A
:101A3F00E0FFA3E09000B4CFF0A3EFF0E49000B18B
:101A4F00F0A3F07F04120C809000B6E0640270A047
:101A5F00A3E0FEA3E0FFD39000B2E09F9000B1E0BF
:101A6F009E408DE0FFA3E09000B7CFF0A3EFF0E42E
:0F1A7F009000B1F0A3F07F04120C800219FF2237
:10134400200003021473121681121C77E4FBFA7D49
:101354000A7F80120D0975A0039000AFE025E0FF1D
:10136400C374799F9000BBF0200003021459E4FB7E
:10137400FA7D017F80120D097BFF7A157980900038
:10138400537410F07D037F03121C13E4FBFA7D01F8
:101394007F80120D099000AFE0FB7A009000487442
:1013A40010F07D037F3C1218127BFF7A1579879029
:1013B40000537410F0E4FD7F10121C139000AFE092
:1013C400FF9000BBE0D39F4045E094787480948004
:1013D400503C200439E0FF7BFF7A15798990005353
:1013E4007410F0E4FD121C139000BBE0FF9000AFFA
:1013F400E0FEC3EF9E9000BBF0E0FF7BFF7A15791F
:101404008B9000537410F0E4FD121C13803A90008A
:10141400BBE0FF7BFF7A1579899000537410F0E4E8
:10142400FD121C137BFF7A15798D9000537408F01C
:101434007D067F03121C139000AFE025E0FFC37408
:10144400799F9000BBF0C204E4FBFA7D017F801217
:101454000D0902136CE4FBFA7D647F80120D0912FE
:101464001C777F02120BF77F05120C80021344E4F1
:0C147400FBFA7D647F80120D0902134416
:10001E000000000000000000002F0000000007009C
:10002E00070000147F147F1400242A7F2A12006216
:10003E0064081323003649552250000005030000C2
:10004E0000001C224100000041221C000014083E4A
:10005E0008140008083E0808000000A06000000810
:10006E000808080800006060000000201008040264
:10007E00003E5149453E0000427F40000042615122
:10008E004946002141454B31001814127F100027BC
:10009E0045454539003C4A4949300001710905037F
:1000AE0000364949493600064949291E00003636B0
:1000BE000000000056360000000814224100001413
:1000CE0014141414000041221408000201510906F0
:1000DE0000324959513E007C1211127C007F494971
:1000EE004936003E41414122007F4141221C007FA2
:1000FE0049494941007F09090901003E4149497AB0
:10010E00007F0808087F0000417F41000020404129
:10011E003F01007F08142241007F40404040007F95
:10012E00020C027F007F0408107F003E4141413ED9
:10013E00007F09090906003E4151215E007F091921
:10014E0029460046494949310001017F0101003F1E
:10015E004040403F001F2040201F003F4038403F9E
:10016E000063140814630007087008070061514902
:10017E00454300007F41410000552A552A55000095
:10018E0041417F0000040201020400404040404013
:10019E00000001020400002054545478007F4844AB
:1001AE00443800384444442000384444487F0038E2
:1001BE005454541800087E0901020018A4A4A47C0B
:1001CE00007F080404780000447D400000408084D5
:1001DE007D00007F102844000000417F4000007C1D
:1001EE0004180478007C0804047800384444443829
:1001FE0000FC242424180018242418FC007C080475
:10020E00040800485454542000043F444020003C4D
:10021E004040207C001C2040201C003C4030403CD4
:10022E00004428102844001CA0A0A07C0044645464
:10023E004C441414141414140000000000000000A8
:10024E000000000000000000000000F800000000A8
:10025E00000000333000000000100C06100C0600E9
:10026E00000000000000000040C07840C078400050
:10027E00043F04043F040400007088FC08300000B2
:10028E00001820FF211E0000F008F000E01800000A
:10029E0000211C031E211E0000F0088870000000C3
:1002AE001E2123241927211010160E000000000015
:1002BE000000000000000000000000E01804020032
:1002CE00000000071820400000020418E0000000A3
:1002DE000040201807000000404080F080404000A1
:1002EE000202010F01020200000000F000000000F7
:1002FE000101011F010101000000000000000000CB
:10030E0080B070000000000000000000000000003F
:10031E0000010101010101010000000000000000C8
:10032E000030300000000000000000008060180463
:10033E00006018060100000000E010080810E00040
:10034E00000F102020100F00001010F80000000009
:10035E000020203F20200000007008080888700050
:10036E0000302824222130000030088888483000D0
:10037E000018202020110E000000C02010F80000F0
:10038E0000070424243F240000F808888808080089
:10039E000019212020110E0000E01088881800009E
:1003AE00000F112020110E0000380808C838080070
:1003BE000000003F000000000070880808887000F0
:1003CE00001C222121221C0000E010080810E00071
:1003DE000000312222110F00000000C0C0000000FA
:1003EE00000000303000000000000080000000001F
:1003FE000000806000000000000080402010080017
:10040E0000010204081020004040404040404000DF
:10041E0004040404040404000008102040800000BA
:10042E000020100804020100007048080808F000BF
:10043E000000003036010000C030C828E810E0008F
:10044E000718272423140B000000C038E00000001A
:10045E00203C23020227382008F888888870000084
:10046E00203F202020110E00C03008080808380058
:10047E00071820202010080008F808080810E000CF
:10048E00203F202020100F0008F88888E808100070
:10049E00203F20202320180008F88888E808100044
:1004AE00203F200003000000C0300808083800007C
:1004BE0007182020221E020008F808000008F8087D
:1004CE00203F210101213F20000808F80808000004
:1004DE000020203F2020000000000808F808080037
:1004EE00C08080807F00000008F888C028180800AF
:1004FE00203F20012638200008F8080000000000E8
:10050E00203F20202020300008F8F800F8F80800DE
:10051E00203F003F003F200008F830C00008F808D8
:10052E00203F200007183F00E01008080810E000E8
:10053E000F10202020100F0008F808080808F000FF
:10054E00203F210101010000E01008080810E00022
:10055E000F18242438504F0008F8888888887000B7
:10056E00203F2000030C3020007088080808380057
:10057E000038202121221C00180808F8080818004D
:10058E000000203F2000000008F808000008F808CE
:10059E00001F202020201F000878880000C838087F
:1005AE00000007380E010000F80800F80008F800F7
:1005BE00033C0700073C0300081868808068180891
:1005CE0020302C03032C30200838C800C83808000F
:1005DE000000203F2000000010080808C83808005E
:1005EE002038262120201800000000FE0202020002
:1005FE000000007F40404000000C30C000000000B2
:10060E00000000010638C00000020202FE000000D9
:10061E00004040407F00000000000402020204007F
:10062E0000000000000000000000000000000000BC
:10063E0080808080808080800002020400000000A4
:10064E00000000000000000000008080808000009C
:10065E000019242222223F2008F80080800000008A
:10066E00003F112020110E0000000080808000004D
:10067E00000E112020201100000000808088F8005C
:10068E00000E112020103F2000008080808000008E
:10069E00001F222222221300008080F088888818F2
:1006AE000020203F202000000000808080808000FD
:1006BE00006B94949493600008F800808080000092
:1006CE00203F210000203F2000809898000000006D
:1006DE000020203F2020000000000080989800009D
:1006EE0000C08080807F000008F8000080808000BD
:1006FE00203F24022D302000000808F800000000E2
:10070E000020203F2020000080808080808080009C
:10071E00203F20003F20003F80800080808000002E
:10072E00203F210000203F200000808080800000BC
:10073E00001F202020201F008080008080000000ED
:10074E0080FFA12020110E0000000080808080001C
:10075E00000E112020A0FF8080808000808080000D
:10076E0020203F212000010000008080808080003A
:10077E000033242424241900008080E080800000AF
:10078E000000001F202000008080000000808000FC
:10079E00001F202020103F2080808000008080805D
:1007AE0000010E30080601008080008000808080ED
:1007BE000F300C030C300F00008080008080800012
:1007CE000020312E0E31200080808000008080803D
:1007DE0080818E70180601000080808080808000ED
:1007EE000021302C2221300000000000807C02020B
:1007FE0000000000003F404000000000FF0000002D
:10080E0000000000FF0000000002027C80000000DB
:10081E000040403F000000000006010102020404F7
:08082E000000000000000000C2
:101BA5001D04001B02001904001B02001D03001E7A
:101BB50001001D02001B04000000001D04001B02A3
:101BC500001904001B02001D03001E01001D020078
:101BD5001B0400000000FF1D04001B020019040087
:101BE5001B02001D03001E01001D02001B04000056
:101BF50000001D04001B02001904001B02001D0348
:0E1C0500001E01001D02001B0400000000FF75
:101B4B00604A00640000F88CF8F3F95BF9B8FA15F9
:101B5B00FA67FAB9FB04FB4BFB90FBCFFC10FC4480
:101B6B00FC79FCACFCDCFD09FD34FD5CFD82FDA6C3
:101B7B00FDC8FDE8FE06FE22FE3DFE56FE6EFE850E
:101B8B00FE9AFEAEFEC1FED3FEE4FEF4FF0343005D
:091B9B005A00000042005F000046
:101D580053890F438910758DFC758B18C28FC28EFD
:101D6800D2ABD2AFE490005FF0A3F090005AEBF052
:071D7800A3EAF0A3E9F02249
:03001B00021CB80C
:101CB800C0E0C083C082C0D075D000C00690006369
:101CC800E025E02464F582E43400F583E0FEA3E037
:101CD8004E600E90005EE0F58B90005DE0F58DB2F1
:0C1CE800A5D006D0D0D082D083D0E0324E
:101DBA0090005DE0F58BA3E0F58DD28E900061E096
:071DCA00FEA3E0FF021DA1D2
:10175D0090005AE0FBA3E0FAA3E0F9EA494B7002CE
:10176D00801C90005AE0FBA3E0FAA3E0F990005F23
:10177D00E0FEA3E0F5828E8312196BF47003021E56
:10178D000690005AE0FBA3E0FAA3E0F990005FE0B9
:10179D00FEA3E0F5828E8312196B900063F090002A
:1017AD0060E004F0700690005FE004F090005FE0F0
:1017BD00FEA3E0F5828E8312196BFF7E007C017D06
:1017CD002C121998EF7802CEC313CE13D8F9FF90CF
:1017DD000061EEF0A3EFF0900060E02402F09000C5
:1017ED005FE03400F0900063E025E02464F582E4CE
:1017FD003400F583E0FCA3E0FDEC90005DF0A3ED7B
:05180D00F0121DBA22DB
:051E0600C28EC2A522FE
:101DA100EF1FAC0670011E4C600E750E02750FEF31
:081DB100D50FFDD50EFA80E804
:011DB9002207
:091DFD00D290D291C291C2902251
:07000300D290C291D29122BC
:0B1DD100121D2F121DDCAF04121D2F8D
:051DDC00D290C290222C
:071D2800AC07121DFD7F78DE
:101D2F00C290E4FEEEC3940874809480501AAD07FD
:101D3F00ED548064807004D2918002C291EF25E04F
:081D4F00FFD290C2900E80DC6F
:011D57002269
:0E1DE100121D28121DDCE4FF121DD1020003AA
:0E1DEF00121D28121DDC7F40121DD1020003C0
:101D7F00121D90E4FDFCFFFE121D907F10E4FDFC90
:011D8F00FE55
:101D9000AB07AA06ED4C6003021DEFAF03121DE175
:011DA0002220
:081CF400900055E0FFA3E0FDA4
:101CFC00A907ED24B0FFE433FEE4FDFC121D90E9CE
:101D0C0054F0C4540F7E004410FFE4FDFC121D90EF
:0C1D1C00E9540FFF7E00E4FDFC021D9066
:101C7700E4F9E9FF7E00C39408748094805031EF43
:101C870024B0FFEE33FEE4FDFC121D7FE490004418
:101C9700F0900044E0C3948074809480500F7D01DD
:101CA7007C00E4FFFE121D90E004F080E40980C28E
:011CB700220A
:0B159500900056EDF0900055EFF0FDC7
:1015A000E4900059F0F9EB24E0F0EDD3947F7480DF
:1015B0009480400AE4900055F0A3E02402F09000EB
:1015C00058E064106003021646121CF4E4F9E9C303
:1015D000940874809480502B900059E075F010A40A
:1015E00029F582E435F0F583E5822446F582E5832A
:1015F0003402F583E493FF7E007D017C00121D9090
:101600000980CB900055E0FFA3E004FD121CFCE430
:10161000F9E9C39408748094805065900059E0758E
:10162000F010A429F582E435F0F583E582244EF527
:1016300082E5833402F583E493FF7E007D017C0024
:10164000121D900980CB121CF4E4F9E9C3940674CE
:10165000809480502B900059E075F006A4241EF56C
:1016600082E5F03400F583E58229F582E43583F5DF
:1016700083E493FF7E007D017C00121D900980CBE6
:011680002247
:101C130090004EEFF0A3EDF0A3EBF0A3EAF0A3E9FD
:011C2300F0D0
:101C2400E4900054F0900050E0FBA3E0FAA3E0F944
:101C3400900054E0F58275830012196BFB603390B9
:101C4400004EE0FFA3E0FD900053E0900058F01236
:101C5400159590004EE02408F0E0D39478748094B5
:101C6400804007E4F0A3E02402F0900054E004F084
:021C740080B33B
:011C7600224B
:0E181200900044EFF0A3EDF0A3EAF0A3EBF09A
:10182000E4FB900046E0FEA3E0FF7C037DE8121994
:10183000AAEF2430900049F0900046E0FEA3E0FFBC
:101840007C007D641219AA7C007D0A1219AAED247D
:101850003090004AF0900046E0FEA3E0FF7C007D5F
:101860000A1219AA7C007D0A1219AAED24309000F0
:101870004BF0900046E0FEA3E0FF7C007D0A1219C9
:10188000AAED243090004CF0E4A3F0EBC394037471
:10189000809480501174492BF582E43400F583E084
:1018A000B430030B80E5900044E0FFA3E0FD7449F1
:1018B0002BF9E43400FA7B01900048E0900053F0EB
:0318C000021C13F4
:10168100E4FDFC7FAEFE121D7F7F40121D8CE4FD48
:10169100FC7FB0FE121D90E4FDFC7F81FE121D90C7
:1016A100E4FDFC7FFFFE121D90E4FDFC7FA1FE1214
:1016B1001D90E4FDFC7FA6FE121D90E4FDFC7FA8B9
:1016C100FE121D90E4FDFC7F3FFE121D90E4FDFC27
:1016D1007FC8FE121D90E4FDFC7FD3FE121D90E435
:1016E100FDFCFFFE121D90E4FDFC7FD5FE121D9056
:1016F100E4FDFC7F80FE121D90E4FDFC7FD8FE120C
:101701001D90E4FDFC7F05FE121D90E4FDFC7FD9D8
:10171100FE121D90E4FDFC7FF1FE121D90E4FDFC24
:101721007FDAFE121D90E4FDFC7F12FE121D90E493
:10173100FDFC7FDBFE121D90E4FDFC7F30FE121DDF
:1017410090E4FDFC7F8DFE121D90E4FDFC7F14FEF4
:0C175100121D90E4FDFC7FAFFE021D9015
:100BF700EFD3940540037FFF2274112F2FF8E620CF
:100C0700E5F4C2AFE64430F6D2AFAE0CEEC39F5068
:100C1700210E74212EF8E6F908E618BE050274FFC6
:100C2700FDED69600909E71919F7090980F3161637
:100C370080DAEED39F400405810581EED39F4022E1
:100C470074212EF808E6F9EEB50C02A981180606FC
:100C5700E6FDED6960091919E70909F71980F31E1F
:100C670080D9EF2421F8E604F8EF2F0490000E93C3
:090C7700F608EF2F93F67F00222E
:100C8000EFD3940540037FFF22EF232411F8E630D1
:100C9000E5F4C2AFE6548CF6D2AFE50CB5070A74A2
:100CA000212FF8E6F581020DE3502E74222FF8E68D
:100CB000BF050274FFFD18E6F974212FF8FBE6FC6E
:100CC000E96C6008A805E7F61D1980F4A803A605DD
:100CD0001FE50CB507E37F002274222FF8E6FD180C
:100CE00086010F74212FF8A601088604E50CB507CC
:100CF00002AC81ED6C60080D09A805E6F780F4E50B
:090D00000CB507DE89817F002299
:100D09008FF0E4FFFEE50C232410F8C2A930F70D9B
:100D19007F08E6600B2DF660325030800730F1060F
:100D2900EDF660277E020830F010C2AFE610E72525
:100D39000E30E20CD2AF7F048014C2AFE610E71583
:100D490054EC4EF6D2AFD2A9020DE37F0808EF4466
:0F0D590083F4C2AF56C6D2AFD2A954804FFF2247
:03000B00020D6D76
:100D6800C2AF80FE32120D6C85D00B75D008AAE098
:100D7800C28CE58A24F7F58AE58C34D8F58CD28CB8
:100D8800EC2422F8E6BC050274FFC39581B4140074
:100D980040CE7906781016E608700BC2AFE630E14F
:100DA800034418F6D2AF08D9EDEA8BD030050122FA
:100DB800D50DFCC0E0C0D0C0F0C083C082C000C068
:100DC80001C002C003C004C005C006C007E50C236B
:100DD8002411F87440C2AF46F6D2AFD205E50CFF35
:100DE800232411F80F0808BF06047F007811E630A5
:100DF800E4F200E50CC39F5020050C7421250CF883
:100E0800E6FDA68108E6AE0CBE050274FFCDF8E843
:100E18006D60E008E6C0E080F6E50CD39F4027E56A
:100E28000C2422F8E6AE0CBE050274FFFD18E6CDD0
:100E3800F8E5816D6006D0E0F61880F5E50C242110
:100E4800C8F6150C80D3750D05E50C232411F87F21
:100E580004C2AFE610E61E30E00310E20C7F00305B
:050E6800E10730E30486
:100E6D007F0854F4547CC6D2AF54804207C2052289
:100E7D00F6D2AFD007D006D005D004D003D002D023
:100E8D0001D000D082D083D0F0D0D0D0E0C20522E6
:100E9D007821A68174056006FF0876FFDFFB7F06CB
:100EAD00E47810F608F608DFFA7811763090000E27
:100EBD00740193C0E0E493C0E0750D05438901759D
:0D0ECD008AF0758CD8D28CD2AFD2A9220544
:03000000021A8E53
:0C1A8E00787FE4F6D8FD758126021AD599
:10196B00BB010CE58229F582E5833AF583E0225031
:10197B0006E92582F8E622BBFE06E92582F8E2227B
:0D198B00E58229F582E5833AF583E4932295
:10199800EF8DF0A4A8F0CF8CF0A428CE8DF0A42E63
:0219A800FE221D
:1019AA00BC000BBE0029EF8DF084FFADF022E4CC21
:1019BA00F875F008EF2FFFEE33FEEC33FCEE9DECEA
:1019CA00984005FCEE9DFE0FD5F0E9E4CEFD22ED30
:1019DA00F8F5F0EE8420D21CFEADF075F008EF2F7A
:1019EA00FFED33FD4007985006D5F0F222C398FD6B
:0519FA000FD5F0EA2208
:101A9A00020E9DE493A3F8E493A34003F68001F2B7
:101AAA0008DFF48029E493A3F85407240CC8C3334D
:101ABA00C4540F4420C8834004F456800146F6DF1C
:101ACA00E4800B0102040810204080901B1AE47E77
:101ADA00019360BCA3FF543F30E509541FFEE49311
:101AEA00A360010ECF54C025E060A840B8E493A3D8
:101AFA00FAE493A3F8E493A3C8C582C8CAC583CA03
:101B0A00F0A3C8C582C8CAC583CADFE9DEE780BEBA
:011BA4000040
:00000001FF
