:0215E30012DB19
:0215E5001332BF
:0215E70014EA04
:0215E90015A942
:0215EB0015B831
:1008260053746172740053657474696E6700536320
:100836006F7265000000000000000000000000006C
:1008460000000000000000000000000000000000A2
:100856000000000000000000000000000000000092
:1008660000000000008080C0C0C0E0E0E0F0F0F0D2
:10087600F0F0F0F0F0F0F0F0F0F0E0E0E0C0C0C032
:1008860080000000000000000000000000000000E2
:100896000000000000000000000000000000000052
:1008A6000000000000000000000000000000000042
:1008B6000000000000000000000000000000000032
:1008C6000000000000000000000000000000000022
:1008D6000000000000000000000000000080E0F0C2
:1008E600F8FCFEFEFFFFFFFFFF7F7F3F3F1F1F1F3E
:1008F6001F0F0F0F0F0F0F1F1F1F3F3F3F7F7FFF62
:10090600FFFFFFFEFCF8F0E0C080000000000000E2
:1009160000000000000000000000000000000000D1
:1009260000000000000000000000000000000000C1
:1009360000000000000000000000000000000000B1
:1009460000000000000000000000000000000000A1
:1009560000000000000000000080F0FCFFFFFFFF29
:10096600FFFFFF3F0F07030100000000000000002B
:100976008080808080808080000000000000000071
:100986000181C3E7FFFFFFFFFFFFFFFCF0800000D0
:100996000000000000000000000000000000000051
:1009A6000000000000000000000000000000000041
:1009B6000000000000000000000000000000000031
:1009C6000000000000000000000000000000000021
:1009D6000000000000000000E0FFFFFFFFFFFFFF38
:1009E600FF07000000000000000000F0FCFEFFFF13
:1009F600FFFFFFFFFFFFFFFFFFFF3E3C78787C7E97
:100A06007F7F7F7F7F7FFFFFFFFFFFFFFFFF0000EE
:100A160000000000000000000000000000000000D0
:100A260000000000000000000000000000000000C0
:100A360000000000000000000000000000000000B0
:100A460000000000000000000000000000000000A0
:100A56000000000000000000037FFFFFFFFFFFFF14
:100A6600FFF0000000000000000000071F7F7FFF6E
:100A7600FFFFFFFFFFFFFFFFFFFF0000000000007A
:100A8600000000000000FFFFFFFFFFFFFF7F0000E8
:100A96000000000000000000000000000000000050
:100AA6000000000000000000000000000000000040
:100AB6000000000000000000000000000000000030
:100AC6000000000000000000000000000000000020
:100AD60000000000000000000000030F3F7FFFFF42
:100AE600FFFFFFFCF8E0C0800000000000000000EF
:100AF60000010101010101010000000000000000E9
:100B06000000000000F0FFFFFF7F1F0F0300000042
:100B160000000000000000000000000000000000CF
:100B260000000000000000000000000000000000BF
:100B360000000000000000000000000000000000AF
:100B4600000000000000000000000000000000009F
:100B56000000000000000000000000000000C1E3EB
:100B6600FFFFFFFFFFFFFFFFFFFFFEFEFCFCFCF8A1
:100B7600F8F8F8F8F8F8F8F8F8F8FCFCFCFEFEFCD3
:100B8600FCFCFCF8F8FFFFFFFFFFFFFFFFFFFF1F66
:100B9600000000000000000000000000000000004F
:100BA600000000000000000000000000000000003F
:100BB600000000000000000000000000000000002F
:100BC600000000000000000000000000000000001F
:100BD6000000000000000000000000000003030306
:100BE60003010101010000000000000000000000F8
:100BF60000000001010103030303070707070F0FA6
:100C06000F0F0F0F0F0F0F0F0F0F0F070703010027
:100C160000000000000000000000000000000000CE
:100C260000000000000000000000000000000000BE
:040C360000000000BA
:06000300011700011800C6
:1012DB0075A0FF120F1D7524087525FF752608755F
:1012EB00273A7B80E4FDFF121272E4FBFA7D327F1A
:1012FB0080120D4C75A07FE4FBFA7D647F80120D8C
:10130B004C7F01120C3A7F02120C3A7F03120C3AFB
:10131B007F04120C3A75A03FE4FBFA7DF47F801238
:07132B000D4CE4FF020CC3AE
:1014EA00C200C201C202C203E517700C200009FB48
:0E14FA00FA7D0A7F80120D4CE517640180EA2E
:1013320075A0AA12142FE4F5A07BFF7A087926750E
:101342003110FD7F191213837BFF7A08792C7531D6
:10135200107D037F191213837BFF7A08793475316C
:10136200107D067F19121383E4FBFA7D887F8012B9
:101372000D4CE4FF120CC3EF640170B775A0AA8094
:01138200B2B8
:0F15A900E4FBFA7D1E7F80120D4C75A0AB80F124
:0F15B800E4FBFA7D147F80120D4C75A0AC80F11E
:101540007F01120C3A7F02120C3A7F03120C3A7F91
:0915500004120C3AE4FF020CC382
:10150800D3EF9400EE940040147D657C18ED1D70B7
:0D151800011CED4C70F7EF1F70E61E80E324
:0115250022A3
:10152600EF1FAA0670011E4A600FE4FDEDC3947B0F
:091536007480948050EA0D80F3EA
:01153F002289
:0915ED00D290D291C291C2902269
:0715F600D290C291D29122B4
:0B1599001214681215A4AF04121468AD
:0515A400D290C290226C
:07146100AC071215ED7F78C6
:10146800C290E4FEEEC3940874809480501BAD07CC
:10147800530580ED64807004D2918002C291EF25FB
:09148800E0FFD290C2900E80DB5F
:011491002238
:0E15C7001214611215A4E4FF1215990215F614
:0E15D5001214611215A47F401215990215F62A
:10149200EF24B0FFEE33FEE4FDFC1214ADE4FDFCDC
:0B14A200FFFE1214AD7F10E4FDFCFE05
:1014AD00AB07AA06ED4C60030215D5AF031215C7A5
:0114BD00220C
:0213C7008F197C
:1013C900E4F9E9FF7E00C3940874809480502312E5
:1013D9001492E4F51AC3E51A948074809480500F2E
:1013E900AF197E007D017C001214AD051A80E60953
:0213F90080D0A2
:0113FB0022CF
:1014BE00A907ED24B0FFE433FEE4FDFC1214ADE900
:1014CE0054F0C4540F7E004410FFE4FDFC1214AD22
:0C14DE00E9540FFF7E00E4FDFC0214AD99
:101571007F8D1214A9E4FDFC7F14FE1214ADE4FD6D
:07158100FC7FAFFE0214AD78
:10158800E4FDFC7F8D1214A3E4FDFC7FAEFE021483
:01159800ADA5
:10142F00E4F9E9FF7E00C39408748094805022127F
:10143F001492E4F52CC3E52C948074809480500EA4
:10144F007D017C00E4FFFE1214AD052C80E70980BE
:01145F00D1BB
:011460002269
:1013FC00E4F9E9FF7E00C3940874809480502312B2
:10140C001492E4F51BC3E51B948074809480500FF8
:10141C007D017C007F017E001214AD051B80E60966
:02142C0080D06E
:01142E00229B
:040FFD008F338D346D
:10100100E4F537F9EB24E0F537D3EF947F7480945E
:10101100804007E4F53305340534E5366410707A11
:10102100AD34AF331214BEE4F9E9C394087480946B
:1010310080502975F010E537A429F582E435F0F5E3
:1010410083E5822436F582E5833402F583E493FF58
:101051007E007D017C001214AD0980CDE53404FDD4
:10106100AF331214BEE4F9E9C3940874809480503C
:101071006575F010E537A429F582E435F0F583E5CF
:1010810082243EF582E5833402F583E493FF7E00FA
:101091007D017C001214AD0980CDAD34AF33121443
:1010A100BEE4F9E9C3940674809480502975F00672
:1010B100E537A4240EF582E5F03400F583E58229B5
:1010C100F582E43583F583E493FF7E007D017C00A6
:0610D1001214AD0980CDF0
:0110D70022F6
:041559008F1CA90535
:10155D007F017E00AD0119ED6009AD1C7C001211FB
:03156D000580F105
:011570002258
:0811F8008F0E8D0F8A108B1180
:10120000E4F516F514E514C395125065C3E512957F
:101210001414FD7F0A121559AC10AD11CFCDCFCEED
:10122000CCCE1211177C007D0A1211178D15E51610
:101230007023E51214FFE514C39F5019E5157012D1
:10124000E513C3138514F0A4250EFF8513367B2008
:101250008016751601E513C3138514F0A4250EFF3F
:10126000E5152430FB851336AD0F120FFD051480F4
:0112700094E9
:01127100225A
:0A1383008F2C8D2D8B2E8A2F8930C0
:10138D00E4F532AB2EAA2FA9308532827583001277
:10139D0010D8FB6024853136AD2DAF2C120FFD74A6
:1013AD0008252CF52CD39478748094804007E4F5AF
:0913BD002C052D052D053280CA16
:0113C6002204
:041272008F218B231A
:10127600E4F528F529E5245407700BE52413131328
:10128600541FF52B800AE524131313541F04F52B62
:101296008D2BE52BC39524503BAD2BAF211214BEED
:1012A60085212AE52AC395235026AB25AA26A927F8
:1012B6000529E529AE287002052814F5828E8312C9
:1012C60010D8FF7E007D017C001214AD052A80D364
:0412D600052B80BEA6
:0112DA0022F1
:100F1D00E4FDFC7FAEFE12149CE4FDFC7F40FE124E
:100F2D0014ADE4FDFC7FB0FE1214ADE4FDFC7F8139
:100F3D00FE1214ADE4FDFC7FFFFE1214ADE4FDFCCA
:100F4D007FA1FE1214ADE4FDFC7FA6FE1214ADE4EC
:100F5D00FDFC7FA8FE1214ADE4FDFC7F3FFE1214D4
:100F6D00ADE4FDFC7FC8FE1214ADE4FDFC7FD3FEA5
:100F7D001214ADE4FDFCFFFE1214ADE4FDFC7FD5B3
:100F8D00FE1214ADE4FDFC7F80FE1214ADE4FDFCF9
:100F9D007FD8FE1214ADE4FDFC7F05FE1214ADE406
:100FAD00FDFC7FD9FE1214ADE4FDFC7FF1FE1214A1
:100FBD00ADE4FDFC7FDAFE1214ADE4FDFC7F12FE04
:100FCD001214ADE4FDFC7FDBFE1214ADE4FDFC7FDD
:100FDD0030FE1214ADE4FDFC7F8DFE1214ADE4FD68
:100FED00FC7F14FE1214ADE4FDFC7FAFFE0214ADC8
:10000E000000000000000000002F000000000700AC
:10001E00070000147F147F1400242A7F2A12006226
:10002E0064081323003649552250000005030000D2
:10003E0000001C224100000041221C000014083E5A
:10004E0008140008083E0808000000A06000000820
:10005E000808080800006060000000201008040274
:10006E00003E5149453E0000427F40000042615132
:10007E004946002141454B31001814127F100027CC
:10008E0045454539003C4A4949300001710905038F
:10009E0000364949493600064949291E00003636C0
:1000AE000000000056360000000814224100001423
:1000BE001414141400004122140800020151090600
:1000CE0000324959513E007C1211127C007F494981
:1000DE004936003E41414122007F4141221C007FB2
:1000EE0049494941007F09090901003E4149497AC0
:1000FE00007F0808087F0000417F4100002040413A
:10010E003F01007F08142241007F40404040007FA5
:10011E00020C027F007F0408107F003E4141413EE9
:10012E00007F09090906003E4151215E007F091931
:10013E0029460046494949310001017F0101003F2E
:10014E004040403F001F2040201F003F4038403FAE
:10015E000063140814630007087008070061514912
:10016E00454300007F41410000552A552A550000A5
:10017E0041417F0000040201020400404040404023
:10018E00000001020400002054545478007F4844BB
:10019E00443800384444442000384444487F0038F2
:1001AE005454541800087E0901020018A4A4A47C1B
:1001BE00007F080404780000447D400000408084E5
:1001CE007D00007F102844000000417F4000007C2D
:1001DE0004180478007C0804047800384444443839
:1001EE0000FC242424180018242418FC007C080485
:1001FE00040800485454542000043F444020003C5E
:10020E004040207C001C2040201C003C4030403CE4
:10021E00004428102844001CA0A0A07C0044645474
:10022E004C441414141414140000000000000000B8
:10023E000000000000000000000000F800000000B8
:10024E00000000333000000000100C06100C0600F9
:10025E00000000000000000040C07840C078400060
:10026E00043F04043F040400007088FC08300000C2
:10027E00001820FF211E0000F008F000E01800001A
:10028E0000211C031E211E0000F0088870000000D3
:10029E001E2123241927211010160E000000000025
:1002AE000000000000000000000000E01804020042
:1002BE00000000071820400000020418E0000000B3
:1002CE000040201807000000404080F080404000B1
:1002DE000202010F01020200000000F00000000007
:1002EE000101011F010101000000000000000000DB
:1002FE0080B0700000000000000000000000000050
:10030E0000010101010101010000000000000000D8
:10031E000030300000000000000000008060180473
:10032E00006018060100000000E010080810E00050
:10033E00000F102020100F00001010F80000000019
:10034E000020203F20200000007008080888700060
:10035E0000302824222130000030088888483000E0
:10036E000018202020110E000000C02010F8000000
:10037E0000070424243F240000F808888808080099
:10038E000019212020110E0000E0108888180000AE
:10039E00000F112020110E0000380808C838080080
:1003AE000000003F00000000007088080888700000
:1003BE00001C222121221C0000E010080810E00081
:1003CE000000312222110F00000000C0C00000000A
:1003DE00000000303000000000000080000000002F
:1003EE000000806000000000000080402010080027
:1003FE0000010204081020004040404040404000F0
:10040E0004040404040404000008102040800000CA
:10041E000020100804020100007048080808F000CF
:10042E000000003036010000C030C828E810E0009F
:10043E000718272423140B000000C038E00000002A
:10044E00203C23020227382008F888888870000094
:10045E00203F202020110E00C03008080808380068
:10046E00071820202010080008F808080810E000DF
:10047E00203F202020100F0008F88888E808100080
:10048E00203F20202320180008F88888E808100054
:10049E00203F200003000000C0300808083800008C
:1004AE0007182020221E020008F808000008F8088D
:1004BE00203F210101213F20000808F80808000014
:1004CE000020203F2020000000000808F808080047
:1004DE00C08080807F00000008F888C028180800BF
:1004EE00203F20012638200008F8080000000000F8
:1004FE00203F20202020300008F8F800F8F80800EF
:10050E00203F003F003F200008F830C00008F808E8
:10051E00203F200007183F00E01008080810E000F8
:10052E000F10202020100F0008F808080808F0000F
:10053E00203F210101010000E01008080810E00032
:10054E000F18242438504F0008F8888888887000C7
:10055E00203F2000030C3020007088080808380067
:10056E000038202121221C00180808F8080818005D
:10057E000000203F2000000008F808000008F808DE
:10058E00001F202020201F000878880000C838088F
:10059E00000007380E010000F80800F80008F80007
:1005AE00033C0700073C03000818688080681808A1
:1005BE0020302C03032C30200838C800C83808001F
:1005CE000000203F2000000010080808C83808006E
:1005DE002038262120201800000000FE0202020012
:1005EE000000007F40404000000C30C000000000C2
:1005FE00000000010638C00000020202FE000000EA
:10060E00004040407F00000000000402020204008F
:10061E0000000000000000000000000000000000CC
:10062E0080808080808080800002020400000000B4
:10063E0000000000000000000000808080800000AC
:10064E000019242222223F2008F80080800000009A
:10065E00003F112020110E0000000080808000005D
:10066E00000E112020201100000000808088F8006C
:10067E00000E112020103F2000008080808000009E
:10068E00001F222222221300008080F08888881802
:10069E000020203F2020000000008080808080000D
:1006AE00006B94949493600008F8008080800000A2
:1006BE00203F210000203F2000809898000000007D
:1006CE000020203F202000000000008098980000AD
:1006DE0000C08080807F000008F8000080808000CD
:1006EE00203F24022D302000000808F800000000F2
:1006FE000020203F202000008080808080808000AD
:10070E00203F20003F20003F80800080808000003E
:10071E00203F210000203F200000808080800000CC
:10072E00001F202020201F008080008080000000FD
:10073E0080FFA12020110E0000000080808080002C
:10074E00000E112020A0FF8080808000808080001D
:10075E0020203F212000010000008080808080004A
:10076E000033242424241900008080E080800000BF
:10077E000000001F2020000080800000008080000C
:10078E00001F202020103F2080808000008080806D
:10079E0000010E30080601008080008000808080FD
:1007AE000F300C030C300F00008080008080800022
:1007BE000020312E0E31200080808000008080804D
:1007CE0080818E70180601000080808080808000FD
:1007DE000021302C2221300000000000807C02021B
:1007EE0000000000003F404000000000FF0000003D
:1007FE0000000000FF0000000002027C80000000EC
:10080E000040403F00000000000601010202040407
:08081E000000000000000000D2
:100C3A00EFD3940440037FFF2274392F2FF8E62064
:100C4A00E5F4C2AFE64430F6D2AFAE0CEEC39F5025
:100C5A00210E74422EF8E6F908E618BE040274FF63
:100C6A00FDED69600909E71919F7090980F31616F4
:100C7A0080DAEED39F400405810581EED39F40229E
:100C8A0074422EF808E6F9EEB50C02A98118060698
:100C9A00E6FDED6960091919E70909F71980F31EDC
:100CAA0080D9EF2442F8E604F8EF2F049015E39375
:090CBA00F608EF2F93F67F0022EB
:100CC300EFD3940440037FFF22EF232439F8E63067
:100CD300E5F4C2AFE6548CF6D2AFE50CB5070A745F
:100CE300422FF8E6F581020E26502E74432FF8E6C4
:100CF300BF040274FFFD18E6F974422FF8FBE6FC0B
:100D0300E96C6008A805E7F61D1980F4A803A60599
:100D13001FE50CB507E37F002274432FF8E6FD18A7
:100D230086010F74422FF8A601088604E50CB50767
:100D330002AC81ED6C60080D09A805E6F780F4E5C7
:090D43000CB507DE89817F002256
:100D4C008FF0E4FFFEE50C232438F8C2A930F70D30
:100D5C007F08E6600B2DF660325030800730F106CC
:100D6C00EDF660277E020830F010C2AFE610E725E2
:100D7C000E30E20CD2AF7F048014C2AFE610E71540
:100D8C0054EC4EF6D2AFD2A9020E267F0808EF44DF
:0F0D9C0083F4C2AF56C6D2AFD2A954804FFF2204
:03000B00020DB033
:100DAB00C2AF80FE32120DAF85D00B75D008AAE012
:100DBB00C28CE58A24F7F58AE58C34D8F58CD28C75
:100DCB00EC2443F8E6BC040274FFC39581B4140011
:100DDB0040CE7905783816E608700BC2AFE630E1E5
:100DEB00034418F6D2AF08D9EDEA8BD030040122B8
:100DFB00D50DFCC0E0C0D0C0F0C083C082C000C025
:100E0B0001C002C003C004C005C006C007E50C2327
:100E1B002439F87440C2AF46F6D2AFD204E50CFFCA
:100E2B00232439F80F0808BF05047F007839E63012
:100E3B00E4F200E50CC39F5020050C7442250CF81E
:100E4B00E6FDA68108E6AE0CBE040274FFCDF8E801
:100E5B006D60E008E6C0E080F6E50CD39F4027E527
:100E6B000C2443F8E6AE0CBE040274FFFD18E6CD6D
:100E7B00F8E5816D6006D0E0F61880F5E50C2442AC
:100E8B00C8F6150C80D3750D05E50C232439F87FB6
:100E9B0004C2AFE610E61E30E00310E20C7F003018
:050EAB00E10730E30443
:100EB0007F0854F4547CC6D2AF54804207C2042247
:100EC000F6D2AFD007D006D005D004D003D002D0E0
:100ED00001D000D082D083D0F0D0D0D0E0C20422A4
:100EE0007842A68174046006FF0876FFDFFB7F0569
:100EF000E47838F608F608DFFA783976309015E3AA
:100F0000740193C0E0E493C0E0750D054389017559
:0D0F10008AF0758CD8D28CD2AFD2A9220401
:0300000002116C7E
:0C116C00787FE4F6D8FD7581460211B3CF
:1010D800BB010CE58229F582E5833AF583E02250CD
:1010E80006E92582F8E622BBFE06E92582F8E22217
:0D10F800E58229F582E5833AF583E4932231
:10110500EF8DF0A4A8F0CF8CF0A428CE8DF0A42EFE
:02111500FE22B8
:10111700BC000BBE0029EF8DF084FFADF022E4CCBC
:10112700F875F008EF2FFFEE33FEEC33FCEE9DEC85
:10113700984005FCEE9DFE0FD5F0E9E4CEFD22EDCB
:10114700F8F5F0EE8420D21CFEADF075F008EF2F15
:10115700FFED33FD4007985006D5F0F222C398FD06
:051167000FD5F0EA22A3
:10117800020EE0E493A3F8E493A34003F68001F29F
:1011880008DFF48029E493A3F85407240CC8C33378
:10119800C4540F4420C8834004F456800146F6DF47
:1011A800E4800B0102040810204080900003E47ED4
:1011B800019360BCA3FF543F30E509541FFEE4933C
:1011C800A360010ECF54C025E060A840B8E493A303
:1011D800FAE493A3F8E493A3C8C582C8CAC583CA2E
:1011E800F0A3C8C582C8CAC583CADFE9DEE780BEE6
:0100090000F6
:00000001FF
