:021B4C00191A64
:021B4E000F7E08
:021B500015215D
:021B5200185722
:021B540017F781
:021B560011BEBE
:021B58001A93DE
:1008260053746172740053657474696E6700536320
:100836006F7265003E3E0020200067616D6573742F
:10084600617465206E6F7700747261636B31203D51
:100856002031303030303000747261636B32203DAD
:10086600203130303030300073706565643A0024D2
:10087600005065726665637400476F6F64202020C0
:10088600004261642020202000200051004D697341
:10089600732020200000000000000000000000007F
:1008A6000000000000000000000000000000000042
:1008B6000000000000000000000000000000000032
:1008C6000000000000008080C0C0C0E0E0E0F0F062
:1008D600F0F0F0F0F0F0F0F0F0F0F0E0E0E0C0C0A2
:1008E600C0800000000000000000000000000000C2
:1008F60000000000000000000000000000000000F2
:1009060000000000000000000000000000000000E1
:1009160000000000000000000000000000000000D1
:1009260000000000000000000000000000000000C1
:10093600000000000000000000000000000080E051
:10094600F0F8FCFEFEFFFFFFFFFF7F7F3F3F1F1F0C
:100956001F1F0F0F0F0F0F0F1F1F1F3F3F3F7F7FE1
:10096600FFFFFFFFFEFCF8F0E0C080000000000083
:100976000000000000000000000000000000000071
:100986000000000000000000000000000000000061
:100996000000000000000000000000000000000051
:1009A6000000000000000000000000000000000041
:1009B6000000000000000000000080F0FCFFFFFFC8
:1009C600FFFFFFFF3F0F07030100000000000000CC
:1009D6000080808080808080800000000000000011
:1009E600000181C3E7FFFFFFFFFFFFFFFCF0800070
:1009F60000000000000000000000000000000000F1
:100A060000000000000000000000000000000000E0
:100A160000000000000000000000000000000000D0
:100A260000000000000000000000000000000000C0
:100A3600000000000000000000E0FFFFFFFFFFFFD6
:100A4600FFFF07000000000000000000F0FCFEFFB2
:100A5600FFFFFFFFFFFFFFFFFFFFFF3E3C78787CB5
:100A66007E7F7F7F7F7F7FFFFFFFFFFFFFFFFF0010
:100A76000000000000000000000000000000000070
:100A86000000000000000000000000000000000060
:100A96000000000000000000000000000000000050
:100AA6000000000000000000000000000000000040
:100AB600000000000000000000037FFFFFFFFFFFB3
:100AC600FFFFF0000000000000000000071F7F7F0E
:100AD600FFFFFFFFFFFFFFFFFFFFFF00000000001B
:100AE60000000000000000FFFFFFFFFFFFFF7F0088
:100AF60000000000000000000000000000000000F0
:100B060000000000000000000000000000000000DF
:100B160000000000000000000000000000000000CF
:100B260000000000000000000000000000000000BF
:100B36000000000000000000000000030F3F7FFFE0
:100B4600FFFFFFFFFCF8E0C080000000000000008F
:100B56000000010101010101010000000000000088
:100B6600000000000000F0FFFFFF7F1F0F030000E2
:100B7600000000000000000000000000000000006F
:100B8600000000000000000000000000000000005F
:100B9600000000000000000000000000000000004F
:100BA600000000000000000000000000000000003F
:100BB600000000000000000000000000000000C16E
:100BC600E3FFFFFFFFFFFFFFFFFFFFFEFEFCFCFC56
:100BD600F8F8F8F8F8F8F8F8F8F8F8FCFCFCFEFE77
:100BE600FCFCFCFCF8F8FFFFFFFFFFFFFFFFFFFF29
:100BF6001F000000000000000000000000000000D0
:100C060000000000000000000000000000000000DE
:100C160000000000000000000000000000000000CE
:100C260000000000000000000000000000000000BE
:100C360000000000000000000000000000000303A8
:100C46000303010101010000000000000000000094
:100C56000000000001010103030303070707070F54
:100C66000F0F0F0F0F0F0F0F0F0F0F0F07070301B8
:100C7600000000000000000000000000000000006E
:100C8600000000000000000000000000000000005E
:050C9600000000000059
:101AC800C101C100C102011A01011D77011804C139
:071AD80003011E00011701CC
:10191A0075A0FF1213667524087525FF75260875CC
:10192A00279B7B80E4FDFF12178EE4FBFA7D327F52
:10193A0080120DAD7F01120C9B7F02120C9B7F0659
:08194A00120C9BE4FF020D24C6
:100F7E0030010302106630000302106630020302D5
:100F8E00106620B137E4FBFA7D037F80120DAD2091
:100F9E00B12AE4FBFA7D0A7F80120DAD151AAF1A45
:100FAE00C3EF9401748094805003751A0320B10C22
:100FBE00E4FBFA7D017F80120DAD80F120B037E4A5
:100FCE00FBFA7D037F80120DAD20B02AE4FBFA7D83
:100FDE000A7F80120DAD051AAF1AD3EF94037480F9
:100FEE0094804003751A0120B00CE4FBFA7D017F5A
:100FFE0080120DAD80F120B255E4FBFA7D037F80A7
:10100E00120DAD20B248E4FBFA7D0A7F80120DADC1
:10101E00E51A24FE601214601A24027022D2017F97
:10102E0002120D247F038014D2007F02120D247F42
:10103E00058009D2027F02120D247F04120C9B2020
:10104E00B20CE4FBFA7D017F80120DAD80F1E4FB62
:10105E00FA7D0A7F80120DAD30013220B22FE4FBF3
:10106E00FA7D037F80120DAD20B216E4FBFA7D0AE5
:10107E00800820B20CE4FBFA7D017F80120DAD805A
:10108E00F1C201E4FBFA7D037F80120DAD20000357
:10109E0002118320B137E4FBFA7D037F80120DAD80
:1010AE0020B12AE4FBFA7D0A7F80120DAD1518AF30
:1010BE0018C3EF940274809480500375180120B108
:1010CE000CE4FBFA7D017F80120DAD80F120B0376C
:1010DE00E4FBFA7D037F80120DAD20B02AE4FBFA0B
:1010EE007D0A7F80120DAD0518AF18D3EF940774EB
:1010FE00809480400375180820B00CE4FBFA7D0143
:10110E007F80120DAD80F120B22FE4FBFA7D037FBC
:10111E0080120DAD20B216E4FBFA7D0A800820B2D3
:10112E000CE4FBFA7D017F80120DAD80F1C200E46C
:10113E00FBFA7D037F80120DAD20B32FE4FBFA7D09
:10114E00037F80120DAD20B316E4FBFA7D0A8008F2
:10115E0020B30CE4FBFA7D017F80120DAD80F1D23D
:10116E0003E4FBFA7D037F80120DADE4FBFA7D0AEA
:10117E007F80120DAD200203020F7E30B203020FEC
:10118E007EE4FBFA7D037F80120DADE4FBFA7D0A4F
:10119E00800820B20CE4FBFA7D017F80120DAD8039
:1011AE00F1C202E4FBFA7D037F80120DAD020F7EC9
:101521001219BAE4FBFA7D0A7F80120DAD75A0AAEB
:101531002001F02002ED2000EA7BFF7A0879267570
:101541005510E4FD7F1912189C7BFF7A08792C75E0
:1015510055107D037F1912189C7BFF7A0879347529
:1015610055107D067F1912189CE51A24FE601F1480
:101571006044240270707BFF7A08793A755510E453
:10158100FD7F0312189C7BFF7A08793D80167BFF53
:101591007A08793D755510E4FD7F0312189C7BFF95
:1015A1007A08793A7555107D037F0312189C7BFFE9
:1015B1007A08793D80267BFF7A08793D755510E4DC
:1015C100FD7F0312189C7BFF7A08793D7555107DCC
:1015D100037F0312189C7BFF7A08793A7555107DB9
:1015E100067F0312189CE4FBFA7D0A7F80120DAD81
:0315F100021531AF
:101857003001361219BA75A0013001127BFF7A08E0
:1018670079407555107D037F0312189C80EB121980
:10187700BAE4FBFA7D647F80120DADC2017F0212CC
:101887000C9B7F03120D2480C7E4FBFA7D647F80E5
:05189700120DAD80BB45
:1017F7003002511213661219BA75A00230022C7BFF
:10180700FF7A08794E7555107D037F0312189C7B6C
:10181700FF7A08795E7555107D067F0312189CE4E0
:10182700FBFA7D147F80120DAD80D1E4FBFA7D6455
:101837007F80120DAD1219BA7F02120C9B7F041222
:101847000D2480ACE4FBFA7D647F80120DAD80A08F
:1011BE002000030213591213661219BAE4FBFA7DCA
:1011CE000A7F80120DAD75A003E51825E0FFC374EC
:1011DE00799FF51D20000302133F851819E4FBFAD1
:1011EE007D017F80120DADE51975F00A84E5F024BE
:1011FE0030F51BE4F51CFBFA7D017F80120DAD7BF3
:10120E00FF7A08796E7555107D037F0312189CE4E2
:10121E00FBFA7D017F80120DAD7B007A00791B7584
:10122E0055107D037F3C12189C7BFF7A08797575EB
:10123E005510E4FD7F1012189CAF1DEF24F0FFE453
:10124E0034FFFEAD187C001216338F1EAF1DC3EF98
:10125E00941F748094805064300361C3E51E940122
:10126E007480948050087BFF7A0879778024C3E5D8
:10127E001E94027480948050087BFF7A08797F80D8
:10128E0011C3E51E94037480948050107BFF7A087E
:10129E0079877555107D067F0312189C7BFF7A089F
:1012AE00798F755510E4FDAF1D12189CE51825E0D9
:1012BE00FFC374799FF51DC2030211E2E51DD3959C
:1012CE00184034AF1DEF9478748094805029200319
:1012DE00267BFF7A08798F755510E4FDAF1D121825
:1012EE009CC3E51D9518F51D7BFF7A087991755500
:1012FE0010E4FDAF1D802A7BFF7A08798F7555109B
:10130E00E4FDAF1D12189CE51825E0FFC374799F0C
:10131E00F51DC2037BFF7A0879937555107D067F04
:10132E000312189CE4FBFA7D017F80120DAD0211B1
:10133E00E2E4FBFA7D647F80120DAD1219BA7F02D2
:10134E00120C9B7F05120D240211BEE4FBFA7D6484
:08135E007F80120DAD0211BEEB
:101A930030010CE4FBFA7D647F80120DAD80F1E42C
:0B1AA300FBFA7D647F80120DAD80E532
:101A7500D3EF9400EE940040147D657C18ED1D7045
:0D1A8500011CED4C70F7EF1F70E61E80E3B2
:011A92002231
:101AAE00EF1FAA0670011E4A600FE4FDEDC3947B82
:091ABE007480948050EA0D80F35D
:011AC70022FC
:091B5A00D290D291C291C29022F6
:07000300D290C291D29122BC
:0B1B20001219F3121B2BAF041219F373
:051B2B00D290C29022DF
:0719EC00AC07121B5A7F78C3
:1019F300C290E4FEEEC3940874809480501BAD073C
:101A0300530580ED64807004D2918002C291EF256A
:091A1300E0FFD290C2900E80DBCE
:011A1C0022A7
:0E1B30001219EC121B2BE4FF121B2002000303
:0E1B3E001219EC121B2B7F40121B2002000319
:101A1D00EF24B0FFEE33FEE4FDFC121A38E4FDFCBA
:0B1A2D00FFFE121A387F10E4FDFCFEE3
:101A3800AB07AA06ED4C6003021B3EAF03121B3036
:011A4800227B
:021952008F5CA8
:10195400E4F9E9FF7E00C394087480948050231254
:101964001A1DE4F55DC3E55D948074809480500F86
:10197400AF5C7E007D017C00121A38055D80E609AB
:0219840080D011
:01198600223E
:101A4900A907ED24B0FFE433FEE4FDFC121A38E9DE
:101A590054F0C4540F7E004410FFE4FDFC121A3800
:0C1A6900E9540FFF7E00E4FDFC021A3877
:101AF8007F8D121A34E4FDFC7F14FE121A38E4FDBF
:071B0800FC7FAFFE021A385A
:101B0F00E4FDFC7F8D121A2EE4FDFC7FAEFE021A5F
:011B1F00388D
:1019BA00E4F9E9FF7E00C3940874809480502212EF
:1019CA001A1DE4F550C3E550948074809480500E3B
:1019DA007D017C00E4FFFE121A38055080E7098079
:0119EA00D12B
:0119EB0022D9
:10198700E4F9E9FF7E00C394087480948050231221
:101997001A1DE4F51FC3E51F948074809480500FCF
:1019A7007D017C007F017E00121A38051F80E60941
:0219B70080D0DE
:0119B900220B
:041446008F578D58D7
:10144A00E4F55BF9EB24E0F55BD3EF947F748094C9
:10145A00804007E4F55705580558E55A6410707A34
:10146A00AD58AF57121A49E4F9E9C3940874809445
:10147A0080502975F010E55BA429F582E435F0F572
:10148A0083E5822436F582E5833402F583E493FF0B
:10149A007E007D017C00121A380980CDE55804FDD2
:1014AA00AF57121A49E4F9E9C3940874809480503A
:1014BA006575F010E55BA429F582E435F0F583E55E
:1014CA0082243EF582E5833402F583E493FF7E00AD
:1014DA007D017C00121A380980CDAD58AF57121A17
:1014EA0049E4F9E9C3940674809480502975F0069A
:1014FA00E55BA4240EF582E5F03400F583E5822944
:10150A00F582E43583F583E493FF7E007D017C0058
:06151A00121A380980CD11
:0115200022A8
:041AE0008F5EA90567
:101AE4007F017E00AD0119ED6009AD5E7C00121628
:031AF4002180F15D
:011AF70022CC
:081714008F0E8D0F8A108B115E
:10171C00E4F516F514E514C395125065C3E512955E
:10172C001414FD7F0A121AE0AC10AD11CFCDCFCE40
:10173C00CCCE1216337C007D0A1216338D15E516AD
:10174C007023E51214FFE514C39F5019E5157012B0
:10175C00E513C3138514F0A4250EFF85135A7B20C3
:10176C008016751601E513C3138514F0A4250EFF1E
:10177C00E5152430FB85135AAD0F12144605148061
:01178C0094C8
:01178D002239
:0A189C008F508D518B528A538954EE
:1018A600E4F556AB52AA53A95485568275830012A5
:1018B60015F4FB602485555AAD51AF501214467489
:1018C600082550F550D39478748094804007E4F549
:0918D6005005510551055680CA68
:0118DF0022E6
:04178E008F218B23F9
:10179200E4F528F529E5245407700BE52413131307
:1017A200541FF52B800AE524131313541F04F52B41
:1017B2008D2BE52BC39524503BAD2BAF21121A493B
:1017C20085212AE52AC395235026AB25AA26A927D7
:1017D2000529E529AE287002052814F5828E8312A8
:1017E20015F4FF7E007D017C00121A38052A80D391
:0417F200052B80BE85
:0117F60022D0
:10136600E4FDFC7FAEFE121A27E4FDFC7F40FE1270
:101376001A38E4FDFC7FB0FE121A38E4FDFC7F81CA
:10138600FE121A38E4FDFC7FFFFE121A38E4FDFC5B
:101396007FA1FE121A38E4FDFC7FA6FE121A38E47D
:1013A600FDFC7FA8FE121A38E4FDFC7F3FFE121AF0
:1013B60038E4FDFC7FC8FE121A38E4FDFC7FD3FE3C
:1013C600121A38E4FDFCFFFE121A38E4FDFC7FD544
:1013D600FE121A38E4FDFC7F80FE121A38E4FDFC8A
:1013E6007FD8FE121A38E4FDFC7F05FE121A38E497
:1013F600FDFC7FD9FE121A38E4FDFC7FF1FE121ABD
:1014060038E4FDFC7FDAFE121A38E4FDFC7F12FE9A
:10141600121A38E4FDFC7FDBFE121A38E4FDFC7F6D
:1014260030FE121A38E4FDFC7F8DFE121A38E4FDF8
:10143600FC7F14FE121A38E4FDFC7FAFFE021A3858
:1018E000AB05AA077F2D121B30E4FF121B30EA6400
:1018F00001700DFF121B307F01121B307F07800D1E
:101900007F03121B30EB14FF121B307F05121B30BC
:0A191000E4FF121B307F7F021B3042
:10000E000000000000000000002F000000000700AC
:10001E00070000147F147F1400242A7F2A12006226
:10002E0064081323003649552250000005030000D2
:10003E0000001C224100000041221C000014083E5A
:10004E0008140008083E0808000000A06000000820
:10005E000808080800006060000000201008040274
:10006E00003E5149453E0000427F40000042615132
:10007E004946002141454B31001814127F100027CC
:10008E0045454539003C4A4949300001710905038F
:10009E0000364949493600064949291E00003636C0
:1000AE000000000056360000000814224100001423
:1000BE001414141400004122140800020151090600
:1000CE0000324959513E007C1211127C007F494981
:1000DE004936003E41414122007F4141221C007FB2
:1000EE0049494941007F09090901003E4149497AC0
:1000FE00007F0808087F0000417F4100002040413A
:10010E003F01007F08142241007F40404040007FA5
:10011E00020C027F007F0408107F003E4141413EE9
:10012E00007F09090906003E4151215E007F091931
:10013E0029460046494949310001017F0101003F2E
:10014E004040403F001F2040201F003F4038403FAE
:10015E000063140814630007087008070061514912
:10016E00454300007F41410000552A552A550000A5
:10017E0041417F0000040201020400404040404023
:10018E00000001020400002054545478007F4844BB
:10019E00443800384444442000384444487F0038F2
:1001AE005454541800087E0901020018A4A4A47C1B
:1001BE00007F080404780000447D400000408084E5
:1001CE007D00007F102844000000417F4000007C2D
:1001DE0004180478007C0804047800384444443839
:1001EE0000FC242424180018242418FC007C080485
:1001FE00040800485454542000043F444020003C5E
:10020E004040207C001C2040201C003C4030403CE4
:10021E00004428102844001CA0A0A07C0044645474
:10022E004C441414141414140000000000000000B8
:10023E000000000000000000000000F800000000B8
:10024E00000000333000000000100C06100C0600F9
:10025E00000000000000000040C07840C078400060
:10026E00043F04043F040400007088FC08300000C2
:10027E00001820FF211E0000F008F000E01800001A
:10028E0000211C031E211E0000F0088870000000D3
:10029E001E2123241927211010160E000000000025
:1002AE000000000000000000000000E01804020042
:1002BE00000000071820400000020418E0000000B3
:1002CE000040201807000000404080F080404000B1
:1002DE000202010F01020200000000F00000000007
:1002EE000101011F010101000000000000000000DB
:1002FE0080B0700000000000000000000000000050
:10030E0000010101010101010000000000000000D8
:10031E000030300000000000000000008060180473
:10032E00006018060100000000E010080810E00050
:10033E00000F102020100F00001010F80000000019
:10034E000020203F20200000007008080888700060
:10035E0000302824222130000030088888483000E0
:10036E000018202020110E000000C02010F8000000
:10037E0000070424243F240000F808888808080099
:10038E000019212020110E0000E0108888180000AE
:10039E00000F112020110E0000380808C838080080
:1003AE000000003F00000000007088080888700000
:1003BE00001C222121221C0000E010080810E00081
:1003CE000000312222110F00000000C0C00000000A
:1003DE00000000303000000000000080000000002F
:1003EE000000806000000000000080402010080027
:1003FE0000010204081020004040404040404000F0
:10040E0004040404040404000008102040800000CA
:10041E000020100804020100007048080808F000CF
:10042E000000003036010000C030C828E810E0009F
:10043E000718272423140B000000C038E00000002A
:10044E00203C23020227382008F888888870000094
:10045E00203F202020110E00C03008080808380068
:10046E00071820202010080008F808080810E000DF
:10047E00203F202020100F0008F88888E808100080
:10048E00203F20202320180008F88888E808100054
:10049E00203F200003000000C0300808083800008C
:1004AE0007182020221E020008F808000008F8088D
:1004BE00203F210101213F20000808F80808000014
:1004CE000020203F2020000000000808F808080047
:1004DE00C08080807F00000008F888C028180800BF
:1004EE00203F20012638200008F8080000000000F8
:1004FE00203F20202020300008F8F800F8F80800EF
:10050E00203F003F003F200008F830C00008F808E8
:10051E00203F200007183F00E01008080810E000F8
:10052E000F10202020100F0008F808080808F0000F
:10053E00203F210101010000E01008080810E00032
:10054E000F18242438504F0008F8888888887000C7
:10055E00203F2000030C3020007088080808380067
:10056E000038202121221C00180808F8080818005D
:10057E000000203F2000000008F808000008F808DE
:10058E00001F202020201F000878880000C838088F
:10059E00000007380E010000F80800F80008F80007
:1005AE00033C0700073C03000818688080681808A1
:1005BE0020302C03032C30200838C800C83808001F
:1005CE000000203F2000000010080808C83808006E
:1005DE002038262120201800000000FE0202020012
:1005EE000000007F40404000000C30C000000000C2
:1005FE00000000010638C00000020202FE000000EA
:10060E00004040407F00000000000402020204008F
:10061E0000000000000000000000000000000000CC
:10062E0080808080808080800002020400000000B4
:10063E0000000000000000000000808080800000AC
:10064E000019242222223F2008F80080800000009A
:10065E00003F112020110E0000000080808000005D
:10066E00000E112020201100000000808088F8006C
:10067E00000E112020103F2000008080808000009E
:10068E00001F222222221300008080F08888881802
:10069E000020203F2020000000008080808080000D
:1006AE00006B94949493600008F8008080800000A2
:1006BE00203F210000203F2000809898000000007D
:1006CE000020203F202000000000008098980000AD
:1006DE0000C08080807F000008F8000080808000CD
:1006EE00203F24022D302000000808F800000000F2
:1006FE000020203F202000008080808080808000AD
:10070E00203F20003F20003F80800080808000003E
:10071E00203F210000203F200000808080800000CC
:10072E00001F202020201F008080008080000000FD
:10073E0080FFA12020110E0000000080808080002C
:10074E00000E112020A0FF8080808000808080001D
:10075E0020203F212000010000008080808080004A
:10076E000033242424241900008080E080800000BF
:10077E000000001F2020000080800000008080000C
:10078E00001F202020103F2080808000008080806D
:10079E0000010E30080601008080008000808080FD
:1007AE000F300C030C300F00008080008080800022
:1007BE000020312E0E31200080808000008080804D
:1007CE0080818E70180601000080808080808000FD
:1007DE000021302C2221300000000000807C02021B
:1007EE0000000000003F404000000000FF0000003D
:1007FE0000000000FF0000000002027C80000000EC
:10080E000040403F00000000000601010202040407
:08081E000000000000000000D2
:100C9B00EFD3940640037FFF2274602F2FF8E620DA
:100CAB00E5F4C2AFE64430F6D2AFAE0CEEC39F50C4
:100CBB00210E746D2EF8E6F908E618BE060274FFD5
:100CCB00FDED69600909E71919F7090980F3161693
:100CDB0080DAEED39F400405810581EED39F40223D
:100CEB00746D2EF808E6F9EEB50C02A9811806060C
:100CFB00E6FDED6960091919E70909F71980F31E7B
:100D0B0080D9EF246DF8E604F8EF2F04901B4C9379
:090D1B00F608EF2F93F67F002289
:100D2400EFD3940640037FFF22EF232460F8E630DC
:100D3400E5F4C2AFE6548CF6D2AFE50CB5070A74FD
:100D44006D2FF8E6F581020E87502E746E2FF8E6AB
:100D5400BF060274FFFD18E6F9746D2FF8FBE6FC7C
:100D6400E96C6008A805E7F61D1980F4A803A60538
:100D74001FE50CB507E37F0022746E2FF8E6FD181B
:100D840086010F746D2FF8A601088604E50CB507DB
:100D940002AC81ED6C60080D09A805E6F780F4E566
:090DA4000CB507DE89817F0022F5
:100DAD008FF0E4FFFEE50C23245FF8C2A930F70DA8
:100DBD007F08E6600B2DF660325030800730F1066B
:100DCD00EDF660277E020830F010C2AFE610E72581
:100DDD000E30E20CD2AF7F048014C2AFE610E715DF
:100DED0054EC4EF6D2AFD2A9020E877F0808EF441D
:0F0DFD0083F4C2AF56C6D2AFD2A954804FFF22A3
:03000B00020E11D1
:100E0C00C2AF80FE32120E1085D00B75D008AAE04E
:100E1C00C28CE58A24F7F58AE58C34D8F58CD28C13
:100E2C00EC246EF8E6BC060274FFC39581B4140082
:100E3C0040CE7907785F16E608700BC2AFE630E15A
:100E4C00034418F6D2AF08D9EDEA8BD03004012256
:100E5C00D50DFCC0E0C0D0C0F0C083C082C000C0C3
:100E6C0001C002C003C004C005C006C007E50C23C6
:100E7C002460F87440C2AF46F6D2AFD204E50CFF42
:100E8C00232460F80F0808BF07047F007860E63061
:100E9C00E4F200E50CC39F5020050C746D250CF892
:100EAC00E6FDA68108E6AE0CBE060274FFCDF8E89E
:100EBC006D60E008E6C0E080F6E50CD39F4027E5C6
:100ECC000C246EF8E6AE0CBE060274FFFD18E6CDDF
:100EDC00F8E5816D6006D0E0F61880F5E50C246D20
:100EEC00C8F6150C80D3750D05E50C232460F87F2E
:100EFC0004C2AFE610E61E30E00310E20C7F0030B7
:050F0C00E10730E304E1
:100F11007F0854F4547CC6D2AF54804207C20422E5
:100F2100F6D2AFD007D006D005D004D003D002D07E
:100F310001D000D082D083D0F0D0D0D0E0C2042242
:100F4100786DA68174066006FF0876FFDFFB7F07D8
:100F5100E4785FF608F608DFFA78607630901B4C8B
:100F6100740193C0E0E493C0E0750D0543890175F8
:0D0F71008AF0758CD8D28CD2AFD2A922069E
:030000000216885D
:0C168800787FE4F6D8FD7581730216CF60
:1015F400BB010CE58229F582E5833AF583E02250AC
:1016040006E92582F8E622BBFE06E92582F8E222F5
:0D161400E58229F582E5833AF583E493220F
:10162100EF8DF0A4A8F0CF8CF0A428CE8DF0A42EDD
:02163100FE2297
:10163300BC000BBE0029EF8DF084FFADF022E4CC9B
:10164300F875F008EF2FFFEE33FEEC33FCEE9DEC64
:10165300984005FCEE9DFE0FD5F0E9E4CEFD22EDAA
:10166300F8F5F0EE8420D21CFEADF075F008EF2FF4
:10167300FFED33FD4007985006D5F0F222C398FDE5
:051683000FD5F0EA2282
:10169400020F41E493A3F8E493A34003F68001F21C
:1016A40008DFF48029E493A3F85407240CC8C33357
:1016B400C4540F4420C8834004F456800146F6DF26
:1016C400E4800B0102040810204080901AC8E47ED4
:1016D400019360BCA3FF543F30E509541FFEE4931B
:1016E400A360010ECF54C025E060A840B8E493A3E2
:1016F400FAE493A3F8E493A3C8C582C8CAC583CA0D
:10170400F0A3C8C582C8CAC583CADFE9DEE780BEC4
:011ADF000006
:00000001FF
