:0217D60014C934
:0217D8000F51AF
:0217DA0011F804
:0217DC001551A5
:0217DE00158C68
:0217E00015C72B
:1008260053746172740053657474696E6700536320
:100836006F7265003E3E0020200067616D6573742F
:10084600617465206E6F770073636F726573746190
:100856007465206E6F770073657474696E67737460
:10086600617465206E6F77000000000000000000D4
:100876000000000000000000000000000000000072
:100886000000000000000000000000000000000062
:100896000000000000000000008080C0C0C0E0E052
:1008A600E0F0F0F0F0F0F0F0F0F0F0F0F0F0E0E072
:1008B600E0C0C0C080000000000000000000000092
:1008C6000000000000000000000000000000000022
:1008D6000000000000000000000000000000000012
:1008E6000000000000000000000000000000000002
:1008F60000000000000000000000000000000000F2
:1009060000000000000000000000000000000000E1
:100916000080E0F0F8FCFEFEFFFFFFFFFF7F7F3F59
:100926003F1F1F1F1F0F0F0F0F0F0F1F1F1F3F3FD1
:100936003F7F7FFFFFFFFFFEFCF8F0E0C080000076
:1009460000000000000000000000000000000000A1
:100956000000000000000000000000000000000091
:100966000000000000000000000000000000000081
:100976000000000000000000000000000000000071
:100986000000000000000000000000000080F0FCF5
:10099600FFFFFFFFFFFFFF3F0F07030100000000FF
:1009A6000000000080808080808080800000000041
:1009B600000000000181C3E7FFFFFFFFFFFFFFFC10
:1009C600F0800000000000000000000000000000B1
:1009D6000000000000000000000000000000000011
:1009E6000000000000000000000000000000000001
:1009F60000000000000000000000000000000000F1
:100A0600000000000000000000000000E0FFFFFF03
:100A1600FFFFFFFFFF07000000000000000000F0DE
:100A2600FCFEFFFFFFFFFFFFFFFFFFFFFFFF3E3C58
:100A360078787C7E7F7F7F7F7F7FFFFFFFFFFFFFD2
:100A4600FFFF0000000000000000000000000000A2
:100A56000000000000000000000000000000000090
:100A66000000000000000000000000000000000080
:100A76000000000000000000000000000000000070
:100A8600000000000000000000000000037FFFFFE0
:100A9600FFFFFFFFFFF0000000000000000000075E
:100AA6001F7F7FFFFFFFFFFFFFFFFFFFFFFF00002E
:100AB60000000000000000000000FFFFFFFFFFFF36
:100AC600FF7F0000000000000000000000000000A2
:100AD6000000000000000000000000000000000010
:100AE6000000000000000000000000000000000000
:100AF60000000000000000000000000000000000F0
:100B06000000000000000000000000000000030FCD
:100B16003F7FFFFFFFFFFFFCF8E0C0800000000002
:100B260000000000000101010101010100000000B8
:100B3600000000000000000000F0FFFFFF7F1F0F15
:100B4600030000000000000000000000000000009C
:100B5600000000000000000000000000000000008F
:100B6600000000000000000000000000000000007F
:100B7600000000000000000000000000000000006F
:100B8600000000000000000000000000000000005F
:100B96000000C1E3FFFFFFFFFFFFFFFFFFFFFEFEB9
:100BA600FCFCFCF8F8F8F8F8F8F8F8F8F8F8FCFCAB
:100BB600FCFEFEFCFCFCFCF8F8FFFFFFFFFFFFFF5E
:100BC600FFFFFF1F00000000000000000000000003
:100BD600000000000000000000000000000000000F
:100BE60000000000000000000000000000000000FF
:100BF60000000000000000000000000000000000EF
:100C060000000000000000000000000000000000DE
:100C160000030303030101010100000000000000BE
:100C260000000000000000010101030303030707A1
:100C360007070F0F0F0F0F0F0F0F0F0F0F0F0F07D6
:100C46000703010000000000000000000000000093
:100C5600000000000000000000000000000000008E
:080C6600000000000000000086
:0C17C900011800011700011900011A01AD
:1014C90075A0FF12103D7524087525FF752608754E
:1014D900276E7B80E4FDFF121460E4FBFA7D327F06
:1014E90080120D807F01120C6E7F02120C6E7F0339
:1014F900120C6E7F04120C6E7F05120C6EE4FF1243
:041509000CF780FE5D
:100F5100AF18EF6003021031AF17EF6003021031D9
:100F6100AF19EF600302103120B13AFBFA7D037F24
:100F710080120D8020B12EE4FBFA7D0A7F80120DD4
:100F810080C2AF151AD2AFAF1AC3EF940174809427
:100F9100805003751A0320B10CE4FBFA7D017F80B8
:100FA100120D8080F120B03BE4FBFA7D0A7F8012B4
:100FB1000D8030B0FDE4FBFA7D0A7F80120D80C206
:100FC100AF051AD2AFAF1AD3EF9403748094804067
:100FD10003751A0120B00CE4FBFA7D017F80120D2C
:100FE1008080F120B240E4FBFA7D0A7F80120D80FF
:100FF10030B2FDE4FBFA7D0A7F80120D80E51A24F0
:10100100FE600C14600E2402700D751801800875C5
:101011001701800375190120B20CE4FBFA7D017FF1
:1010210080120D8080F1E4FBFA7D0A7F80120D8031
:0C103100AF18AF17AF19EF6401020F51A8
:1011F80075A0AA12166AAF18EF70FBAF19EF70F658
:10120800AF17EF70F17BFF7A087926755510FD7FCF
:101218001912150D7BFF7A08792C7555107D037FFF
:101228001912150D7BFF7A0879347555107D067FE4
:101238001912150DE51A24FE601F1460442402706B
:10124800707BFF7A08793A755510E4FD7F03121513
:101258000D7BFF7A08793D80167BFF7A08793D750A
:101268005510E4FD7F0312150D7BFF7A08793A7556
:1012780055107D037F0312150D7BFF7A08793D8099
:10128800267BFF7A08793D755510E4FD7F0312151A
:101298000D7BFF7A08793D7555107D037F03121584
:1012A8000D7BFF7A08793A7555107D067F03121574
:0E12B8000DE4FBFA7D0A7F80120D800211FE0C
:10155100AF18EF6401702812166A75A0017BFF7A3B
:101561000879407555107D037F0312150DE4FBFAD0
:101571007D2C7F02120D8012166AE4F51880D1E4E9
:0B158100FBFA7D647F80120D8080C5A6
:10158C00AF19EF6401702812166A75A0027BFF7AFE
:10159C0008794E7555107D037F0312150DE4FBFA87
:1015AC007D2C7F02120D8012166AE4F51980D1E4AD
:0B15BC00FBFA7D647F80120D8080C56B
:1015C700AF17EF6401702812166A75A0037BFF7AC4
:1015D70008795D7555107D037F0312150DE4FBFA3D
:1015E7007D2C7F02120D8012166AE4F51780D1E474
:0B15F700FBFA7D647F80120D8080C530
:10172500D3EF9400EE940040147D657C18ED1D7098
:0D173500011CED4C70F7EF1F70E61E80E305
:011742002284
:10174300EF1FAA0670011E4A600FE4FDEDC3947BF0
:091753007480948050EA0D80F3CB
:01175C00226A
:0917E200D290D291C291C2902272
:07000300D290C291D29122BC
:0B179D001216A31217A8AF041216A327
:0517A800D290C2902266
:07169C00AC071217E27F7892
:1016A300C290E4FEEEC3940874809480501BAD078F
:1016B300530580ED64807004D2918002C291EF25BE
:0916C300E0FFD290C2900E80DB22
:0116CC0022FB
:0E17AD0012169C1217A8E4FF12179D020003EB
:0E17BB0012169C1217A87F4012179D02000301
:1016CD00EF24B0FFEE33FEE4FDFC1216E8E4FDFC62
:0B16DD00FFFE1216E87F10E4FDFCFE8B
:1016E800AB07AA06ED4C60030217BBAF031217AD98
:0116F80022CF
:021602008F1B3C
:10160400E4F9E9FF7E00C3940874809480502312A7
:1016140016CDE4F51CC3E51C948074809480500FAF
:10162400AF1B7E007D017C001216E8051C80E609D4
:0216340080D064
:011636002291
:1016F900A907ED24B0FFE433FEE4FDFC1216E8E986
:1017090054F0C4540F7E004410FFE4FDFC1216E8A7
:0C171900E9540FFF7E00E4FDFC0216E81E
:101775007F8D1216E4E4FDFC7F14FE1216E8E4FDED
:07178500FC7FAFFE0216E835
:10178C00E4FDFC7F8D1216DEE4FDFC7FAEFE02163E
:01179C00E864
:10166A00E4F9E9FF7E00C394087480948050221242
:10167A0016CDE4F550C3E550948074809480500EE2
:10168A007D017C00E4FFFE1216E8055080E7098020
:01169A00D17E
:01169B00222C
:10163700E4F9E9FF7E00C394087480948050231274
:1016470016CDE4F51DC3E51D948074809480500F7A
:101657007D017C007F017E001216E8051D80E609EA
:0216670080D031
:01166900225E
:04111D008F578D5803
:10112100E4F55BF9EB24E0F55BD3EF947F748094F5
:10113100804007E4F55705580558E55A6410707A60
:10114100AD58AF571216F9E4F9E9C39408748094C5
:1011510080502975F010E55BA429F582E435F0F59E
:1011610083E5822436F582E5833402F583E493FF37
:101171007E007D017C001216E80980CDE55804FD52
:10118100AF571216F9E4F9E9C394087480948050BA
:101191006575F010E55BA429F582E435F0F583E58A
:1011A10082243EF582E5833402F583E493FF7E00D9
:1011B1007D017C001216E80980CDAD58AF5712169B
:1011C100F9E4F9E9C3940674809480502975F00616
:1011D100E55BA4240EF582E5F03400F583E5822970
:1011E100F582E43583F583E493FF7E007D017C0085
:0611F1001216E80980CD92
:0111F70022D5
:04175D008F1EA9052D
:101761007F017E00AD0119ED6009AD1E7C001212F2
:03177100F380F111
:011774002252
:0813E6008F0E8D0F8A108B1190
:1013EE00E4F516F514E514C395125065C3E5129590
:1013FE001414FD7F0A12175DAC10AD11CFCDCFCEF8
:10140E00CCCE1213057C007D0A1213058D15E51640
:10141E007023E51214FFE514C39F5019E5157012E1
:10142E00E513C3138514F0A4250EFF85135A7B20F4
:10143E008016751601E513C3138514F0A4250EFF4F
:10144E00E5152430FB85135AAD0F12111D051480BE
:01145E0094F9
:01145F00226A
:0A150D008F508D518B528A53895480
:10151700E4F556AB52AA53A9548556827583001237
:1015270012C6FB602485555AAD51AF5012111D7478
:10153700082550F550D39478748094804007E4F5DB
:091547005005510551055680CAFA
:011550002278
:041460008F218B232A
:10146400E4F528F529E5245407700BE52413131338
:10147400541FF52B800AE524131313541F04F52B72
:101484008D2BE52BC39524503BAD2BAF211216F9C0
:1014940085212AE52AC395235026AB25AA26A92708
:1014A4000529E529AE287002052814F5828E8312D9
:1014B40012C6FF7E007D017C001216E8052A80D347
:0414C400052B80BEB6
:0114C8002201
:10103D00E4FDFC7FAEFE1216D7E4FDFC7F40FE12F0
:10104D0016E8E4FDFC7FB0FE1216E8E4FDFC7F819E
:10105D00FE1216E8E4FDFC7FFFFE1216E8E4FDFC2F
:10106D007FA1FE1216E8E4FDFC7FA6FE1216E8E451
:10107D00FDFC7FA8FE1216E8E4FDFC7F3FFE121674
:10108D00E8E4FDFC7FC8FE1216E8E4FDFC7FD3FE0C
:10109D001216E8E4FDFCFFFE1216E8E4FDFC7FD518
:1010AD00FE1216E8E4FDFC7F80FE1216E8E4FDFC5E
:1010BD007FD8FE1216E8E4FDFC7F05FE1216E8E46B
:1010CD00FDFC7FD9FE1216E8E4FDFC7FF1FE121641
:1010DD00E8E4FDFC7FDAFE1216E8E4FDFC7F12FE6B
:1010ED001216E8E4FDFC7FDBFE1216E8E4FDFC7F42
:1010FD0030FE1216E8E4FDFC7F8DFE1216E8E4FDCD
:10110D00FC7F14FE1216E8E4FDFC7FAFFE0216E82C
:10000E000000000000000000002F000000000700AC
:10001E00070000147F147F1400242A7F2A12006226
:10002E0064081323003649552250000005030000D2
:10003E0000001C224100000041221C000014083E5A
:10004E0008140008083E0808000000A06000000820
:10005E000808080800006060000000201008040274
:10006E00003E5149453E0000427F40000042615132
:10007E004946002141454B31001814127F100027CC
:10008E0045454539003C4A4949300001710905038F
:10009E0000364949493600064949291E00003636C0
:1000AE000000000056360000000814224100001423
:1000BE001414141400004122140800020151090600
:1000CE0000324959513E007C1211127C007F494981
:1000DE004936003E41414122007F4141221C007FB2
:1000EE0049494941007F09090901003E4149497AC0
:1000FE00007F0808087F0000417F4100002040413A
:10010E003F01007F08142241007F40404040007FA5
:10011E00020C027F007F0408107F003E4141413EE9
:10012E00007F09090906003E4151215E007F091931
:10013E0029460046494949310001017F0101003F2E
:10014E004040403F001F2040201F003F4038403FAE
:10015E000063140814630007087008070061514912
:10016E00454300007F41410000552A552A550000A5
:10017E0041417F0000040201020400404040404023
:10018E00000001020400002054545478007F4844BB
:10019E00443800384444442000384444487F0038F2
:1001AE005454541800087E0901020018A4A4A47C1B
:1001BE00007F080404780000447D400000408084E5
:1001CE007D00007F102844000000417F4000007C2D
:1001DE0004180478007C0804047800384444443839
:1001EE0000FC242424180018242418FC007C080485
:1001FE00040800485454542000043F444020003C5E
:10020E004040207C001C2040201C003C4030403CE4
:10021E00004428102844001CA0A0A07C0044645474
:10022E004C441414141414140000000000000000B8
:10023E000000000000000000000000F800000000B8
:10024E00000000333000000000100C06100C0600F9
:10025E00000000000000000040C07840C078400060
:10026E00043F04043F040400007088FC08300000C2
:10027E00001820FF211E0000F008F000E01800001A
:10028E0000211C031E211E0000F0088870000000D3
:10029E001E2123241927211010160E000000000025
:1002AE000000000000000000000000E01804020042
:1002BE00000000071820400000020418E0000000B3
:1002CE000040201807000000404080F080404000B1
:1002DE000202010F01020200000000F00000000007
:1002EE000101011F010101000000000000000000DB
:1002FE0080B0700000000000000000000000000050
:10030E0000010101010101010000000000000000D8
:10031E000030300000000000000000008060180473
:10032E00006018060100000000E010080810E00050
:10033E00000F102020100F00001010F80000000019
:10034E000020203F20200000007008080888700060
:10035E0000302824222130000030088888483000E0
:10036E000018202020110E000000C02010F8000000
:10037E0000070424243F240000F808888808080099
:10038E000019212020110E0000E0108888180000AE
:10039E00000F112020110E0000380808C838080080
:1003AE000000003F00000000007088080888700000
:1003BE00001C222121221C0000E010080810E00081
:1003CE000000312222110F00000000C0C00000000A
:1003DE00000000303000000000000080000000002F
:1003EE000000806000000000000080402010080027
:1003FE0000010204081020004040404040404000F0
:10040E0004040404040404000008102040800000CA
:10041E000020100804020100007048080808F000CF
:10042E000000003036010000C030C828E810E0009F
:10043E000718272423140B000000C038E00000002A
:10044E00203C23020227382008F888888870000094
:10045E00203F202020110E00C03008080808380068
:10046E00071820202010080008F808080810E000DF
:10047E00203F202020100F0008F88888E808100080
:10048E00203F20202320180008F88888E808100054
:10049E00203F200003000000C0300808083800008C
:1004AE0007182020221E020008F808000008F8088D
:1004BE00203F210101213F20000808F80808000014
:1004CE000020203F2020000000000808F808080047
:1004DE00C08080807F00000008F888C028180800BF
:1004EE00203F20012638200008F8080000000000F8
:1004FE00203F20202020300008F8F800F8F80800EF
:10050E00203F003F003F200008F830C00008F808E8
:10051E00203F200007183F00E01008080810E000F8
:10052E000F10202020100F0008F808080808F0000F
:10053E00203F210101010000E01008080810E00032
:10054E000F18242438504F0008F8888888887000C7
:10055E00203F2000030C3020007088080808380067
:10056E000038202121221C00180808F8080818005D
:10057E000000203F2000000008F808000008F808DE
:10058E00001F202020201F000878880000C838088F
:10059E00000007380E010000F80800F80008F80007
:1005AE00033C0700073C03000818688080681808A1
:1005BE0020302C03032C30200838C800C83808001F
:1005CE000000203F2000000010080808C83808006E
:1005DE002038262120201800000000FE0202020012
:1005EE000000007F40404000000C30C000000000C2
:1005FE00000000010638C00000020202FE000000EA
:10060E00004040407F00000000000402020204008F
:10061E0000000000000000000000000000000000CC
:10062E0080808080808080800002020400000000B4
:10063E0000000000000000000000808080800000AC
:10064E000019242222223F2008F80080800000009A
:10065E00003F112020110E0000000080808000005D
:10066E00000E112020201100000000808088F8006C
:10067E00000E112020103F2000008080808000009E
:10068E00001F222222221300008080F08888881802
:10069E000020203F2020000000008080808080000D
:1006AE00006B94949493600008F8008080800000A2
:1006BE00203F210000203F2000809898000000007D
:1006CE000020203F202000000000008098980000AD
:1006DE0000C08080807F000008F8000080808000CD
:1006EE00203F24022D302000000808F800000000F2
:1006FE000020203F202000008080808080808000AD
:10070E00203F20003F20003F80800080808000003E
:10071E00203F210000203F200000808080800000CC
:10072E00001F202020201F008080008080000000FD
:10073E0080FFA12020110E0000000080808080002C
:10074E00000E112020A0FF8080808000808080001D
:10075E0020203F212000010000008080808080004A
:10076E000033242424241900008080E080800000BF
:10077E000000001F2020000080800000008080000C
:10078E00001F202020103F2080808000008080806D
:10079E0000010E30080601008080008000808080FD
:1007AE000F300C030C300F00008080008080800022
:1007BE000020312E0E31200080808000008080804D
:1007CE0080818E70180601000080808080808000FD
:1007DE000021302C2221300000000000807C02021B
:1007EE0000000000003F404000000000FF0000003D
:1007FE0000000000FF0000000002027C80000000EC
:10080E000040403F00000000000601010202040407
:08081E000000000000000000D2
:100C6E00EFD3940540037FFF22745D2F2FF8E6200B
:100C7E00E5F4C2AFE64430F6D2AFAE0CEEC39F50F1
:100C8E00210E74682EF8E6F908E618BE050274FF08
:100C9E00FDED69600909E71919F7090980F31616C0
:100CAE0080DAEED39F400405810581EED39F40226A
:100CBE0074682EF808E6F9EEB50C02A9811806063E
:100CCE00E6FDED6960091919E70909F71980F31EA8
:100CDE0080D9EF2468F8E604F8EF2F049017D69326
:090CEE00F608EF2F93F67F0022B7
:100CF700EFD3940540037FFF22EF23245DF8E6300E
:100D0700E5F4C2AFE6548CF6D2AFE50CB5070A742A
:100D1700682FF8E6F581020E5A502E74692FF8E60F
:100D2700BF050274FFFD18E6F974682FF8FBE6FCAF
:100D3700E96C6008A805E7F61D1980F4A803A60565
:100D47001FE50CB507E37F002274692FF8E6FD184D
:100D570086010F74682FF8A601088604E50CB5070D
:100D670002AC81ED6C60080D09A805E6F780F4E593
:090D77000CB507DE89817F002222
:100D80008FF0E4FFFEE50C23245CF8C2A930F70DD8
:100D90007F08E6600B2DF660325030800730F10698
:100DA000EDF660277E020830F010C2AFE610E725AE
:100DB0000E30E20CD2AF7F048014C2AFE610E7150C
:100DC00054EC4EF6D2AFD2A9020E5A7F0808EF4477
:0F0DD00083F4C2AF56C6D2AFD2A954804FFF22D0
:03000B00020DE4FF
:100DDF00C2AF80FE32120DE385D00B75D008AAE0AA
:100DEF00C28CE58A24F7F58AE58C34D8F58CD28C41
:100DFF00EC2469F8E6BC050274FFC39581B41400B6
:100E0F0040CE7906785C16E608700BC2AFE630E18B
:100E1F00034418F6D2AF08D9EDEA8BD03000012287
:100E2F00D50DFCC0E0C0D0C0F0C083C082C000C0F0
:100E3F0001C002C003C004C005C006C007E50C23F3
:100E4F00245DF87440C2AF46F6D2AFD200E50CFF76
:100E5F0023245DF80F0808BF06047F00785DE63095
:100E6F00E4F200E50CC39F5020050C7468250CF8C4
:100E7F00E6FDA68108E6AE0CBE050274FFCDF8E8CC
:100E8F006D60E008E6C0E080F6E50CD39F4027E5F3
:100E9F000C2469F8E6AE0CBE050274FFFD18E6CD12
:100EAF00F8E5816D6006D0E0F61880F5E50C246852
:100EBF00C8F6150C80D3750D05E50C23245DF87F5E
:100ECF0004C2AFE610E61E30E00310E20C7F0030E4
:050EDF00E10730E3040F
:100EE4007F0854F4547CC6D2AF54804207C2002217
:100EF400F6D2AFD007D006D005D004D003D002D0AC
:100F040001D000D082D083D0F0D0D0D0E0C2002273
:100F14007868A68174056006FF0876FFDFFB7F060C
:100F2400E4785CF608F608DFFA785D76309017D638
:100F3400740193C0E0E493C0E0750D054389017525
:0D0F44008AF0758CD8D28CD2AFD2A92205CC
:0300000002135A8E
:0C135A00787FE4F6D8FD75816D0213A1C8
:1012C600BB010CE58229F582E5833AF583E02250DD
:1012D60006E92582F8E622BBFE06E92582F8E22227
:0D12E600E58229F582E5833AF583E4932241
:1012F300EF8DF0A4A8F0CF8CF0A428CE8DF0A42E0F
:02130300FE22C8
:10130500BC000BBE0029EF8DF084FFADF022E4CCCC
:10131500F875F008EF2FFFEE33FEEC33FCEE9DEC95
:10132500984005FCEE9DFE0FD5F0E9E4CEFD22EDDB
:10133500F8F5F0EE8420D21CFEADF075F008EF2F25
:10134500FFED33FD4007985006D5F0F222C398FD16
:051355000FD5F0EA22B3
:10136600020F14E493A3F8E493A34003F68001F27A
:1013760008DFF48029E493A3F85407240CC8C33388
:10138600C4540F4420C8834004F456800146F6DF57
:10139600E4800B01020408102040809017C9E47E07
:1013A600019360BCA3FF543F30E509541FFEE4934C
:1013B600A360010ECF54C025E060A840B8E493A313
:1013C600FAE493A3F8E493A3C8C582C8CAC583CA3E
:1013D600F0A3C8C582C8CAC583CADFE9DEE780BEF6
:0117D5000013
:00000001FF
