:0219C50016CD3D
:0219C7000F5AB5
:0219C9001213F7
:0219CB001758AB
:0219CD00167E84
:0219CF0013C93A
:0219D10018F00C
:1008260053746172740053657474696E6700536320
:100836006F7265003E3E0020200067616D6573742F
:10084600617465206E6F7700747261636B31203D51
:100856002031303030303000747261636B32203DAD
:100866002031303030303000510073706565643AA5
:100876000000000000000000000000000000000072
:100886000000000000000000000000000000000062
:100896000000000000000000000000000000000052
:1008A60000008080C0C0C0E0E0E0F0F0F0F0F0F0C2
:1008B600F0F0F0F0F0F0F0E0E0E0C0C0C080000042
:1008C6000000000000000000000000000000000022
:1008D6000000000000000000000000000000000012
:1008E6000000000000000000000000000000000002
:1008F60000000000000000000000000000000000F2
:1009060000000000000000000000000000000000E1
:100916000000000000000000000080E0F0F8FCFE8F
:10092600FEFFFFFFFFFF7F7F3F3F1F1F1F1F0F0FB2
:100936000F0F0F0F1F1F1F3F3F3F7F7FFFFFFFFF61
:10094600FEFCF8F0E0C0800000000000000000009F
:100956000000000000000000000000000000000091
:100966000000000000000000000000000000000081
:100976000000000000000000000000000000000071
:100986000000000000000000000000000000000061
:1009960000000000000080F0FCFFFFFFFFFFFFFFEC
:1009A6003F0F070301000000000000000080808068
:1009B600808080808000000000000000000181C36C
:1009C600E7FFFFFFFFFFFFFFFCF0800000000000D5
:1009D6000000000000000000000000000000000011
:1009E6000000000000000000000000000000000001
:1009F60000000000000000000000000000000000F1
:100A060000000000000000000000000000000000E0
:100A16000000000000E0FFFFFFFFFFFFFFFF0700F1
:100A26000000000000000000F0FCFEFFFFFFFFFFDB
:100A3600FFFFFFFFFFFFFF3E3C78787C7E7F7F7FD6
:100A46007F7F7FFFFFFFFFFFFFFFFF00000000002B
:100A56000000000000000000000000000000000090
:100A66000000000000000000000000000000000080
:100A76000000000000000000000000000000000070
:100A86000000000000000000000000000000000060
:100A96000000000000037FFFFFFFFFFFFFFFF000E5
:100AA6000000000000000000071F7F7FFFFFFFFF20
:100AB600FFFFFFFFFFFFFF00000000000000000037
:100AC600000000FFFFFFFFFFFFFF7F0000000000A8
:100AD6000000000000000000000000000000000010
:100AE6000000000000000000000000000000000000
:100AF60000000000000000000000000000000000F0
:100B060000000000000000000000000000000000DF
:100B160000000000000000030F3F7FFFFFFFFFFF04
:100B2600FCF8E0C0800000000000000000000101A9
:100B360001010101010000000000000000000000AA
:100B46000000F0FFFFFF7F1F0F0300000000000002
:100B5600000000000000000000000000000000008F
:100B6600000000000000000000000000000000007F
:100B7600000000000000000000000000000000006F
:100B8600000000000000000000000000000000005F
:100B96000000000000000000000000C1E3FFFFFFAE
:100BA600FFFFFFFFFFFFFFFEFEFCFCFCF8F8F8F876
:100BB600F8F8F8F8F8F8F8FCFCFCFEFEFCFCFCFC87
:100BC600F8F8FFFFFFFFFFFFFFFFFFFF1F0000001A
:100BD600000000000000000000000000000000000F
:100BE60000000000000000000000000000000000FF
:100BF60000000000000000000000000000000000EF
:100C060000000000000000000000000000000000DE
:100C160000000000000000000000030303030101C0
:100C260001010000000000000000000000000000BC
:100C360001010103030303070707070F0F0F0F0F38
:100C46000F0F0F0F0F0F0F0F070703010000000014
:100C5600000000000000000000000000000000008E
:100C6600000000000000000000000000000000007E
:010C7600007D
:10197500011100010F000112000114010110040101
:021985000E0151
:1016CD0075A0FF1211337524087525FF7526087551
:1016DD0027777B80E4FDFF121615E4FBFA7D327F40
:1016ED0080120D897F01120C777F02120C777F0318
:1016FD00120C777F04120C777F05120C777F061280
:07170D000C77E4FF020D0060
:100F5A00AF11EF600302103AAF0FEF600302103ACD
:100F6A00AF12EF600302103A20B13AFBFA7D037F19
:100F7A0080120D8920B12EE4FBFA7D0A7F80120DC2
:100F8A0089C2AF1514D2AFAF14C3EF940174809421
:100F9A0080500375140320B10CE4FBFA7D017F80B5
:100FAA00120D8980F120B03BE4FBFA7D037F8012A9
:100FBA000D8920B02EE4FBFA7D0A7F80120D89C2CA
:100FCA00AF0514D2AFAF14D3EF940374809480406A
:100FDA000375140120B00CE4FBFA7D017F80120D29
:100FEA008980F120B240E4FBFA7D0A7F80120D89E4
:100FFA0020B233E4FBFA7D0A7F80120D89E51424BE
:10100A00FE600C14600E2402700D751101800875C3
:10101A000F01800375120120B20CE4FBFA7D017FF7
:10102A0080120D8980F1E4FBFA7D0A7F80120D8916
:10103A00AF11AF0FEF640160030210F520B136FB68
:10104A00FA7D037F80120D8920B12AE4FBFA7D0A1A
:10105A007F80120D891510AF10C3EF94027480942B
:10106A0080500375100120B10CE4FBFA7D017F80EA
:10107A00120D8980F120B037E4FBFA7D037F8012DC
:10108A000D8920B02AE4FBFA7D0A7F80120D8905BA
:10109A0010AF10D3EF940774809480400375100842
:1010AA0020B00CE4FBFA7D017F80120D8980F120CB
:1010BA00B22FE4FBFA7D037F80120D8920B216E479
:1010CA00FBFA7D0A800820B20CE4FBFA7D017F80DE
:1010DA00120D8980F1E4F50FFBFA7D037F80120D72
:1010EA0089E4FBFA7D0A7F80120D89AF12EF640151
:1010FA006003020F5A30B203020F5AFBFA7D037FD4
:10110A0080120D89E4FBFA7D0A800820B20CE4FB08
:10111A00FA7D017F80120D8980F1E4F512FBFA7DD8
:09112A00037F80120D89020F5AA7
:10121300E4FBFA7D0A7F80120D8975A0AA121133AF
:10122300121835AF11EF70E8AF12EF70E3AF0FEFA5
:1012330070DE7BFF7A087926755510FD7F1912172A
:10124300147BFF7A08792C7555107D037F191217CB
:10125300147BFF7A0879347555107D067F191217B0
:1012630014E51424FE601F146044240270707BFF95
:101273007A08793A755510E4FD7F031217147BFF42
:101283007A08793D80167BFF7A08793D755510E41D
:10129300FD7F031217147BFF7A08793A7555107D89
:1012A300037F031217147BFF7A08793D80267BFFA7
:1012B3007A08793D755510E4FD7F031217147BFFFF
:1012C3007A08793D7555107D037F031217147BFF50
:1012D3007A08793A7555107D067F03121714E4FBDB
:0B12E300FA7D0A7F80120D890212269E
:10175800AF11EF6401702812183575A0017BFF7A6C
:101768000879407555107D037F03121714E4FBFABE
:101778007D2C7F02120D89121835E4F51180D1E411
:0B178800FBFA7D647F80120D8980C594
:10167E00AF12EF6401703C12113312183575A002CF
:10168E00AF12EF640170E97BFF7A08794E75551041
:10169E007D037F031217147BFF7A08795E75551050
:1016AE007D067F03121714E4FBFA7D147F80120D62
:0F16BE008980CDE4FBFA7D647F80120D8980B1B5
:1013C900AF0FEF6401600302146E121835E4FBFAE3
:1013D9007D0A7F80120D8975A0037BFF7A08796EDB
:1013E900755510E4FD7F78121714AF0FEF64017083
:1013F90064FBFA7D0A7F80120D89851013E4FBFADC
:101409007D0A7F80120D89E51375F00A84E5F024C1
:1014190030F515E4F516FBFA7D0A7F80120D897BFC
:10142900FF7A0879707555107D037F03121714E44C
:10143900FBFA7D0A7F80120D897B007A0079157588
:1014490055107D037F3C121714E4FBFA7D147F804D
:10145900120D898095121835E4FBFA7D647F80129C
:101469000D890213C9E4FBFA7D647F80120D89029C
:0214790013C995
:1018F000AF11EF6401700BFBFA7D647F80120D89DC
:0E19000080EEE4FBFA7D647F80120D8980E2A8
:10190E00D3EF9400EE940040147D657C18ED1D70AD
:0D191E00011CED4C70F7EF1F70E61E80E31A
:01192B002299
:10192C00EF1FAA0670011E4A600FE4FDEDC3947B05
:09193C007480948050EA0D80F3E0
:01194500227F
:0919D300D290D291C291C290227F
:07000300D290C291D29122BC
:0B19990012186E1219A4AF0412186E91
:0519A400D290C2902268
:07186700AC071219D37F78D2
:10186E00C290E4FEEEC3940874809480501BAD07C2
:10187E00530580ED64807004D2918002C291EF25F1
:09188E00E0FFD290C2900E80DB55
:01189700222E
:0E19A9001218671219A4E4FF12199902000324
:0E19B7001218671219A47F401219990200033A
:10189800EF24B0FFEE33FEE4FDFC1218B3E4FDFCC8
:0B18A800FFFE1218B37F10E4FDFCFEF1
:1018B300AB07AA06ED4C60030219B7AF031219A9CF
:0118C3002202
:0217CD008F5C2F
:1017CF00E4F9E9FF7E00C3940874809480502312DB
:1017DF001898E4F55DC3E55D948074809480500F94
:1017EF00AF5C7E007D017C001218B3055D80E609B9
:0217FF0080D098
:0118010022C4
:1018C400A907ED24B0FFE433FEE4FDFC1218B3E9EC
:1018D40054F0C4540F7E004410FFE4FDFC1218B30E
:0C18E400E9540FFF7E00E4FDFC0218B385
:10195E007F8D1218AFE4FDFC7F14FE1218B3E4FD68
:07196E00FC7FAFFE0218B37D
:10198800E4FDFC7F8D1218A9E4FDFC7FAEFE021871
:01199800B39B
:10183500E4F9E9FF7E00C394087480948050221275
:101845001898E4F550C3E550948074809480500E48
:101855007D017C00E4FFFE1218B3055080E7098086
:01186500D1B1
:01186600225F
:10180200E4F9E9FF7E00C3940874809480502312A7
:101812001898E4F55EC3E55E948074809480500F5E
:101822007D017C007F017E001218B3055E80E6090F
:0218320080D064
:011834002291
:0412EE008F578D5831
:1012F200E4F55BF9EB24E0F55BD3EF947F74809423
:10130200804007E4F55705580558E55A6410707A8D
:10131200AD58AF571218C4E4F9E9C3940874809425
:1013220080502975F010E55BA429F582E435F0F5CB
:1013320083E5822436F582E5833402F583E493FF64
:101342007E007D017C001218B30980CDE55804FDB2
:10135200AF571218C4E4F9E9C3940874809480501A
:101362006575F010E55BA429F582E435F0F583E5B7
:1013720082243EF582E5833402F583E493FF7E0006
:101382007D017C001218B30980CDAD58AF571218F9
:10139200C4E4F9E9C3940674809480502975F00678
:1013A200E55BA4240EF582E5F03400F583E582299D
:1013B200F582E43583F583E493FF7E007D017C00B2
:0613C2001218B30980CDF2
:0113C8002202
:041946008F5FA90501
:10194A007F017E00AD0119ED6009AD5F7C001214C4
:03195A00A880F171
:01195D002267
:08159B008F178D188A198B1AB5
:1015A300E4F51FF51DE51DC3951B5065C3E51B95AC
:1015B3001D14FD7F0A121946AC19AD1ACFCDCFCE3B
:1015C300CCCE1214BA7C007D0A1214BA8D1EE51F0C
:1015D3007023E51B14FFE51DC39F5019E51E701210
:1015E300E51CC313851DF0A42517FF851C5A7B201A
:1015F3008016751F01E51CC313851DF0A42517FF75
:10160300E51E2430FB851C5AAD181212EE051D8011
:011613009442
:0116140022B3
:0A1714008F508D518B528A53895477
:10171E00E4F556AB52AA53A954855682758300122E
:10172E00147BFB602485555AAD51AF501212EE74E6
:10173E00082550F550D39478748094804007E4F5D2
:09174E005005510551055680CAF1
:01175700226F
:041615008F218B2373
:10161900E4F528F529E5245407700BE52413131381
:10162900541FF52B800AE524131313541F04F52BBB
:101639008D2BE52BC39524503BAD2BAF211218C43C
:1016490085212AE52AC395235026AB25AA26A92751
:101659000529E529AE287002052814F5828E831222
:10166900147BFF7E007D017C001218B3052A80D30C
:04167900052B80BEFF
:01167D00224A
:10113300E4FDFC7FAEFE1218A2E4FDFC7F40FE122C
:1011430018B3E4FDFC7FB0FE1218B3E4FDFC7F810D
:10115300FE1218B3E4FDFC7FFFFE1218B3E4FDFC9E
:101163007FA1FE1218B3E4FDFC7FA6FE1218B3E4C0
:10117300FDFC7FA8FE1218B3E4FDFC7F3FFE1218AE
:10118300B3E4FDFC7FC8FE1218B3E4FDFC7FD3FE7D
:101193001218B3E4FDFCFFFE1218B3E4FDFC7FD587
:1011A300FE1218B3E4FDFC7F80FE1218B3E4FDFCCD
:1011B3007FD8FE1218B3E4FDFC7F05FE1218B3E4DA
:1011C300FDFC7FD9FE1218B3E4FDFC7FF1FE12187B
:1011D300B3E4FDFC7FDAFE1218B3E4FDFC7F12FEDC
:1011E3001218B3E4FDFC7FDBFE1218B3E4FDFC7FB1
:1011F30030FE1218B3E4FDFC7F8DFE1218B3E4FD3C
:10120300FC7F14FE1218B3E4FDFC7FAFFE0218B39B
:10179300AB05AA077F2D1219A9E4FF1219A9EA6460
:1017A30001700DFF1219A97F011219A97F07800D7E
:1017B3007F031219A9EB14FF1219A97F051219A9A6
:0A17C300E4FF1219A97F7F0219A9A3
:10000E000000000000000000002F000000000700AC
:10001E00070000147F147F1400242A7F2A12006226
:10002E0064081323003649552250000005030000D2
:10003E0000001C224100000041221C000014083E5A
:10004E0008140008083E0808000000A06000000820
:10005E000808080800006060000000201008040274
:10006E00003E5149453E0000427F40000042615132
:10007E004946002141454B31001814127F100027CC
:10008E0045454539003C4A4949300001710905038F
:10009E0000364949493600064949291E00003636C0
:1000AE000000000056360000000814224100001423
:1000BE001414141400004122140800020151090600
:1000CE0000324959513E007C1211127C007F494981
:1000DE004936003E41414122007F4141221C007FB2
:1000EE0049494941007F09090901003E4149497AC0
:1000FE00007F0808087F0000417F4100002040413A
:10010E003F01007F08142241007F40404040007FA5
:10011E00020C027F007F0408107F003E4141413EE9
:10012E00007F09090906003E4151215E007F091931
:10013E0029460046494949310001017F0101003F2E
:10014E004040403F001F2040201F003F4038403FAE
:10015E000063140814630007087008070061514912
:10016E00454300007F41410000552A552A550000A5
:10017E0041417F0000040201020400404040404023
:10018E00000001020400002054545478007F4844BB
:10019E00443800384444442000384444487F0038F2
:1001AE005454541800087E0901020018A4A4A47C1B
:1001BE00007F080404780000447D400000408084E5
:1001CE007D00007F102844000000417F4000007C2D
:1001DE0004180478007C0804047800384444443839
:1001EE0000FC242424180018242418FC007C080485
:1001FE00040800485454542000043F444020003C5E
:10020E004040207C001C2040201C003C4030403CE4
:10021E00004428102844001CA0A0A07C0044645474
:10022E004C441414141414140000000000000000B8
:10023E000000000000000000000000F800000000B8
:10024E00000000333000000000100C06100C0600F9
:10025E00000000000000000040C07840C078400060
:10026E00043F04043F040400007088FC08300000C2
:10027E00001820FF211E0000F008F000E01800001A
:10028E0000211C031E211E0000F0088870000000D3
:10029E001E2123241927211010160E000000000025
:1002AE000000000000000000000000E01804020042
:1002BE00000000071820400000020418E0000000B3
:1002CE000040201807000000404080F080404000B1
:1002DE000202010F01020200000000F00000000007
:1002EE000101011F010101000000000000000000DB
:1002FE0080B0700000000000000000000000000050
:10030E0000010101010101010000000000000000D8
:10031E000030300000000000000000008060180473
:10032E00006018060100000000E010080810E00050
:10033E00000F102020100F00001010F80000000019
:10034E000020203F20200000007008080888700060
:10035E0000302824222130000030088888483000E0
:10036E000018202020110E000000C02010F8000000
:10037E0000070424243F240000F808888808080099
:10038E000019212020110E0000E0108888180000AE
:10039E00000F112020110E0000380808C838080080
:1003AE000000003F00000000007088080888700000
:1003BE00001C222121221C0000E010080810E00081
:1003CE000000312222110F00000000C0C00000000A
:1003DE00000000303000000000000080000000002F
:1003EE000000806000000000000080402010080027
:1003FE0000010204081020004040404040404000F0
:10040E0004040404040404000008102040800000CA
:10041E000020100804020100007048080808F000CF
:10042E000000003036010000C030C828E810E0009F
:10043E000718272423140B000000C038E00000002A
:10044E00203C23020227382008F888888870000094
:10045E00203F202020110E00C03008080808380068
:10046E00071820202010080008F808080810E000DF
:10047E00203F202020100F0008F88888E808100080
:10048E00203F20202320180008F88888E808100054
:10049E00203F200003000000C0300808083800008C
:1004AE0007182020221E020008F808000008F8088D
:1004BE00203F210101213F20000808F80808000014
:1004CE000020203F2020000000000808F808080047
:1004DE00C08080807F00000008F888C028180800BF
:1004EE00203F20012638200008F8080000000000F8
:1004FE00203F20202020300008F8F800F8F80800EF
:10050E00203F003F003F200008F830C00008F808E8
:10051E00203F200007183F00E01008080810E000F8
:10052E000F10202020100F0008F808080808F0000F
:10053E00203F210101010000E01008080810E00032
:10054E000F18242438504F0008F8888888887000C7
:10055E00203F2000030C3020007088080808380067
:10056E000038202121221C00180808F8080818005D
:10057E000000203F2000000008F808000008F808DE
:10058E00001F202020201F000878880000C838088F
:10059E00000007380E010000F80800F80008F80007
:1005AE00033C0700073C03000818688080681808A1
:1005BE0020302C03032C30200838C800C83808001F
:1005CE000000203F2000000010080808C83808006E
:1005DE002038262120201800000000FE0202020012
:1005EE000000007F40404000000C30C000000000C2
:1005FE00000000010638C00000020202FE000000EA
:10060E00004040407F00000000000402020204008F
:10061E0000000000000000000000000000000000CC
:10062E0080808080808080800002020400000000B4
:10063E0000000000000000000000808080800000AC
:10064E000019242222223F2008F80080800000009A
:10065E00003F112020110E0000000080808000005D
:10066E00000E112020201100000000808088F8006C
:10067E00000E112020103F2000008080808000009E
:10068E00001F222222221300008080F08888881802
:10069E000020203F2020000000008080808080000D
:1006AE00006B94949493600008F8008080800000A2
:1006BE00203F210000203F2000809898000000007D
:1006CE000020203F202000000000008098980000AD
:1006DE0000C08080807F000008F8000080808000CD
:1006EE00203F24022D302000000808F800000000F2
:1006FE000020203F202000008080808080808000AD
:10070E00203F20003F20003F80800080808000003E
:10071E00203F210000203F200000808080800000CC
:10072E00001F202020201F008080008080000000FD
:10073E0080FFA12020110E0000000080808080002C
:10074E00000E112020A0FF8080808000808080001D
:10075E0020203F212000010000008080808080004A
:10076E000033242424241900008080E080800000BF
:10077E000000001F2020000080800000008080000C
:10078E00001F202020103F2080808000008080806D
:10079E0000010E30080601008080008000808080FD
:1007AE000F300C030C300F00008080008080800022
:1007BE000020312E0E31200080808000008080804D
:1007CE0080818E70180601000080808080808000FD
:1007DE000021302C2221300000000000807C02021B
:1007EE0000000000003F404000000000FF0000003D
:1007FE0000000000FF0000000002027C80000000EC
:10080E000040403F00000000000601010202040407
:08081E000000000000000000D2
:100C7700EFD3940640037FFF2274612F2FF8E620FD
:100C8700E5F4C2AFE64430F6D2AFAE0CEEC39F50E8
:100C9700210E746E2EF8E6F908E618BE060274FFF8
:100CA700FDED69600909E71919F7090980F31616B7
:100CB70080DAEED39F400405810581EED39F402261
:100CC700746E2EF808E6F9EEB50C02A9811806062F
:100CD700E6FDED6960091919E70909F71980F31E9F
:100CE70080D9EF246EF8E604F8EF2F049019C59326
:090CF700F608EF2F93F67F0022AE
:100D0000EFD3940640037FFF22EF232461F8E630FF
:100D1000E5F4C2AFE6548CF6D2AFE50CB5070A7421
:100D20006E2FF8E6F581020E63502E746F2FF8E6F1
:100D3000BF060274FFFD18E6F9746E2FF8FBE6FC9F
:100D4000E96C6008A805E7F61D1980F4A803A6055C
:100D50001FE50CB507E37F0022746F2FF8E6FD183E
:100D600086010F746E2FF8A601088604E50CB507FE
:100D700002AC81ED6C60080D09A805E6F780F4E58A
:090D80000CB507DE89817F002219
:100D89008FF0E4FFFEE50C232460F8C2A930F70DCB
:100D99007F08E6600B2DF660325030800730F1068F
:100DA900EDF660277E020830F010C2AFE610E725A5
:100DB9000E30E20CD2AF7F048014C2AFE610E71503
:100DC90054EC4EF6D2AFD2A9020E637F0808EF4465
:0F0DD90083F4C2AF56C6D2AFD2A954804FFF22C7
:03000B00020DEDF6
:100DE800C2AF80FE32120DEC85D00B75D008AAE098
:100DF800C28CE58A24F7F58AE58C34D8F58CD28C38
:100E0800EC246FF8E6BC060274FFC39581B41400A5
:100E180040CE7907786016E608700BC2AFE630E17D
:100E2800034418F6D2AF08D9EDEA8BD0300001227E
:100E3800D50DFCC0E0C0D0C0F0C083C082C000C0E7
:100E480001C002C003C004C005C006C007E50C23EA
:100E58002461F87440C2AF46F6D2AFD200E50CFF69
:100E6800232461F80F0808BF07047F007861E63083
:100E7800E4F200E50CC39F5020050C746E250CF8B5
:100E8800E6FDA68108E6AE0CBE060274FFCDF8E8C2
:100E98006D60E008E6C0E080F6E50CD39F4027E5EA
:100EA8000C246FF8E6AE0CBE060274FFFD18E6CD02
:100EB800F8E5816D6006D0E0F61880F5E50C246E43
:100EC800C8F6150C80D3750D05E50C232461F87F51
:100ED80004C2AFE610E61E30E00310E20C7F0030DB
:050EE800E10730E30406
:100EED007F0854F4547CC6D2AF54804207C200220E
:100EFD00F6D2AFD007D006D005D004D003D002D0A3
:100F0D0001D000D082D083D0F0D0D0D0E0C200226A
:100F1D00786EA68174066006FF0876FFDFFB7F07FB
:100F2D00E47860F608F608DFFA786176309019C536
:100F3D00740193C0E0E493C0E0750D05438901751C
:0D0F4D008AF0758CD8D28CD2AFD2A92206C2
:0300000002150FD7
:0C150F00787FE4F6D8FD75817402155653
:10147B00BB010CE58229F582E5833AF583E0225026
:10148B0006E92582F8E622BBFE06E92582F8E22270
:0D149B00E58229F582E5833AF583E493228A
:1014A800EF8DF0A4A8F0CF8CF0A428CE8DF0A42E58
:0214B800FE2212
:1014BA00BC000BBE0029EF8DF084FFADF022E4CC16
:1014CA00F875F008EF2FFFEE33FEEC33FCEE9DECDF
:1014DA00984005FCEE9DFE0FD5F0E9E4CEFD22ED25
:1014EA00F8F5F0EE8420D21CFEADF075F008EF2F6F
:1014FA00FFED33FD4007985006D5F0F222C398FD60
:05150A000FD5F0EA22FC
:10151B00020F1DE493A3F8E493A34003F68001F2BA
:10152B0008DFF48029E493A3F85407240CC8C333D1
:10153B00C4540F4420C8834004F456800146F6DFA0
:10154B00E4800B0102040810204080901975E47EA2
:10155B00019360BCA3FF543F30E509541FFEE49395
:10156B00A360010ECF54C025E060A840B8E493A35C
:10157B00FAE493A3F8E493A3C8C582C8CAC583CA87
:10158B00F0A3C8C582C8CAC583CADFE9DEE780BE3F
:01198700005F
:00000001FF
