:021F8F001AC86E
:021F9100083610
:021F93000E4AF4
:021F9500112118
:021F97001B70BD
:021F990014171B
:021F9B001F4FD6
:10150D00514720446173682076322E39004B65793E
:10151D00313A7570004B6579323A646F776E004BD6
:10152D006579333A636F6D6669726D004C6F6164F6
:10153D00696E672E2E2E0057656C636F6D652120C9
:10154D00200053746172740053657474696E670082
:10155D00496E666F003E3E002020004B6579343A9F
:10156D006261636B0020202020202020202020009D
:10157D00547261636B203100547261636B203200D1
:10158D00746F703A00417574683A4B79756E616E7F
:10159D00610032352F342F3230323500696E2041E3
:1015AD0054383943353252430056322E3900707259
:1015BD00657373203320746F2071756974005472D4
:1015CD0061636B31206E6F770067616D6520656EAD
:1015DD006400796F75722073636F72650054726168
:1015ED00636B32206E6F770073706565643A00240B
:0115FD0000ED
:101C0B00C101C100C102C103C108C104C105C106A4
:101C1B00C1074200A800004200AB00004200A50033
:101C2B00004100AA014100A7014100AD774100A38B
:011C3B0004A4
:101AC80075A0FF1216EA121DDCE4FBFA7D327F8056
:101AD800120C797BFF7A15790D90009C7408F0E45C
:101AE800FD7F03121D2E7BFF7A15791A90009C74D6
:101AF80008F07D027F03121D2E7BFF7A1579229054
:101B0800009C7408F07D037F03121D2E7BFF7A155D
:101B1800792C90009C7408F07D047F03121D2E7BA5
:101B2800FF7A15793990009C7408F07D067F0312BE
:101B38001D2EE4FBFA7DE87F80120C797BFF7A1575
:101B4800794490009C7408F07D067F03121D2EE4F2
:101B5800FBFA7D647F80120C797F01120B677F028C
:081B6800120B67E4FF020BF011
:1008360030010302091630000302091630020302D2
:10084600091620B139E4FBFA7D037F80120C79206A
:10085600B12CE4FBFA7D0A7F80120C799000A7E0A8
:1008660014F0E0C394017480948050037403F02064
:10087600B10CE4FBFA7D017F80120C7980F120B087
:1008860039E4FBFA7D037F80120C7920B02CE4FB5F
:10089600FA7D0A7F80120C799000A7E004F0E0D37D
:1008A60094037480948040037401F020B00CE4FB40
:1008B600FA7D017F80120C7980F120B249E4FBFABF
:1008C6007D037F80120C7920B23CE4FBFA7D0A7F1F
:1008D60080120C799000A7E024FE600B14601624A9
:1008E600027014D2018010D2007F02120BF07F0535
:1008F600120B678002D20220B20CE4FBFA7D017F64
:1009060080120C7980F1E4FBFA7D0A7F80120C7963
:10091600200103020A0B300303020A0B20B139E45B
:10092600FBFA7D037F80120C7920B12CE4FBFA7D63
:100936000A7F80120C799000AAE014F0E0C39401BB
:100946007480948050037402F020B10CE4FBFA7DAD
:10095600017F80120C7980F120B039E4FBFA7D0327
:100966007F80120C7920B02CE4FBFA7D0A7F80127E
:100976000C799000AAE004F0E0D39402748094808D
:1009860040037401F020B00CE4FBFA7D017F801275
:100996000C7980F120B232E4FBFA7D037F80120CE1
:1009A6007920B21BE4FBFA7D0A7F80120C79D20310
:1009B60020B20CE4FBFA7D017F80120C7980F17F76
:1009C60002120BF07F03120B6720B32FE4FBFA7DB4
:1009D600037F80120C7920B316E4FBFA7D0A8008A7
:1009E60020B30CE4FBFA7D017F80120C7980F1C202
:1009F60001E4FBFA7D037F80120C79E4FBFA7D0AA1
:100A06007F80120C7930022F20B22CE4FBFA7D0392
:100A16007F80120C79E4FBFA7D0A800820B20CE490
:100A2600FBFA7D017F80120C7980F1E4FBFA7D648C
:100A36007F80120C79C20230013830033520B23281
:100A4600E4FBFA7D037F80120C7920B216E4FBFAF0
:100A56007D0A800820B20CE4FBFA7D017F80120C2F
:100A66007980F1121DDCC203E4FBFA7D647F8012FB
:100A76000C7920000302083620B139E4FBFA7D0325
:100A86007F80120C7920B12CE4FBFA7D0A7F80125C
:100A96000C799000A3E014F0E0C394027480948073
:100AA60050037401F020B10CE4FBFA7D017F801243
:100AB6000C7980F120B039E4FBFA7D037F80120CBB
:100AC6007920B02CE4FBFA7D0A7F80120C79900025
:100AD600A3E004F0E0D39407748094804003740884
:100AE600F020B00CE4FBFA7D017F80120C7980F1D6
:100AF60020B22FE4FBFA7D037F80120C7920B21618
:100B0600E4FBFA7D0A800820B20CE4FBFA7D017F43
:100B160080120C7980F1C200E4FBFA7D037F80121B
:100B26000C7920B32FE4FBFA7D037F80120C792029
:100B3600B318E4FBFA7D0A800820B30CE4FBFA7DC7
:100B4600017F80120C7980F1D207E4FBFA7D037FE6
:100B560080120C79E4FBFA7D0A7F80120C79020878
:010B66003658
:100E4A00121DDCE4FBFA7D0A7F80120C7975A0AAD8
:100E5A00300103020F46300003020F46300203023C
:100E6A000F467BFF7A15794F90009C7410F0E4FDD1
:100E7A007F19121D2E7BFF7A15795590009C7410EC
:100E8A00F07D037F19121D2E7BFF7A15795D900084
:100E9A009C7410F07D067F19121D2E9000A7E02485
:100EAA00FE602514605024026003020F397BFF7A2A
:100EBA0015796290009C7410F0E4FD7F03121D2ED8
:100ECA007BFF7A15796580197BFF7A157965900021
:100EDA009C7410F0E4FD7F03121D2E7BFF7A1579B6
:100EEA006290009C7410F07D037F03121D2E7BFF1D
:100EFA007A157965802C7BFF7A15796590009C7448
:100F0A0010F0E4FD7F03121D2E7BFF7A15796590A0
:100F1A00009C7410F07D037F03121D2E7BFF7A154F
:100F2A00796290009C7410F07D067F03121D2EE4F6
:100F3A00FBFA7D0A7F80120C79020E5A2001030205
:100F4A00109A30030302109A121DDC7BFF7A15797E
:100F5A001A90009C7408F07D017F03121D2E7BFFFE
:100F6A007A15792290009C7408F07D027F03121D85
:100F7A002E7BFF7A15792C90009C7408F07D037FF4
:100F8A0003121D2E7BFF7A15796890009C7408F075
:100F9A007D047F03121D2E7BFF7A15793990009C00
:100FAA007408F07D067F03121D2EE4FBFA7DE87FAC
:100FBA0080120C797BFF7A15797290009C7408F084
:100FCA007D067F03121D2E121DDC20010302108DE7
:100FDA0030030302108D7BFF7A15797D90009C7493
:100FEA0010F0E4FD7F19121D2E7BFF7A157985908A
:100FFA00009C7410F07D037F19121D2E7BFF7A1559
:10100A00798D90009C7408F07D067F03121D2E9046
:10101A0000AAE024FE602E0470B07BFF7A15796284
:10102A0090009C7410F0E4FD7F03121D2E7BFF7A62
:10103A0015796590009C7410F07D037F03121D2EB4
:10104A009000A880297BFF7A15796590009C74101E
:10105A00F0E4FD7F03121D2E7BFF7A157962900062
:10106A009C7410F07D037F03121D2E9000ABE0FAF2
:10107A00A3E0FB9000917408F07D067F28121A17EE
:10108A00020FD4121DDCE4FBFA7D647F80120C7916
:10109A00200203020E4D121DDC30026B7BFF7A1513
:1010AA00799290009C7410F0E4FD7F03121D2E7B50
:1010BA00FF7A15799F90009C7408F07D037F0312D4
:1010CA001D2E7BFF7A1579A990009C7408F07D0487
:1010DA007F03121D2E7BFF7A1579B690009C740847
:1010EA00F07D057F03121D2E7BFF7A1579BB9000D8
:1010FA009C7410F07D067F03121D2EE4FBFA7DE836
:10110A007F80120C798092121DDCE4FBFA7D0A7F43
:07111A0080120C79020E4D5A
:101121002001030212CFD203121DDC75A0017BFF47
:101131007A15793990009C7410F07D037F03121D9C
:101141002E7F04120B677F06120B679000AAE064E2
:10115100017BFF70067A1D799280047A1D79B7129E
:101161001EED20010302120B9000AAE0640160034E
:1011710002120B20030302120B121DDC7BFF7A15F6
:1011810079CB90009C7410F07D037F03121D2E7BA0
:10119100FF7A15793990009C7408F07D067F03125F
:1011A1001D2ED20830080CE4FBFA7D647F80120CFE
:1011B1007980F1121DDC7BFF7A1579D690009C7441
:1011C10010F0E4FD7F03121D2E7BFF7A1579DF906D
:1011D100009C7410F07D037F03121D2E9000A8E087
:1011E100FAA3E0FB9000917410F07D067F03121AC0
:1011F10017E4FBFA7DD07F80120C79C203E4FBFA7D
:101201007D647F80120C790211632001030212B305
:101211009000AAE0640260030212B32003030212E9
:10122100B3121DDC7BFF7A1579EA90009C7410F0F3
:101231007D037F03121D2E7BFF7A15793990009C67
:101241007408F07D067F03121D2ED20830080CE4CD
:10125100FBFA7D647F80120C7980F1121DDC7BFF2B
:101261007A1579D690009C7410F0E4FD7F03121D6D
:101271002E7BFF7A1579DF90009C7410F07D037F3F
:1012810003121D2E9000ABE0FAA3E0FB90009174D5
:1012910010F07D067F03121A17E4FBFA7DD07F80E0
:1012A100120C79C203E4FBFA7D647F80120C79028F
:1012B100120B121DDCE4FBFA7D647F80120C79C2F3
:1012C100017F02120B677F03120BF0021121E4FB75
:0B12D100FA7D647F80120C790211216D
:101B70003001193003169000A57403F0A374E8F047
:101B8000E4FBFA7D0A7F80120C7980E430016F203B
:101B9000036CD39000A6E094009000A5E094004070
:101BA0005D9000AAE06401701E9000A8E0FEA3E032
:101BB000FFD39000A6E09F9000A5E09E4030E0FF9C
:101BC000A3E09000A880229000AAE06402701FA306
:101BD000E0FEA3E0FFD39000A6E09F9000A5E09E6A
:101BE000400CE0FFA3E09000ABCFF0A3EFF0E49057
:101BF00000A5F0A3F0FBFA7D647F80120C79E4FB72
:0B1C0000FA7D647F80120C79021B70DB
:101417002000030215001216EA121DDCE4FBFA7D18
:101427000A7F80120C7975A0039000A3E025E0FFE6
:10143700C374799F9000ADF02000030214E6E4FB2B
:10144700FA7D017F80120C797BFF7A1579F5900080
:101457009C7410F07D037F03121D2EE4FBFA7D01BF
:101467007F80120C799000A3E0FB7A0090009174C2
:1014770010F07D037F3C121A177BFF7A1579FC90D9
:10148700009C7410F0E4FD7F10121D2E9000A3E065
:10149700FF7D011212DC30079F9000A3E0FF7D0162
:1014A70012195A9000A4EFF0E0602775F003A42406
:1014B700E1F582E4341EF583E493FB740193FA7437
:1014C7000293F990009C7408F07D067F03121D2E8D
:1014D700C207E4FBFA7D017F80120C7902143FE416
:1014E700FBFA7D647F80120C79121DDC7F02120BE0
:1014F700677F05120BF0021417E4FBFA7D647F8007
:06150700120C790214171A
:101F4F003008051217C6C208E4FBFA7D0A7F80121B
:041F5F000C7980EC8D
:10001E000000000000000000002F0000000007009C
:10002E00070000147F147F1400242A7F2A12006216
:10003E0064081323003649552250000005030000C2
:10004E0000001C224100000041221C000014083E4A
:10005E0008140008083E0808000000A06000000810
:10006E000808080800006060000000201008040264
:10007E00003E5149453E0000427F40000042615122
:10008E004946002141454B31001814127F100027BC
:10009E0045454539003C4A4949300001710905037F
:1000AE0000364949493600064949291E00003636B0
:1000BE000000000056360000000814224100001413
:1000CE0014141414000041221408000201510906F0
:1000DE0000324959513E007C1211127C007F494971
:1000EE004936003E41414122007F4141221C007FA2
:1000FE0049494941007F09090901003E4149497AB0
:10010E00007F0808087F0000417F41000020404129
:10011E003F01007F08142241007F40404040007F95
:10012E00020C027F007F0408107F003E4141413ED9
:10013E00007F09090906003E4151215E007F091921
:10014E0029460046494949310001017F0101003F1E
:10015E004040403F001F2040201F003F4038403F9E
:10016E000063140814630007087008070061514902
:10017E00454300007F41410000552A552A55000095
:10018E0041417F0000040201020400404040404013
:10019E00000001020400002054545478007F4844AB
:1001AE00443800384444442000384444487F0038E2
:1001BE005454541800087E0901020018A4A4A47C0B
:1001CE00007F080404780000447D400000408084D5
:1001DE007D00007F102844000000417F4000007C1D
:1001EE0004180478007C0804047800384444443829
:1001FE0000FC242424180018242418FC007C080475
:10020E00040800485454542000043F444020003C4D
:10021E004040207C001C2040201C003C4030403CD4
:10022E00004428102844001CA0A0A07C0044645464
:10023E004C441414141414140000000000000000A8
:10024E000000000000000000000000F800000000A8
:10025E00000000333000000000100C06100C0600E9
:10026E00000000000000000040C07840C078400050
:10027E00043F04043F040400007088FC08300000B2
:10028E00001820FF211E0000F008F000E01800000A
:10029E0000211C031E211E0000F0088870000000C3
:1002AE001E2123241927211010160E000000000015
:1002BE000000000000000000000000E01804020032
:1002CE00000000071820400000020418E0000000A3
:1002DE000040201807000000404080F080404000A1
:1002EE000202010F01020200000000F000000000F7
:1002FE000101011F010101000000000000000000CB
:10030E0080B070000000000000000000000000003F
:10031E0000010101010101010000000000000000C8
:10032E000030300000000000000000008060180463
:10033E00006018060100000000E010080810E00040
:10034E00000F102020100F00001010F80000000009
:10035E000020203F20200000007008080888700050
:10036E0000302824222130000030088888483000D0
:10037E000018202020110E000000C02010F80000F0
:10038E0000070424243F240000F808888808080089
:10039E000019212020110E0000E01088881800009E
:1003AE00000F112020110E0000380808C838080070
:1003BE000000003F000000000070880808887000F0
:1003CE00001C222121221C0000E010080810E00071
:1003DE000000312222110F00000000C0C0000000FA
:1003EE00000000303000000000000080000000001F
:1003FE000000806000000000000080402010080017
:10040E0000010204081020004040404040404000DF
:10041E0004040404040404000008102040800000BA
:10042E000020100804020100007048080808F000BF
:10043E000000003036010000C030C828E810E0008F
:10044E000718272423140B000000C038E00000001A
:10045E00203C23020227382008F888888870000084
:10046E00203F202020110E00C03008080808380058
:10047E00071820202010080008F808080810E000CF
:10048E00203F202020100F0008F88888E808100070
:10049E00203F20202320180008F88888E808100044
:1004AE00203F200003000000C0300808083800007C
:1004BE0007182020221E020008F808000008F8087D
:1004CE00203F210101213F20000808F80808000004
:1004DE000020203F2020000000000808F808080037
:1004EE00C08080807F00000008F888C028180800AF
:1004FE00203F20012638200008F8080000000000E8
:10050E00203F20202020300008F8F800F8F80800DE
:10051E00203F003F003F200008F830C00008F808D8
:10052E00203F200007183F00E01008080810E000E8
:10053E000F10202020100F0008F808080808F000FF
:10054E00203F210101010000E01008080810E00022
:10055E000F18242438504F0008F8888888887000B7
:10056E00203F2000030C3020007088080808380057
:10057E000038202121221C00180808F8080818004D
:10058E000000203F2000000008F808000008F808CE
:10059E00001F202020201F000878880000C838087F
:1005AE00000007380E010000F80800F80008F800F7
:1005BE00033C0700073C0300081868808068180891
:1005CE0020302C03032C30200838C800C83808000F
:1005DE000000203F2000000010080808C83808005E
:1005EE002038262120201800000000FE0202020002
:1005FE000000007F40404000000C30C000000000B2
:10060E00000000010638C00000020202FE000000D9
:10061E00004040407F00000000000402020204007F
:10062E0000000000000000000000000000000000BC
:10063E0080808080808080800002020400000000A4
:10064E00000000000000000000008080808000009C
:10065E000019242222223F2008F80080800000008A
:10066E00003F112020110E0000000080808000004D
:10067E00000E112020201100000000808088F8005C
:10068E00000E112020103F2000008080808000008E
:10069E00001F222222221300008080F088888818F2
:1006AE000020203F202000000000808080808000FD
:1006BE00006B94949493600008F800808080000092
:1006CE00203F210000203F2000809898000000006D
:1006DE000020203F2020000000000080989800009D
:1006EE0000C08080807F000008F8000080808000BD
:1006FE00203F24022D302000000808F800000000E2
:10070E000020203F2020000080808080808080009C
:10071E00203F20003F20003F80800080808000002E
:10072E00203F210000203F200000808080800000BC
:10073E00001F202020201F008080008080000000ED
:10074E0080FFA12020110E0000000080808080001C
:10075E00000E112020A0FF8080808000808080000D
:10076E0020203F212000010000008080808080003A
:10077E000033242424241900008080E080800000AF
:10078E000000001F202000008080000000808000FC
:10079E00001F202020103F2080808000008080805D
:1007AE0000010E30080601008080008000808080ED
:1007BE000F300C030C300F00008080008080800012
:1007CE000020312E0E31200080808000008080803D
:1007DE0080818E70180601000080808080808000ED
:1007EE000021302C2221300000000000807C02020B
:1007FE0000000000003F404000000000FF0000002D
:10080E0000000000FF0000000002027C80000000DB
:10081E000040403F000000000006010102020404F7
:08082E000000000000000000C2
:101D92001D041B0219041B021D031E011D021B044C
:101DA20000001D041B0219041B021D031E011D025B
:101DB2001B040000FF1D041B0219041B021D031E4D
:101DC200011D021B0400001D041B0219041B021D3D
:0A1DD200031E011D021B040000FFA8
:101C3C00604A000A0000F88CF8F3F95BF9B8FA1561
:101C4C00FA67FAB9FB04FB4BFB90FBCFFC10FC448E
:101C5C00FC79FCACFCDCFD09FD34FD5CFD82FDA6D1
:101C6C00FDC8FDE8FE06FE22FE3DFE56FE6EFE851C
:101C7C00FE9AFEAEFEC1FED3FEE4FEF4FF0343006B
:091C8C0000000000420005000008
:101EED0053890F438910758DFC758B18C28FC28E67
:101EFD00D2ABD2AFE4900005F0A3F0900000EBF070
:071F0D00A3EAF0A3E9F022B2
:03001B00021E1DA5
:101E1D00C0E0C083C082C0D075D000C0069000095C
:101E2D00E025E0240AF582E43400F583E0FEA3E02A
:101E3D004E600E900004E0F58B900003E0F58DB23E
:0C1E4D00A5D006D0D0D082D083D0E032E7
:1017C600900000E0FBA3E0FAA3E0F9EA494B7002BF
:1017D600801C900000E0FBA3E0FAA3E0F99000056E
:1017E600E0FEA3E0F5828E83121890F47003021FC8
:1017F6009D900000E0FBA3E0FAA3E0F9900005E06D
:10180600FEA3E0F5828E83121890900009F09000F6
:1018160006E004F07006900005E004F0900005E094
:10182600FEA3E0F5828E83121890FF7E007C017D78
:101836002C1218BDEF7802CEC313CE13D8F9FF9041
:101846000007EEF0A3EFF0900006E004F0700690BB
:101856000005E004F0900009E025E0240AF582E4A2
:101866003400F583E0FCA3E0FDEC900003F0A3ED6B
:10187600F0D28E900007E0FEA3E0FF121F36C28E64
:0A1886007F0A7E00121F360217D8F9
:051F9D00C28EC2A52266
:101F3600EF1FAC0670011E4C600E750E02750FEF9A
:081F4600D50FFDD50EFA80E86D
:011F4E002270
:09000E00D290D291C291C290225D
:07000300D290C291D29122BC
:0B1F6300121E94121F6EAF04121E9499
:051F6E00D290C2902298
:071E8D00AC0712000E7F7884
:101E9400C290E4FEEEC3940874809480501AAD0797
:101EA400ED548064807004D2918002C291EF25E0E9
:081EB400FFD290C2900E80DC09
:011EBC002203
:0E1F7300121E8D121F6EE4FF121F6302000388
:0E1F8100121E8D121F6E7F40121F630200039E
:101F1400121F25E4FDFCFFFE121F257F10E4FDFCCB
:011F2400FEBE
:101F2500AB07AA06ED4C6003021F81AF03121F73B6
:011F35002289
:081E590090009EE0FFA3E0FDF4
:101E6100A907ED24B0FFE433FEE4FDFC121F25E9D0
:101E710054F0C4540F7E004410FFE4FDFC121F25F2
:0C1E8100E9540FFF7E00E4FDFC021F2569
:101DDC00E4F9E9FF7E00C39408748094805031EFDD
:101DEC0024B0FFEE33FEE4FDFC121F14E490008DD2
:101DFC00F090008DE0C3948074809480500F7D012E
:101E0C007C00E4FFFE121F25E004F080E40980C290
:011E1C0022A3
:0B15FE0090009FEDF090009EEFF0FDCC
:10160900E49000A2F0F9EB24E0F0EDD3947F74802C
:101619009480400AE490009EF0A3E02402F0900038
:10162900A1E0641060030216AF121E59E4F9E9C380
:10163900940874809480502B9000A2E075F010A457
:1016490029F582E435F0F583E5822446F582E583C0
:101659003402F583E493FF7E007D017C00121F258F
:101669000980CB90009EE0FFA3E004FD121E61E417
:10167900F9E9C394087480948050659000A2E075DC
:10168900F010A429F582E435F0F583E582244EF5BE
:1016990082E5833402F583E493FF7E007D017C00BB
:1016A900121F250980CB121E59E4F9E9C394067467
:1016B900809480502B9000A2E075F006A4241EF5BA
:1016C90082E5F03400F583E58229F582E43583F576
:1016D90083E493FF7E007D017C00121F250980CBE6
:0116E90022DE
:101D2E00900097EFF0A3EDF0A3EBF0A3EAF0A3E998
:011D3E00F0B4
:101D3F00E490009DF0900099E0FBA3E0FAA3E0F996
:101D4F0090009DE0F582758300121890FB60339030
:101D5F000097E0FFA3E0FD90009CE09000A1F0123F
:101D6F0015FE900097E02408F0E0D39478748094E7
:101D7F00804007E4F0A3E02402F090009DE004F01F
:021D8F0080B31F
:011D9100222F
:0E1A170090008DEFF0A3EDF0A3EAF0A3EBF04A
:101A2500E4FB90008FE0FEA3E0FF7C037DE8121845
:101A3500CFEF2430900092F090008FE0FEA3E0FFFE
:101A45007C007D641218CF7C007D0A1218CFED242E
:101A550030900093F090008FE0FEA3E0FF7C007DC6
:101A65000A1218CF7C007D0A1218CFED24309000A1
:101A750094F090008FE0FEA3E0FF7C007D0A121831
:101A8500CFED2430900095F0E4A3F0EBC3940374FC
:101A9500809480501174922BF582E43400F583E034
:101AA500B430030B80E590008DE0FFA3E0FD749258
:101AB5002BF9E43400FA7B01900091E090009CF052
:031AC500021D2ED1
:1016EA00E4FDFC7FAEFE121F147F40121F21E4FDB1
:1016FA00FC7FB0FE121F25E4FDFC7F81FE121F2530
:10170A00E4FDFC7FFFFE121F25E4FDFC7FA1FE1213
:10171A001F25E4FDFC7FA6FE121F25E4FDFC7FA821
:10172A00FE121F25E4FDFC7F3FFE121F25E4FDFC8F
:10173A007FC8FE121F25E4FDFC7FD3FE121F25E49D
:10174A00FDFCFFFE121F25E4FDFC7FD5FE121F25BE
:10175A00E4FDFC7F80FE121F25E4FDFC7FD8FE120B
:10176A001F25E4FDFC7F05FE121F25E4FDFC7FD941
:10177A00FE121F25E4FDFC7FF1FE121F25E4FDFC8D
:10178A007FDAFE121F25E4FDFC7F12FE121F25E4FC
:10179A00FDFC7FDBFE121F25E4FDFC7F30FE121FDD
:1017AA0025E4FDFC7F8DFE121F25E4FDFC7F14FE5F
:0C17BA00121F25E4FDFC7FAFFE021F257E
:101EBD004D69737320202000506572666563740050
:101ECD00476F6F6420202000426164202020200095
:101EDD0020005100FF1EBDFF1EC5FF1ECDFF1ED5EC
:0C1C95004400B2000000004200AF00005C
:10195A0090008DEFF0ED149000B1F0ED640170038A
:10196A00FF80027F039000AEEFF09000B1E0FF2409
:10197A00AFF582E43400F583E07003021A14EF2510
:10198A00E024B2F582E43400F583E0FEA3E0FFC36D
:10199A009428EE6480948050719000AEE0FD7BFF45
:1019AA007A1E79DD90009C7410F0121D2E9000B101
:1019BA00E0FF24AFF582E43400F583E4F0EF25E09C
:1019CA0024B2F582E43400F583E0FEA3E024F0FFBC
:1019DA00EE34FFFE90008DE0FD7C00121924900089
:1019EA00B6EEF0A3EFF0C39401EE64809480500346
:1019FA007F0122C39000B7E094029000B6E06480B1
:0D1A0A00948050037F02227F03227F002280
:1012DC0090008DEFF0ED149000B1F0ED640170030F
:1012EC00FF80027F039000AEEFF09000B1E0FD2490
:1012FC00AFF582E43400F583E0703490008DE07536
:10130C00F002A4FFC374799FFFE495F0FE9000B146
:10131C00E0FC25E024B2F582E43400F583EEF0A382
:10132C00EFF074AF2CF582E43400F5837401F09087
:10133C00008DE0FFED25E024B2F582E43400F58366
:10134C00E0FCA3E0FDD39F7480F8EC6480984072BD
:10135C00ED9478EC648094805068AF059000AEE01A
:10136C00FD7BFF7A1E79DD90009C7410F0121D2E0F
:10137C009000B1E025E024B2F582E43400F583C09E
:10138C0083C082E0FEA3E0FF90008DE0FDC3EF9DE3
:10139C00FFEE9400D082D083F0A3EFF09000B1E088
:1013AC0025E024B2F582E43400F583A3E0FF90003D
:1013BC00AEE0FD7BFF7A1E79DF90009C7410F0028A
:1013CC001D2E9000B1E025E024B2F582E43400F546
:1013DC0083A3E0FF9000AEE0FD7BFF7A1E79DD90E9
:1013EC00009C7410F0121D2E7BFF7A1E79BD9000AC
:1013FC009C7408F07D067F03121D2E9000B1E02432
:0B140C00AFF582E43400F583E4F02229
:100B6700EFD3940640037FFF2274112F2FF8E6205E
:100B7700E5F4C2AFE64430F6D2AFAE0CEEC39F50F9
:100B8700210E74222EF8E6F908E618BE060274FF55
:100B9700FDED69600909E71919F7090980F31616C8
:100BA70080DAEED39F400405810581EED39F402272
:100BB70074222EF808E6F9EEB50C02A9811806068C
:100BC700E6FDED6960091919E70909F71980F31EB0
:100BD70080D9EF2422F8E604F8EF2F04901F8F93B3
:090BE700F608EF2F93F67F0022BF
:100BF000EFD3940640037FFF22EF232411F8E63061
:100C0000E5F4C2AFE6548CF6D2AFE50CB5070A7432
:100C1000222FF8E6F581020D53502E74232FF8E6AB
:100C2000BF060274FFFD18E6F974222FF8FBE6FCFC
:100C3000E96C6008A805E7F61D1980F4A803A6056D
:100C40001FE50CB507E37F002274232FF8E6FD189B
:100C500086010F74222FF8A601088604E50CB5075B
:100C600002AC81ED6C60080D09A805E6F780F4E59B
:090C70000CB507DE89817F00222A
:100C79008FF0E4FFFEE50C232410F8C2A930F70D2C
:100C89007F08E6600B2DF660325030800730F106A0
:100C9900EDF660277E020830F010C2AFE610E725B6
:100CA9000E30E20CD2AF7F048014C2AFE610E71514
:100CB90054EC4EF6D2AFD2A9020D537F0808EF4487
:0F0CC90083F4C2AF56C6D2AFD2A954804FFF22D8
:03000B00020CDD07
:100CD800C2AF80FE32120CDC85D00B75D008AAE0BA
:100CE800C28CE58A24F7F58AE58C34D8F58CD28C49
:100CF800EC2423F8E6BC060274FFC39581B4140003
:100D080040CE7907781016E608700BC2AFE630E1DE
:100D1800034418F6D2AF08D9EDEA8BD03009012286
:100D2800D50DFCC0E0C0D0C0F0C083C082C000C0F8
:100D380001C002C003C004C005C006C007E50C23FB
:100D48002411F87440C2AF46F6D2AFD209E50CFFC1
:100D5800232411F80F0808BF07047F007811E63034
:100D6800E4F200E50CC39F5020050C7422250CF812
:100D7800E6FDA68108E6AE0CBE060274FFCDF8E8D3
:100D88006D60E008E6C0E080F6E50CD39F4027E5FB
:100D98000C2423F8E6AE0CBE060274FFFD18E6CD5F
:100DA800F8E5816D6006D0E0F61880F5E50C2422A0
:100DB800C8F6150C80D3750D05E50C232411F87FB2
:100DC80004C2AFE610E61E30E00310E20C7F0030EC
:050DD800E10730E30417
:100DDD007F0854F4547CC6D2AF54804207C2092216
:100DED00F6D2AFD007D006D005D004D003D002D0B4
:100DFD0001D000D082D083D0F0D0D0D0E0C2092273
:100E0D007822A68174066006FF0876FFDFFB7F0758
:100E1D00E47810F608F608DFFA78117630901F8F17
:100E2D00740193C0E0E493C0E0750D05438901752D
:0D0E3D008AF0758CD8D28CD2AFD2A92206D3
:03000000021CA23D
:0C1CA200787FE4F6D8FD758128021CE96B
:10189000BB010CE58229F582E5833AF583E022500D
:1018A00006E92582F8E622BBFE06E92582F8E22257
:0D18B000E58229F582E5833AF583E4932271
:1018BD00EF8DF0A4A8F0CF8CF0A428CE8DF0A42E3F
:0218CD00FE22F9
:1018CF00BC000BBE0029EF8DF084FFADF022E4CCFD
:1018DF00F875F008EF2FFFEE33FEEC33FCEE9DECC6
:1018EF00984005FCEE9DFE0FD5F0E9E4CEFD22ED0C
:1018FF00F8F5F0EE8420D21CFEADF075F008EF2F56
:10190F00FFED33FD4007985006D5F0F222C398FD46
:05191F000FD5F0EA22E3
:10192400C2D5EC30E709B2D5E4C39DFDE49CFCEEDE
:1019340030E715B2D5E4C39FFFE49EFE1218CFC36F
:10194400E49DFDE49CFC80031218CF30D507C3E46A
:061954009FFFE49EFE224D
:101CAE00020E0DE493A3F8E493A34003F68001F231
:101CBE0008DFF48029E493A3F85407240CC8C33337
:101CCE00C4540F4420C8834004F456800146F6DF06
:101CDE00E4800B0102040810204080901C0BE47E6F
:101CEE00019360BCA3FF543F30E509541FFEE493FB
:101CFE00A360010ECF54C025E060A840B8E493A3C2
:101D0E00FAE493A3F8E493A3C8C582C8CAC583CAEC
:101D1E00F0A3C8C582C8CAC583CADFE9DEE780BEA4
:011CA1000042
:00000001FF
