:02000E001AEBEB
:020010000836B0
:020012000E4D91
:0200140012BA1E
:020016001BB419
:0200180010B422
:1013EF00514720446173682076312E3000313A75B1
:1013FF007020323A646F776E00333A636F6D6669AF
:10140F00726D0053746172740053657474696E6702
:10141F0000496E666F003E3E00202000333A636F36
:10142F006D6669726D20343A6261636B004C6F6157
:10143F0064696E672E2E2E00547261636B2031002B
:10144F00547261636B2032004D41583A00417574FC
:10145F00683A4B79756E616E610032352F342F32D9
:10146F00303235007072657373203320746F2071C2
:10147F007569740067616D657374617465206E6F53
:10148F007700547261636B31206E6F770067616D07
:10149F006520656E6400796F75722073636F726576
:1014AF0000547261636B32206E6F770073706565E5
:1014BF00643A0024005065726665637400476F6F6D
:1014CF006420202000426164202020200020005151
:0914DF00004D6973732020200008
:1019F500C101C100C102C10341009E004100A00018
:101A050041009C0041009F0141009D014100A377D9
:0E1A150041009A04C1044100A400410099015F
:101AEB0075A0FF1215D4121C92E4FBFA7D327F8095
:101AFB00120C7C7BFF7A1379EF9000927408F0E460
:101B0B00FD7F03121B507BFF7A1379FC90009274BC
:101B1B0008F07D017F03121B507BFF7A147908902C
:101B2B0000927408F07D027F03121B50E4FBFA7DD8
:101B3B00E87F80120C7C7F01120B6A7F02120B6A0A
:051B4B00E4FF020BF3B2
:1008360030010302091630000302091630020302D2
:10084600091620B139E4FBFA7D037F80120C7C2067
:10085600B12CE4FBFA7D0A7F80120C7C90009DE0AF
:1008660014F0E0C394017480948050037403F02064
:10087600B10CE4FBFA7D017F80120C7C80F120B084
:1008860039E4FBFA7D037F80120C7C20B02CE4FB5C
:10089600FA7D0A7F80120C7C90009DE004F0E0D384
:1008A60094037480948040037401F020B00CE4FB40
:1008B600FA7D017F80120C7C80F120B249E4FBFABC
:1008C6007D037F80120C7C20B23CE4FBFA7D0A7F1C
:1008D60080120C7C90009DE024FE600B14601624B0
:1008E600027014D2018010D2007F02120BF37F0532
:1008F600120B6A8002D20220B20CE4FBFA7D017F61
:1009060080120C7C80F1E4FBFA7D0A7F80120C7C5D
:10091600200103020A0B300303020A0B20B139E45B
:10092600FBFA7D037F80120C7C20B12CE4FBFA7D60
:100936000A7F80120C7C90009FE014F0E0C39401C3
:100946007480948050037402F020B10CE4FBFA7DAD
:10095600017F80120C7C80F120B039E4FBFA7D0324
:100966007F80120C7C20B02CE4FBFA7D0A7F80127B
:100976000C7C90009FE004F0E0D394027480948095
:1009860040037401F020B00CE4FBFA7D017F801275
:100996000C7C80F120B232E4FBFA7D037F80120CDE
:1009A6007C20B21BE4FBFA7D0A7F80120C7CD2030A
:1009B60020B20CE4FBFA7D017F80120C7C80F17F73
:1009C60002120BF37F03120B6A20B32FE4FBFA7DAE
:1009D600037F80120C7C20B316E4FBFA7D0A8008A4
:1009E60020B30CE4FBFA7D017F80120C7C80F1C2FF
:1009F60001E4FBFA7D037F80120C7CE4FBFA7D0A9E
:100A06007F80120C7C30023220B22FE4FBFA7D0389
:100A16007F80120C7CE4FBFA7D0A800820B20CE48D
:100A2600FBFA7D017F80120C7C80F1C202121C92BF
:100A3600E4FBFA7D647F80120C7C3001383003358C
:100A460020B232E4FBFA7D037F80120C7C20B216C2
:100A5600E4FBFA7D0A800820B20CE4FBFA7D017FF4
:100A660080120C7C80F1121C92C203E4FBFA7D64B6
:100A76007F80120C7C20000302083620B139E4FB8B
:100A8600FA7D037F80120C7C20B12CE4FBFA7D0AF0
:100A96007F80120C7C90009AE014F0E0C3940274FC
:100AA60080948050037401F020B10CE4FBFA7D01C0
:100AB6007F80120C7C80F120B039E4FBFA7D037F45
:100AC60080120C7C20B02CE4FBFA7D0A7F80120C8D
:100AD6007C90009AE004F0E0D39407748094804000
:100AE600037408F020B00CE4FBFA7D017F80120C41
:100AF6007C80F120B22FE4FBFA7D037F80120C7C10
:100B060020B216E4FBFA7D0A800820B20CE4FBFA58
:100B16007D017F80120C7C80F1C200E4FBFA7D032C
:100B26007F80120C7C20B32FE4FBFA7D037F8012BA
:100B36000C7C20B316E4FBFA7D0A800820B30CE493
:100B4600FBFA7D017F80120C7C80F1D204E4FBFA73
:100B56007D037F80120C7CE4FBFA7D0A7F80120CF9
:040B66007C020836CF
:100E4D00121C92E4FBFA7D0A7F80120C7C75A0AA1D
:100E5D00300103020F49300003020F493002030233
:100E6D000F497BFF7A1479129000927410F0E4FD13
:100E7D007F19121B507BFF7A147918900092741011
:100E8D00F07D037F19121B507BFF7A14792090009F
:100E9D00927410F07D067F19121B5090009DE02476
:100EAD00FE602514605024026003020F3C7BFF7A24
:100EBD001479259000927410F0E4FD7F03121B50FD
:100ECD007BFF7A14792880197BFF7A14792890009A
:100EDD00927410F0E4FD7F03121B507BFF7A14799E
:100EED00259000927410F07D037F03121B507BFF41
:100EFD007A147928802C7BFF7A14792890009274CB
:100F0D0010F0E4FD7F03121B507BFF7A14792890BB
:100F1D0000927410F07D037F03121B507BFF7A1437
:100F2D0079259000927410F07D067F03121B50E41A
:100F3D00FBFA7D0A7F80120C7C020E5D20010302FC
:100F4D001056300303021056121C927BFF7A137950
:100F5D00FC9000927410F0E4FD7F03121B507BFF98
:100F6D007A14792B9000927408F07D037F03121B85
:100F7D00507BFF7A14793C9000927410F07D067FBF
:100F8D0003121B50E4FBFA7DE87F80120C7C2001DC
:100F9D0003021056300303021056121C927BFF7A87
:100FAD001479479000927410F0E4FD7F19121B50D4
:100FBD007BFF7A14794F9000927410F07D037F19A6
:100FCD00121B507BFF7A1479579000927410F07DAC
:100FDD00067F03121B5090009FE024FE602E0470CC
:100FED00AD7BFF7A1479259000927410F0E4FD7FAB
:100FFD0003121B507BFF7A1479289000927410F025
:10100D007D037F03121B5090009E80297BFF7A1475
:10101D0079289000927410F0E4FD7F03121B507B31
:10102D00FF7A1479259000927410F07D037F0312DE
:10103D001B509000A0E0FB7A0090007B7410F07DB7
:10104D00067F19121824020F9B200203020E501264
:10105D001C923002457BFF7A14795C9000927410DB
:10106D00F0E4FD7F03121B507BFF7A147969900029
:10107D00927410F07D037F03121B507BFF7A14795D
:10108D00739000927410F07D067F03121B50E4FBE9
:10109D00FA7DE87F80120C7C80B8E4FBFA7D0A7F34
:0710AD0080120C7C020E50C2
:1012BA002001030213E2D203121C9275A0017BFFE4
:1012CA007A1479839000927410F07D037F03121BC5
:1012DA00507F04120B6A30017090009FE064017025
:1012EA0068121C927BFF7A1479919000927410F024
:1012FA007D037F03121B507BFF7A1A797D121D59D9
:10130A00E4FBFA7DE87F80120C7C121C927BFF7A48
:10131A0014799C9000927410F0E4FD7F03121B5024
:10132A007BFF7A1479A59000927410F07D037F03F5
:10133A00121B5090009EE0FB7A0090007B7410F024
:10134A007D067F03121824808D30017090009FE083
:10135A0064027068121C927BFF7A1479B090009232
:10136A007410F07D037F03121B507BFF7A1A79B445
:10137A00121D59E4FBFA7DE87F80120C7C121C9244
:10138A007BFF7A14799C9000927410F0E4FD7F033D
:10139A00121B507BFF7A1479A59000927410F07D8D
:1013AA00037F03121B509000A0E0FB7A0090007BA1
:1013BA007410F07D067F03121824808D121C92E4AB
:1013CA00FBFA7D647F80120C7CC2017F02120B6AD9
:1013DA007F03120BF30212BAE4FBFA7D647F8012D8
:0513EA000C7C0212BAA8
:101BB40030015D30031290009CE004F0E4FBFA7DF8
:101BC400647F80120C7C80E890009FE06401701CAC
:101BD40090009EE0FF90009CE0D39F400FE09000B7
:101BE4009EF0E490009CF07F04120BF390009FE0C1
:101BF400640270BCA3E0FF90009CE0D39F40B1E07E
:101C04009000A0F0E490009CF07F04120BF380A0FD
:011C140022AD
:1010B4002000030212AD1215D4121C92E4FBFA7D37
:1010C4000A7F80120C7C75A00390009AE025E0FF53
:1010D400C374799F9000A3F0200003021293900040
:1010E4009AE0A3F0E4FBFA7D017F80120C7C90006F
:1010F4009BE075F00A84E5F024309000A1F0E4A3AD
:10110400F0FBFA7D017F80120C7C7BFF7A1479BBA3
:101114009000927410F07D037F03121B50E4FBFADD
:101124007D017F80120C7C7B017A0079A190009272
:101134007410F07D037F3C121B507BFF7A1479C23C
:101144009000927410F0E4FD7F10121B509000A3E5
:10115400E024F0FFE434FFFE90009AE0FD7C0012EE
:1011640019149000A4EFF09000A3E0C3941F7480BE
:1011740094805075300472A3E0C394017480948009
:1011840050087BFF7A1479C480289000A4E0C394AB
:10119400027480948050087BFF7A1479CC80139079
:1011A40000A4E0C394037480948050137BFF7A14EA
:1011B40079D49000927410F07D067F03121B509036
:1011C40000A3E0FF7BFF7A1479DC9000927410F0A6
:1011D400E4FD121B5090009AE025E0FFC374799F50
:1011E4009000A3F0C2040210DC90009AE0FF90008B
:1011F400A3E0D39F4045E0947874809480503C20D1
:101204000439E0FF7BFF7A1479DC9000927410F0CB
:10121400E4FD121B509000A3E0FF90009AE0FEC38F
:10122400EF9E9000A3F0E0FF7BFF7A1479DE90003C
:10123400927410F0E4FD121B5080479000A3E0FF6D
:101244007BFF7A1479DC9000927410F0E4FD121B99
:101254005090009AE0FF9000A3E0C39F50137BFFDF
:101264007A1479E09000927410F07D067F03121BCB
:101274005090009AE025E0FFC374799F9000A3F09A
:10128400C204E4FBFA7D017F80120C7C0210DCE4D2
:10129400FBFA7D647F80120C7C121C927F02120B7D
:1012A4006A7F05120BF30210B4E4FBFA7D647F80BD
:0612B400120C7C0210B4D4
:091E2200D290D291C291C290222B
:07000300D290C291D29122BC
:0B1DF600121D04121E01AF04121D0498
:051E0100D290C2902206
:071CFD00AC07121E227F78E4
:101D0400C290E4FEEEC3940874809480501AAD0728
:101D1400ED548064807004D2918002C291EF25E07A
:081D2400FFD290C2900E80DC9A
:011D2C002294
:0E1E0600121CFD121E01E4FF121DF602000365
:0E1E1400121CFD121E017F40121DF60200037B
:101D2D00EF24B0FFEE33FEE4FDFC121D48E4FDFC94
:0B1D3D00FFFE121D487F10E4FDFCFEBD
:101D4800AB07AA06ED4C6003021E14AF03121E0671
:011D58002268
:051C15009000AEEFF0AD
:101C1A00E4F9E9FF7E00C3940874809480502C1282
:101C2A001D2DE49000AFF09000AFE0C39480748063
:101C3A00948050149000AEE0FF7E007D017C00127B
:0B1C4A001D48A3E004F080DF0980C704
:011C5500226C
:081CC900900094E0FFA3E0FD90
:101CD100A907ED24B0FFE433FEE4FDFC121D48E941
:101CE10054F0C4540F7E004410FFE4FDFC121D4863
:0C1CF100E9540FFF7E00E4FDFC021D48DA
:101DB7007F8D121D44E4FDFC7F14FE121D48E4FDD7
:071DC700FC7FAFFE021D4886
:101DE500E4FDFC7F8D121D3EE4FDFC7FAEFE021D71
:011DF50048A5
:101C9200E4F9E9FF7E00C39408748094805027120F
:101CA2001D2DE490008DF090008DE0C3948074802F
:101CB2009480500F7D017C00E4FFFE121D48E00479
:061CC200F080E40980CC73
:011CC80022F9
:0B14E800900095EDF0900094EFF0FDF7
:1014F300E4900098F0F9EB24E0F0EDD3947F74804E
:101503009480400AE4900094F0A3E02402F0900059
:1015130097E064106003021599121CC9E4F9E9C34A
:10152300940874809480502B900098E075F010A478
:1015330029F582E435F0F583E5822446F582E583D7
:101543003402F583E493FF7E007D017C00121D4885
:101553000980CB900094E0FFA3E004FD121CD1E4CA
:10156300F9E9C39408748094805065900098E075FD
:10157300F010A429F582E435F0F583E582244EF5D5
:1015830082E5833402F583E493FF7E007D017C00D2
:10159300121D480980CB121CC9E4F9E9C3940674EF
:1015A300809480502B900098E075F006A4241EF5DB
:1015B30082E5F03400F583E58229F582E43583F58D
:1015C30083E493FF7E007D017C00121D480980CBDC
:0115D30022F5
:071D80009000B0EFF0A9058F
:101D87007F017E00AD0119ED600C9000B0E0FD7C95
:061D97000012190280EEAB
:011D9D002223
:0E16B4009000A5EFF0A3EDF0A3EAF0A3EBF099
:1016C200E49000ADF09000ABF09000A9E0FF900034
:1016D200ABE0FEC39F400302176EC3EF9E14FD7F73
:1016E2000A121D809000A7E0FCA3E0FDCFCDCFCE73
:1016F200CCCE1219147C007D0A1219149000ACEDA4
:10170200F0A3E070369000A9E014FF9000ABE0FE79
:10171200C39F5027A3E0701D9000AAE0FCC3138E64
:10172200F0A4FF9000A5E02FFFA3E0FD900097EC4E
:10173200F07B20802B9000AD7401F09000AAE0FEB7
:10174200C313FFA3E0FDEF8DF0A4FF9000A5E02FEF
:10175200FFA3E0FD9000ACE02430FB900097EEF098
:0C1762001214E89000ABE004F00216CB7B
:01176E002258
:101B500090008DEFF0A3EDF0A3EBF0A3EAF0A3E982
:011B6000F094
:101B6100E4900093F090008FE0FBA3E0FAA3E0F98A
:101B7100900093E0F5827583001218D5FB603390D5
:101B8100008DE0FFA3E0FD900092E0900097F0123D
:101B910014E890008DE02408F0E0D39478748094E8
:101BA100804007E4F0A3E02402F0900093E004F009
:021BB10080B3FF
:011BB300220F
:0E182400900077EFF0A3EDF0A3EAF0A3EBF055
:10183200E4FB900079E0FEA3E0FF7C037DE812194F
:1018420014EF243090007CF0900079E0FEA3E0FFDA
:101852007C007D641219147C007D0A121914ED2497
:101862003090007DF0900079E0FEA3E0FF7C007DE7
:101872000A1219147C007D0A121914ED243090000A
:101882007EF0900079E0FEA3E0FF7C007D0A121951
:1018920014ED243090007FF0E4A3F0EBC3940374C2
:1018A2008094805011747C2BF582E43400F583E03F
:1018B200B430030B80E5900077E0FFA3E0FD747C79
:1018C2002BF9E43400FA7B0190007BE0900092F067
:0318D200021B50A6
:1015D400E4FDFC7FAEFE121D37E4FDFC7F40FE12ED
:1015E4001D48E4FDFC7FB0FE121D48E4FDFC7F8134
:1015F400FE121D48E4FDFC7FFFFE121D48E4FDFCC5
:101604007FA1FE121D48E4FDFC7FA6FE121D48E4E6
:10161400FDFC7FA8FE121D48E4FDFC7F3FFE121D69
:1016240048E4FDFC7FC8FE121D48E4FDFC7FD3FEA8
:10163400121D48E4FDFCFFFE121D48E4FDFC7FD5AD
:10164400FE121D48E4FDFC7F80FE121D48E4FDFCF3
:101654007FD8FE121D48E4FDFC7F05FE121D48E400
:10166400FDFC7FD9FE121D48E4FDFC7FF1FE121D36
:1016740048E4FDFC7FDAFE121D48E4FDFC7F12FE07
:10168400121D48E4FDFC7FDBFE121D48E4FDFC7FD7
:1016940030FE121D48E4FDFC7F8DFE121D48E4FD62
:1016A400FC7F14FE121D48E4FDFC7FAFFE021D48C2
:10001E000000000000000000002F0000000007009C
:10002E00070000147F147F1400242A7F2A12006216
:10003E0064081323003649552250000005030000C2
:10004E0000001C224100000041221C000014083E4A
:10005E0008140008083E0808000000A06000000810
:10006E000808080800006060000000201008040264
:10007E00003E5149453E0000427F40000042615122
:10008E004946002141454B31001814127F100027BC
:10009E0045454539003C4A4949300001710905037F
:1000AE0000364949493600064949291E00003636B0
:1000BE000000000056360000000814224100001413
:1000CE0014141414000041221408000201510906F0
:1000DE0000324959513E007C1211127C007F494971
:1000EE004936003E41414122007F4141221C007FA2
:1000FE0049494941007F09090901003E4149497AB0
:10010E00007F0808087F0000417F41000020404129
:10011E003F01007F08142241007F40404040007F95
:10012E00020C027F007F0408107F003E4141413ED9
:10013E00007F09090906003E4151215E007F091921
:10014E0029460046494949310001017F0101003F1E
:10015E004040403F001F2040201F003F4038403F9E
:10016E000063140814630007087008070061514902
:10017E00454300007F41410000552A552A55000095
:10018E0041417F0000040201020400404040404013
:10019E00000001020400002054545478007F4844AB
:1001AE00443800384444442000384444487F0038E2
:1001BE005454541800087E0901020018A4A4A47C0B
:1001CE00007F080404780000447D400000408084D5
:1001DE007D00007F102844000000417F4000007C1D
:1001EE0004180478007C0804047800384444443829
:1001FE0000FC242424180018242418FC007C080475
:10020E00040800485454542000043F444020003C4D
:10021E004040207C001C2040201C003C4030403CD4
:10022E00004428102844001CA0A0A07C0044645464
:10023E004C441414141414140000000000000000A8
:10024E000000000000000000000000F800000000A8
:10025E00000000333000000000100C06100C0600E9
:10026E00000000000000000040C07840C078400050
:10027E00043F04043F040400007088FC08300000B2
:10028E00001820FF211E0000F008F000E01800000A
:10029E0000211C031E211E0000F0088870000000C3
:1002AE001E2123241927211010160E000000000015
:1002BE000000000000000000000000E01804020032
:1002CE00000000071820400000020418E0000000A3
:1002DE000040201807000000404080F080404000A1
:1002EE000202010F01020200000000F000000000F7
:1002FE000101011F010101000000000000000000CB
:10030E0080B070000000000000000000000000003F
:10031E0000010101010101010000000000000000C8
:10032E000030300000000000000000008060180463
:10033E00006018060100000000E010080810E00040
:10034E00000F102020100F00001010F80000000009
:10035E000020203F20200000007008080888700050
:10036E0000302824222130000030088888483000D0
:10037E000018202020110E000000C02010F80000F0
:10038E0000070424243F240000F808888808080089
:10039E000019212020110E0000E01088881800009E
:1003AE00000F112020110E0000380808C838080070
:1003BE000000003F000000000070880808887000F0
:1003CE00001C222121221C0000E010080810E00071
:1003DE000000312222110F00000000C0C0000000FA
:1003EE00000000303000000000000080000000001F
:1003FE000000806000000000000080402010080017
:10040E0000010204081020004040404040404000DF
:10041E0004040404040404000008102040800000BA
:10042E000020100804020100007048080808F000BF
:10043E000000003036010000C030C828E810E0008F
:10044E000718272423140B000000C038E00000001A
:10045E00203C23020227382008F888888870000084
:10046E00203F202020110E00C03008080808380058
:10047E00071820202010080008F808080810E000CF
:10048E00203F202020100F0008F88888E808100070
:10049E00203F20202320180008F88888E808100044
:1004AE00203F200003000000C0300808083800007C
:1004BE0007182020221E020008F808000008F8087D
:1004CE00203F210101213F20000808F80808000004
:1004DE000020203F2020000000000808F808080037
:1004EE00C08080807F00000008F888C028180800AF
:1004FE00203F20012638200008F8080000000000E8
:10050E00203F20202020300008F8F800F8F80800DE
:10051E00203F003F003F200008F830C00008F808D8
:10052E00203F200007183F00E01008080810E000E8
:10053E000F10202020100F0008F808080808F000FF
:10054E00203F210101010000E01008080810E00022
:10055E000F18242438504F0008F8888888887000B7
:10056E00203F2000030C3020007088080808380057
:10057E000038202121221C00180808F8080818004D
:10058E000000203F2000000008F808000008F808CE
:10059E00001F202020201F000878880000C838087F
:1005AE00000007380E010000F80800F80008F800F7
:1005BE00033C0700073C0300081868808068180891
:1005CE0020302C03032C30200838C800C83808000F
:1005DE000000203F2000000010080808C83808005E
:1005EE002038262120201800000000FE0202020002
:1005FE000000007F40404000000C30C000000000B2
:10060E00000000010638C00000020202FE000000D9
:10061E00004040407F00000000000402020204007F
:10062E0000000000000000000000000000000000BC
:10063E0080808080808080800002020400000000A4
:10064E00000000000000000000008080808000009C
:10065E000019242222223F2008F80080800000008A
:10066E00003F112020110E0000000080808000004D
:10067E00000E112020201100000000808088F8005C
:10068E00000E112020103F2000008080808000008E
:10069E00001F222222221300008080F088888818F2
:1006AE000020203F202000000000808080808000FD
:1006BE00006B94949493600008F800808080000092
:1006CE00203F210000203F2000809898000000006D
:1006DE000020203F2020000000000080989800009D
:1006EE0000C08080807F000008F8000080808000BD
:1006FE00203F24022D302000000808F800000000E2
:10070E000020203F2020000080808080808080009C
:10071E00203F20003F20003F80800080808000002E
:10072E00203F210000203F200000808080800000BC
:10073E00001F202020201F008080008080000000ED
:10074E0080FFA12020110E0000000080808080001C
:10075E00000E112020A0FF8080808000808080000D
:10076E0020203F212000010000008080808080003A
:10077E000033242424241900008080E080800000AF
:10078E000000001F202000008080000000808000FC
:10079E00001F202020103F2080808000008080805D
:1007AE0000010E30080601008080008000808080ED
:1007BE000F300C030C300F00008080008080800012
:1007CE000020312E0E31200080808000008080803D
:1007DE0080818E70180601000080808080808000ED
:1007EE000021302C2221300000000000807C02020B
:1007FE0000000000003F404000000000FF0000002D
:10080E0000000000FF0000000002027C80000000DB
:10081E000040403F000000000006010102020404F7
:08082E000000000000000000C2
:101A7D001D04001B02001904001B02001D03001EA3
:101A8D0001001D02001B04000000001D04001B02CC
:101A9D00001904001B02001D03001E01001D0200A1
:101AAD001B0400000000FF1D04001B0200190400B0
:101ABD001B02001D03001E01001D02001B0400007F
:101ACD0000001D04001B02001904001B02001D0371
:0E1ADD00001E01001D02001B0400000000FF9F
:101A2300604A000A0000F88CF8F3F95BF9B8FA157C
:101A3300FA67FAB9FB04FB4BFB90FBCFFC10FC44A9
:101A4300FC79FCACFCDCFD09FD34FD5CFD82FDA6EC
:101A5300FDC8FDE8FE06FE22FE3DFE56FE6EFE8537
:101A6300FE9AFEAEFEC1FED3FEE4FEF4FF03430086
:091A730000000000420005000023
:101D590053890F438910758DFC758B18C28FC28EFC
:101D6900D2ABD2AFE4900005F0A3F0900000EBF005
:071D7900A3EAF0A3E9F02248
:03001B00021C566E
:101C5600C0E0C083C082C0D075D000C00690000925
:101C6600E025E0240AF582E43400F583E0FEA3E0F3
:101C76004E600E900004E0F58B900003E0F58DB207
:0C1C8600A5D006D0D0D082D083D0E032B0
:101DCE00900003E0F58BA3E0F58DD28E900007E036
:071DDE00FEA3E0FF021D9EC1
:10176F00900000E0FBA3E0FAA3E0F9EA494B700216
:10177F00801C900000E0FBA3E0FAA3E0F9900005C5
:10178F00E0FEA3E0F5828E831218D5F47003021EDB
:10179F002B900000E0FBA3E0FAA3E0F9900005E036
:1017AF00FEA3E0F5828E831218D5900009F0900009
:1017BF0006E004F07006900005E004F0900005E0EC
:1017CF00FEA3E0F5828E831218D5FF7E007C017D8B
:1017DF002C121902EF7802CEC313CE13D8F9FF9053
:1017EF000007EEF0A3EFF0900006E02402F0900067
:1017FF0005E03400F0900009E025E0240AF582E4CA
:10180F003400F583E0FCA3E0FDEC900003F0A3EDC2
:05181F00F0121DCE22B5
:051E2B00C28EC2A522D9
:101D9E00EF1FAC0670011E4C600E750E02750FEF34
:081DAE00D50FFDD50EFA80E807
:011DB600220A
:100B6A00EFD3940540037FFF2274112F2FF8E6205C
:100B7A00E5F4C2AFE64430F6D2AFAE0CEEC39F50F6
:100B8A00210E74212EF8E6F908E618BE050274FF54
:100B9A00FDED69600909E71919F7090980F31616C5
:100BAA0080DAEED39F400405810581EED39F40226F
:100BBA0074212EF808E6F9EEB50C02A9811806068A
:100BCA00E6FDED6960091919E70909F71980F31EAD
:100BDA0080D9EF2421F8E604F8EF2F0490000E9351
:090BEA00F608EF2F93F67F0022BC
:100BF300EFD3940540037FFF22EF232411F8E6305F
:100C0300E5F4C2AFE6548CF6D2AFE50CB5070A742F
:100C1300212FF8E6F581020D56502E74222FF8E6A7
:100C2300BF050274FFFD18E6F974212FF8FBE6FCFB
:100C3300E96C6008A805E7F61D1980F4A803A6056A
:100C43001FE50CB507E37F002274222FF8E6FD1899
:100C530086010F74212FF8A601088604E50CB50759
:100C630002AC81ED6C60080D09A805E6F780F4E598
:090C73000CB507DE89817F002227
:100C7C008FF0E4FFFEE50C232410F8C2A930F70D29
:100C8C007F08E6600B2DF660325030800730F1069D
:100C9C00EDF660277E020830F010C2AFE610E725B3
:100CAC000E30E20CD2AF7F048014C2AFE610E71511
:100CBC0054EC4EF6D2AFD2A9020D567F0808EF4481
:0F0CCC0083F4C2AF56C6D2AFD2A954804FFF22D5
:03000B00020CE004
:100CDB00C2AF80FE32120CDF85D00B75D008AAE0B4
:100CEB00C28CE58A24F7F58AE58C34D8F58CD28C46
:100CFB00EC2422F8E6BC050274FFC39581B4140002
:100D0B0040CE7906781016E608700BC2AFE630E1DC
:100D1B00034418F6D2AF08D9EDEA8BD03005012287
:100D2B00D50DFCC0E0C0D0C0F0C083C082C000C0F5
:100D3B0001C002C003C004C005C006C007E50C23F8
:100D4B002411F87440C2AF46F6D2AFD205E50CFFC2
:100D5B00232411F80F0808BF06047F007811E63032
:100D6B00E4F200E50CC39F5020050C7421250CF810
:100D7B00E6FDA68108E6AE0CBE050274FFCDF8E8D1
:100D8B006D60E008E6C0E080F6E50CD39F4027E5F8
:100D9B000C2422F8E6AE0CBE050274FFFD18E6CD5E
:100DAB00F8E5816D6006D0E0F61880F5E50C24219E
:100DBB00C8F6150C80D3750D05E50C232411F87FAF
:100DCB0004C2AFE610E61E30E00310E20C7F0030E9
:050DDB00E10730E30414
:100DE0007F0854F4547CC6D2AF54804207C2052217
:100DF000F6D2AFD007D006D005D004D003D002D0B1
:100E000001D000D082D083D0F0D0D0D0E0C2052273
:100E10007821A68174056006FF0876FFDFFB7F0658
:100E2000E47810F608F608DFFA7811763090000EB4
:100E3000740193C0E0E493C0E0750D05438901752A
:0D0E40008AF0758CD8D28CD2AFD2A92205D1
:0300000002196979
:0C196900787FE4F6D8FD7581260219B0E5
:1018D500BB010CE58229F582E5833AF583E02250C8
:1018E50006E92582F8E622BBFE06E92582F8E22212
:0D18F500E58229F582E5833AF583E493222C
:10190200EF8DF0A4A8F0CF8CF0A428CE8DF0A42EF9
:02191200FE22B3
:10191400BC000BBE0029EF8DF084FFADF022E4CCB7
:10192400F875F008EF2FFFEE33FEEC33FCEE9DEC80
:10193400984005FCEE9DFE0FD5F0E9E4CEFD22EDC6
:10194400F8F5F0EE8420D21CFEADF075F008EF2F10
:10195400FFED33FD4007985006D5F0F222C398FD01
:051964000FD5F0EA229E
:10197500020E10E493A3F8E493A34003F68001F26A
:1019850008DFF48029E493A3F85407240CC8C33373
:10199500C4540F4420C8834004F456800146F6DF42
:1019A500E4800B01020408102040809019F5E47EC4
:1019B500019360BCA3FF543F30E509541FFEE49337
:1019C500A360010ECF54C025E060A840B8E493A3FE
:1019D500FAE493A3F8E493A3C8C582C8CAC583CA29
:1019E500F0A3C8C582C8CAC583CADFE9DEE780BEE1
:011A7C000069
:00000001FF
