:0216750014203F
:0216770010D889
:0216790013DE7E
:02167B001582D6
:02167D0015A3B3
:1008260053746172740053657474696E6700536320
:100836006F7265000000000000000000000000006C
:1008460000000000000000000000000000000000A2
:100856000000000000000000000000000000000092
:1008660000000000008080C0C0C0E0E0E0F0F0F0D2
:10087600F0F0F0F0F0F0F0F0F0F0E0E0E0C0C0C032
:1008860080000000000000000000000000000000E2
:100896000000000000000000000000000000000052
:1008A6000000000000000000000000000000000042
:1008B6000000000000000000000000000000000032
:1008C6000000000000000000000000000000000022
:1008D6000000000000000000000000000080E0F0C2
:1008E600F8FCFEFEFFFFFFFFFF7F7F3F3F1F1F1F3E
:1008F6001F0F0F0F0F0F0F1F1F1F3F3F3F7F7FFF62
:10090600FFFFFFFEFCF8F0E0C080000000000000E2
:1009160000000000000000000000000000000000D1
:1009260000000000000000000000000000000000C1
:1009360000000000000000000000000000000000B1
:1009460000000000000000000000000000000000A1
:1009560000000000000000000080F0FCFFFFFFFF29
:10096600FFFFFF3F0F07030100000000000000002B
:100976008080808080808080000000000000000071
:100986000181C3E7FFFFFFFFFFFFFFFCF0800000D0
:100996000000000000000000000000000000000051
:1009A6000000000000000000000000000000000041
:1009B6000000000000000000000000000000000031
:1009C6000000000000000000000000000000000021
:1009D6000000000000000000E0FFFFFFFFFFFFFF38
:1009E600FF07000000000000000000F0FCFEFFFF13
:1009F600FFFFFFFFFFFFFFFFFFFF3E3C78787C7E97
:100A06007F7F7F7F7F7FFFFFFFFFFFFFFFFF0000EE
:100A160000000000000000000000000000000000D0
:100A260000000000000000000000000000000000C0
:100A360000000000000000000000000000000000B0
:100A460000000000000000000000000000000000A0
:100A56000000000000000000037FFFFFFFFFFFFF14
:100A6600FFF0000000000000000000071F7F7FFF6E
:100A7600FFFFFFFFFFFFFFFFFFFF0000000000007A
:100A8600000000000000FFFFFFFFFFFFFF7F0000E8
:100A96000000000000000000000000000000000050
:100AA6000000000000000000000000000000000040
:100AB6000000000000000000000000000000000030
:100AC6000000000000000000000000000000000020
:100AD60000000000000000000000030F3F7FFFFF42
:100AE600FFFFFFFCF8E0C0800000000000000000EF
:100AF60000010101010101010000000000000000E9
:100B06000000000000F0FFFFFF7F1F0F0300000042
:100B160000000000000000000000000000000000CF
:100B260000000000000000000000000000000000BF
:100B360000000000000000000000000000000000AF
:100B4600000000000000000000000000000000009F
:100B56000000000000000000000000000000C1E3EB
:100B6600FFFFFFFFFFFFFFFFFFFFFEFEFCFCFCF8A1
:100B7600F8F8F8F8F8F8F8F8F8F8FCFCFCFEFEFCD3
:100B8600FCFCFCF8F8FFFFFFFFFFFFFFFFFFFF1F66
:100B9600000000000000000000000000000000004F
:100BA600000000000000000000000000000000003F
:100BB600000000000000000000000000000000002F
:100BC600000000000000000000000000000000001F
:100BD6000000000000000000000000000003030306
:100BE60003010101010000000000000000000000F8
:100BF60000000001010103030303070707070F0FA6
:100C06000F0F0F0F0F0F0F0F0F0F0F070703010027
:100C160000000000000000000000000000000000CE
:100C260000000000000000000000000000000000BE
:040C360000000000BA
:0C166800011800011700011900011A0010
:1014200075A0FF120F1D7524087525FF7526087518
:10143000273A7B80E4FDFF121331E4FBFA7D327F13
:1014400080120D4C7F01120C3A7F02120C3A7F037E
:0F145000120C3A7F04120C3AE4FF120CC380FE18
:1010D800E4F52CF52DF52EF52F20B12AE52C7026F8
:1010E800FBFA7D147F80120D4C20B120120000AF56
:1010F8001AEF70047F028004E51A14FF8F1A752C0A
:1011080001120000800630B103E4F52C20B02DE573
:101118002D7029FBFA7D147F80120D4C20B023120C
:101128000000AF1AEF2401FFE433FE7C007D0312B8
:1011380011D68D1A752D01120000800630B003E417
:10114800F52D20B237E52E7033FBFA7D147F80121F
:101158000D4C20B22D120000AF1AEF700375180164
:10116800AF1AEF64017003751701AF1AEF640270CC
:1011780003751901752E01120000800630B203E4D0
:0F118800F52EE4FBFA7D327F80120D4C0210E150
:1013DE0075A0AA1214C77BFF7A087926753510E41A
:1013EE00FD7F1912139A7BFF7A08792C7535107DC3
:1013FE00037F1912139A7BFF7A0879347535107DA5
:10140E00067F1912139AE4FBFA7DC87F80120D4CE9
:02141E0080C488
:10158200AF18EF6401700E75A001FBFA7D1E7F0299
:10159200120D4C80EBE4FBFA7D647F80120D4C80CF
:0115A200DF69
:1015A300AF19EF6401700E75A002FBFA7D327F0262
:1015B300120D4C80EBE4FBFA7D647F80120D4C80AE
:0115C300DF48
:1015C400D3EF9400EE940040147D657C18ED1D70FB
:0D15D400011CED4C70F7EF1F70E61E80E368
:0115E10022E7
:1015E200EF1FAA0670011E4A600FE4FDEDC3947B53
:0915F2007480948050EA0D80F32E
:0115FB0022CD
:09167F00D290D291C291C29022D6
:07000300D290C291D29122BC
:0B163C00121500121647AF0412150033
:05164700D290C29022C8
:0714F900AC0712167F7F789B
:10150000C290E4FEEEC3940874809480501BAD0733
:10151000530580ED64807004D2918002C291EF2562
:09152000E0FFD290C2900E80DBC6
:01152900229F
:0E164C001214F9121647E4FF12163C020003B6
:0E165A001214F91216477F4012163C020003CC
:10152A00EF24B0FFEE33FEE4FDFC121545E4FDFCAA
:0B153A00FFFE1215457F10E4FDFCFED3
:10154500AB07AA06ED4C600302165AAF0312164C00
:011555002273
:02145F008F1BE1
:10146100E4F9E9FF7E00C39408748094805023124C
:10147100152AE4F51CC3E51C948074809480500FF8
:10148100AF1B7E007D017C00121545051C80E6091D
:0214910080D009
:011493002236
:10155600A907ED24B0FFE433FEE4FDFC121545E9CE
:1015660054F0C4540F7E004410FFE4FDFC121545F0
:0C157600E9540FFF7E00E4FDFC02154567
:101614007F8D121541E4FDFC7F14FE121545E4FD97
:07162400FC7FAFFE0215453B
:10162B00E4FDFC7F8D12153BE4FDFC7FAEFE021545
:01163B004569
:1014C700E4F9E9FF7E00C3940874809480502212E7
:1014D700152AE4F530C3E530948074809480500E6B
:1014E7007D017C00E4FFFE121545053080E7098089
:0114F700D123
:0114F80022D1
:10149400E4F9E9FF7E00C394087480948050231219
:1014A400152AE4F51DC3E51D948074809480500FC3
:1014B4007D017C007F017E00121545051D80E60933
:0214C40080D0D6
:0114C6002203
:040FFD008F378D3865
:10100100E4F53BF9EB24E0F53BD3EF947F74809456
:10101100804007E4F53705380538E53A6410707A01
:10102100AD38AF37121556E4F9E9C39408748094CA
:1010310080502975F010E53BA429F582E435F0F5DF
:1010410083E5822436F582E5833402F583E493FF58
:101051007E007D017C001215450980CDE53804FD37
:10106100AF37121556E4F9E9C3940874809480509F
:101071006575F010E53BA429F582E435F0F583E5CB
:1010810082243EF582E5833402F583E493FF7E00FA
:101091007D017C001215450980CDAD38AF371215A1
:1010A10056E4F9E9C3940674809480502975F006DA
:1010B100E53BA4240EF582E5F03400F583E58229B1
:1010C100F582E43583F583E493FF7E007D017C00A6
:0610D1001215450980CD57
:0110D70022F6
:0415FC008F1EA90590
:101600007F017E00AD0119ED6009AD1E7C00121155
:03161000C480F1A2
:0116130022B4
:0812B7008F0E8D0F8A108B11C0
:1012BF00E4F516F514E514C395125065C3E51295C0
:1012CF001414FD7F0A1215FCAC10AD11CFCDCFCE8B
:1012DF00CCCE1211D67C007D0A1211D68D15E516D3
:1012EF007023E51214FFE514C39F5019E515701212
:1012FF00E513C3138514F0A4250EFF85133A7B2045
:10130F008016751601E513C3138514F0A4250EFF7F
:10131F00E5152430FB85133AAD0F120FFD05148030
:01132F009429
:01133000229A
:0A139A008F308D318B328A33893495
:1013A400E4F536AB32AA33A934853682758300124C
:1013B4001197FB602485353AAD31AF30120FFD74BF
:1013C400082530F530D39478748094804007E4F590
:0913D4003005310531053680CAEF
:0113DD0022ED
:041331008F218B235A
:10133500E4F528F529E5245407700BE52413131368
:10134500541FF52B800AE524131313541F04F52BA2
:101355008D2BE52BC39524503BAD2BAF2112155694
:1013650085212AE52AC395235026AB25AA26A92738
:101375000529E529AE287002052814F5828E831209
:101385001197FF7E007D017C00121545052A80D34B
:04139500052B80BEE6
:011399002231
:100F1D00E4FDFC7FAEFE121534E4FDFC7F40FE12B5
:100F2D001545E4FDFC7FB0FE121545E4FDFC7F8107
:100F3D00FE121545E4FDFC7FFFFE121545E4FDFC98
:100F4D007FA1FE121545E4FDFC7FA6FE121545E4BA
:100F5D00FDFC7FA8FE121545E4FDFC7F3FFE12153A
:100F6D0045E4FDFC7FC8FE121545E4FDFC7FD3FE74
:100F7D00121545E4FDFCFFFE121545E4FDFC7FD581
:100F8D00FE121545E4FDFC7F80FE121545E4FDFCC7
:100F9D007FD8FE121545E4FDFC7F05FE121545E4D4
:100FAD00FDFC7FD9FE121545E4FDFC7FF1FE121507
:100FBD0045E4FDFC7FDAFE121545E4FDFC7F12FED3
:100FCD00121545E4FDFC7FDBFE121545E4FDFC7FAB
:100FDD0030FE121545E4FDFC7F8DFE121545E4FD36
:100FED00FC7F14FE121545E4FDFC7FAFFE02154596
:10000E000000000000000000002F000000000700AC
:10001E00070000147F147F1400242A7F2A12006226
:10002E0064081323003649552250000005030000D2
:10003E0000001C224100000041221C000014083E5A
:10004E0008140008083E0808000000A06000000820
:10005E000808080800006060000000201008040274
:10006E00003E5149453E0000427F40000042615132
:10007E004946002141454B31001814127F100027CC
:10008E0045454539003C4A4949300001710905038F
:10009E0000364949493600064949291E00003636C0
:1000AE000000000056360000000814224100001423
:1000BE001414141400004122140800020151090600
:1000CE0000324959513E007C1211127C007F494981
:1000DE004936003E41414122007F4141221C007FB2
:1000EE0049494941007F09090901003E4149497AC0
:1000FE00007F0808087F0000417F4100002040413A
:10010E003F01007F08142241007F40404040007FA5
:10011E00020C027F007F0408107F003E4141413EE9
:10012E00007F09090906003E4151215E007F091931
:10013E0029460046494949310001017F0101003F2E
:10014E004040403F001F2040201F003F4038403FAE
:10015E000063140814630007087008070061514912
:10016E00454300007F41410000552A552A550000A5
:10017E0041417F0000040201020400404040404023
:10018E00000001020400002054545478007F4844BB
:10019E00443800384444442000384444487F0038F2
:1001AE005454541800087E0901020018A4A4A47C1B
:1001BE00007F080404780000447D400000408084E5
:1001CE007D00007F102844000000417F4000007C2D
:1001DE0004180478007C0804047800384444443839
:1001EE0000FC242424180018242418FC007C080485
:1001FE00040800485454542000043F444020003C5E
:10020E004040207C001C2040201C003C4030403CE4
:10021E00004428102844001CA0A0A07C0044645474
:10022E004C441414141414140000000000000000B8
:10023E000000000000000000000000F800000000B8
:10024E00000000333000000000100C06100C0600F9
:10025E00000000000000000040C07840C078400060
:10026E00043F04043F040400007088FC08300000C2
:10027E00001820FF211E0000F008F000E01800001A
:10028E0000211C031E211E0000F0088870000000D3
:10029E001E2123241927211010160E000000000025
:1002AE000000000000000000000000E01804020042
:1002BE00000000071820400000020418E0000000B3
:1002CE000040201807000000404080F080404000B1
:1002DE000202010F01020200000000F00000000007
:1002EE000101011F010101000000000000000000DB
:1002FE0080B0700000000000000000000000000050
:10030E0000010101010101010000000000000000D8
:10031E000030300000000000000000008060180473
:10032E00006018060100000000E010080810E00050
:10033E00000F102020100F00001010F80000000019
:10034E000020203F20200000007008080888700060
:10035E0000302824222130000030088888483000E0
:10036E000018202020110E000000C02010F8000000
:10037E0000070424243F240000F808888808080099
:10038E000019212020110E0000E0108888180000AE
:10039E00000F112020110E0000380808C838080080
:1003AE000000003F00000000007088080888700000
:1003BE00001C222121221C0000E010080810E00081
:1003CE000000312222110F00000000C0C00000000A
:1003DE00000000303000000000000080000000002F
:1003EE000000806000000000000080402010080027
:1003FE0000010204081020004040404040404000F0
:10040E0004040404040404000008102040800000CA
:10041E000020100804020100007048080808F000CF
:10042E000000003036010000C030C828E810E0009F
:10043E000718272423140B000000C038E00000002A
:10044E00203C23020227382008F888888870000094
:10045E00203F202020110E00C03008080808380068
:10046E00071820202010080008F808080810E000DF
:10047E00203F202020100F0008F88888E808100080
:10048E00203F20202320180008F88888E808100054
:10049E00203F200003000000C0300808083800008C
:1004AE0007182020221E020008F808000008F8088D
:1004BE00203F210101213F20000808F80808000014
:1004CE000020203F2020000000000808F808080047
:1004DE00C08080807F00000008F888C028180800BF
:1004EE00203F20012638200008F8080000000000F8
:1004FE00203F20202020300008F8F800F8F80800EF
:10050E00203F003F003F200008F830C00008F808E8
:10051E00203F200007183F00E01008080810E000F8
:10052E000F10202020100F0008F808080808F0000F
:10053E00203F210101010000E01008080810E00032
:10054E000F18242438504F0008F8888888887000C7
:10055E00203F2000030C3020007088080808380067
:10056E000038202121221C00180808F8080818005D
:10057E000000203F2000000008F808000008F808DE
:10058E00001F202020201F000878880000C838088F
:10059E00000007380E010000F80800F80008F80007
:1005AE00033C0700073C03000818688080681808A1
:1005BE0020302C03032C30200838C800C83808001F
:1005CE000000203F2000000010080808C83808006E
:1005DE002038262120201800000000FE0202020012
:1005EE000000007F40404000000C30C000000000C2
:1005FE00000000010638C00000020202FE000000EA
:10060E00004040407F00000000000402020204008F
:10061E0000000000000000000000000000000000CC
:10062E0080808080808080800002020400000000B4
:10063E0000000000000000000000808080800000AC
:10064E000019242222223F2008F80080800000009A
:10065E00003F112020110E0000000080808000005D
:10066E00000E112020201100000000808088F8006C
:10067E00000E112020103F2000008080808000009E
:10068E00001F222222221300008080F08888881802
:10069E000020203F2020000000008080808080000D
:1006AE00006B94949493600008F8008080800000A2
:1006BE00203F210000203F2000809898000000007D
:1006CE000020203F202000000000008098980000AD
:1006DE0000C08080807F000008F8000080808000CD
:1006EE00203F24022D302000000808F800000000F2
:1006FE000020203F202000008080808080808000AD
:10070E00203F20003F20003F80800080808000003E
:10071E00203F210000203F200000808080800000CC
:10072E00001F202020201F008080008080000000FD
:10073E0080FFA12020110E0000000080808080002C
:10074E00000E112020A0FF8080808000808080001D
:10075E0020203F212000010000008080808080004A
:10076E000033242424241900008080E080800000BF
:10077E000000001F2020000080800000008080000C
:10078E00001F202020103F2080808000008080806D
:10079E0000010E30080601008080008000808080FD
:1007AE000F300C030C300F00008080008080800022
:1007BE000020312E0E31200080808000008080804D
:1007CE0080818E70180601000080808080808000FD
:1007DE000021302C2221300000000000807C02021B
:1007EE0000000000003F404000000000FF0000003D
:1007FE0000000000FF0000000002027C80000000EC
:10080E000040403F00000000000601010202040407
:08081E000000000000000000D2
:100C3A00EFD3940440037FFF22743D2F2FF8E62060
:100C4A00E5F4C2AFE64430F6D2AFAE0CEEC39F5025
:100C5A00210E74462EF8E6F908E618BE040274FF5F
:100C6A00FDED69600909E71919F7090980F31616F4
:100C7A0080DAEED39F400405810581EED39F40229E
:100C8A0074462EF808E6F9EEB50C02A98118060694
:100C9A00E6FDED6960091919E70909F71980F31EDC
:100CAA0080D9EF2446F8E604F8EF2F0490167593DE
:090CBA00F608EF2F93F67F0022EB
:100CC300EFD3940440037FFF22EF23243DF8E63063
:100CD300E5F4C2AFE6548CF6D2AFE50CB5070A745F
:100CE300462FF8E6F581020E26502E74472FF8E6BC
:100CF300BF040274FFFD18E6F974462FF8FBE6FC07
:100D0300E96C6008A805E7F61D1980F4A803A60599
:100D13001FE50CB507E37F002274472FF8E6FD18A3
:100D230086010F74462FF8A601088604E50CB50763
:100D330002AC81ED6C60080D09A805E6F780F4E5C7
:090D43000CB507DE89817F002256
:100D4C008FF0E4FFFEE50C23243CF8C2A930F70D2C
:100D5C007F08E6600B2DF660325030800730F106CC
:100D6C00EDF660277E020830F010C2AFE610E725E2
:100D7C000E30E20CD2AF7F048014C2AFE610E71540
:100D8C0054EC4EF6D2AFD2A9020E267F0808EF44DF
:0F0D9C0083F4C2AF56C6D2AFD2A954804FFF2204
:03000B00020DB033
:100DAB00C2AF80FE32120DAF85D00B75D008AAE012
:100DBB00C28CE58A24F7F58AE58C34D8F58CD28C75
:100DCB00EC2447F8E6BC040274FFC39581B414000D
:100DDB0040CE7905783C16E608700BC2AFE630E1E1
:100DEB00034418F6D2AF08D9EDEA8BD030000122BC
:100DFB00D50DFCC0E0C0D0C0F0C083C082C000C025
:100E0B0001C002C003C004C005C006C007E50C2327
:100E1B00243DF87440C2AF46F6D2AFD200E50CFFCA
:100E2B0023243DF80F0808BF05047F00783DE6300A
:100E3B00E4F200E50CC39F5020050C7446250CF81A
:100E4B00E6FDA68108E6AE0CBE040274FFCDF8E801
:100E5B006D60E008E6C0E080F6E50CD39F4027E527
:100E6B000C2447F8E6AE0CBE040274FFFD18E6CD69
:100E7B00F8E5816D6006D0E0F61880F5E50C2446A8
:100E8B00C8F6150C80D3750D05E50C23243DF87FB2
:100E9B0004C2AFE610E61E30E00310E20C7F003018
:050EAB00E10730E30443
:100EB0007F0854F4547CC6D2AF54804207C200224B
:100EC000F6D2AFD007D006D005D004D003D002D0E0
:100ED00001D000D082D083D0F0D0D0D0E0C20022A8
:100EE0007846A68174046006FF0876FFDFFB7F0565
:100EF000E4783CF608F608DFFA783D76309016750F
:100F0000740193C0E0E493C0E0750D054389017559
:0D0F10008AF0758CD8D28CD2AFD2A9220401
:0300000002122BBE
:0C122B00787FE4F6D8FD75814A0212724B
:10119700BB010CE58229F582E5833AF583E022500D
:1011A70006E92582F8E622BBFE06E92582F8E22257
:0D11B700E58229F582E5833AF583E4932271
:1011C400EF8DF0A4A8F0CF8CF0A428CE8DF0A42E3F
:0211D400FE22F9
:1011D600BC000BBE0029EF8DF084FFADF022E4CCFD
:1011E600F875F008EF2FFFEE33FEEC33FCEE9DECC6
:1011F600984005FCEE9DFE0FD5F0E9E4CEFD22ED0C
:10120600F8F5F0EE8420D21CFEADF075F008EF2F55
:10121600FFED33FD4007985006D5F0F222C398FD46
:051226000FD5F0EA22E3
:10123700020EE0E493A3F8E493A34003F68001F2DF
:1012470008DFF48029E493A3F85407240CC8C333B8
:10125700C4540F4420C8834004F456800146F6DF87
:10126700E4800B0102040810204080901668E47E99
:10127700019360BCA3FF543F30E509541FFEE4937C
:10128700A360010ECF54C025E060A840B8E493A343
:10129700FAE493A3F8E493A3C8C582C8CAC583CA6E
:1012A700F0A3C8C582C8CAC583CADFE9DEE780BE26
:011674000075
:00000001FF
