:0219F40017CA10
:0219F6000F5A86
:0219F8001323B7
:0219FA001707CD
:0219FC0016A72C
:0219FE0013F6DE
:021A0000194388
:1008260053746172740053657474696E6700536320
:100836006F7265003E3E0020200067616D6573742F
:10084600617465206E6F7700747261636B31203D51
:100856002031303030303000747261636B32203DAD
:100866002031303030303000510073706565643AA5
:100876000000000000000000000000000000000072
:100886000000000000000000000000000000000062
:100896000000000000000000000000000000000052
:1008A60000008080C0C0C0E0E0E0F0F0F0F0F0F0C2
:1008B600F0F0F0F0F0F0F0E0E0E0C0C0C080000042
:1008C6000000000000000000000000000000000022
:1008D6000000000000000000000000000000000012
:1008E6000000000000000000000000000000000002
:1008F60000000000000000000000000000000000F2
:1009060000000000000000000000000000000000E1
:100916000000000000000000000080E0F0F8FCFE8F
:10092600FEFFFFFFFFFF7F7F3F3F1F1F1F1F0F0FB2
:100936000F0F0F0F1F1F1F3F3F3F7F7FFFFFFFFF61
:10094600FEFCF8F0E0C0800000000000000000009F
:100956000000000000000000000000000000000091
:100966000000000000000000000000000000000081
:100976000000000000000000000000000000000071
:100986000000000000000000000000000000000061
:1009960000000000000080F0FCFFFFFFFFFFFFFFEC
:1009A6003F0F070301000000000000000080808068
:1009B600808080808000000000000000000181C36C
:1009C600E7FFFFFFFFFFFFFFFCF0800000000000D5
:1009D6000000000000000000000000000000000011
:1009E6000000000000000000000000000000000001
:1009F60000000000000000000000000000000000F1
:100A060000000000000000000000000000000000E0
:100A16000000000000E0FFFFFFFFFFFFFFFF0700F1
:100A26000000000000000000F0FCFEFFFFFFFFFFDB
:100A3600FFFFFFFFFFFFFF3E3C78787C7E7F7F7FD6
:100A46007F7F7FFFFFFFFFFFFFFFFF00000000002B
:100A56000000000000000000000000000000000090
:100A66000000000000000000000000000000000080
:100A76000000000000000000000000000000000070
:100A86000000000000000000000000000000000060
:100A96000000000000037FFFFFFFFFFFFFFFF000E5
:100AA6000000000000000000071F7F7FFFFFFFFF20
:100AB600FFFFFFFFFFFFFF00000000000000000037
:100AC600000000FFFFFFFFFFFFFF7F0000000000A8
:100AD6000000000000000000000000000000000010
:100AE6000000000000000000000000000000000000
:100AF60000000000000000000000000000000000F0
:100B060000000000000000000000000000000000DF
:100B160000000000000000030F3F7FFFFFFFFFFF04
:100B2600FCF8E0C0800000000000000000000101A9
:100B360001010101010000000000000000000000AA
:100B46000000F0FFFFFF7F1F0F0300000000000002
:100B5600000000000000000000000000000000008F
:100B6600000000000000000000000000000000007F
:100B7600000000000000000000000000000000006F
:100B8600000000000000000000000000000000005F
:100B96000000000000000000000000C1E3FFFFFFAE
:100BA600FFFFFFFFFFFFFFFEFEFCFCFCF8F8F8F876
:100BB600F8F8F8F8F8F8F8FCFCFCFEFEFCFCFCFC87
:100BC600F8F8FFFFFFFFFFFFFFFFFFFF1F0000001A
:100BD600000000000000000000000000000000000F
:100BE60000000000000000000000000000000000FF
:100BF60000000000000000000000000000000000EF
:100C060000000000000000000000000000000000DE
:100C160000000000000000000000030303030101C0
:100C260001010000000000000000000000000000BC
:100C360001010103030303070707070F0F0F0F0F38
:100C46000F0F0F0F0F0F0F0F070703010000000014
:100C5600000000000000000000000000000000008E
:100C6600000000000000000000000000000000007E
:010C7600007D
:0F19B800C101C100C102011A0101180401170188
:1017CA0075A0FF1211687524087525FF752608751E
:1017DA0027777B80E4FDFF12163EE4FBFA7D327F19
:1017EA0080120D897F01120C777F02120C777F0617
:0817FA00120C77E4FF020D0060
:100F5A003001030210423000030210423002030241
:100F6A00104220B137E4FBFA7D037F80120D8920FD
:100F7A00B12AE4FBFA7D0A7F80120D89151AAF1A8D
:100F8A00C3EF9401748094805003751A0320B10C46
:100F9A00E4FBFA7D017F80120D8980F120B037E4ED
:100FAA00FBFA7D037F80120D8920B02AE4FBFA7DCB
:100FBA000A7F80120D89051AAF1AD3EF9403748041
:100FCA0094804003751A0120B00CE4FBFA7D017F7E
:100FDA0080120D8980F120B255E4FBFA7D037F80EF
:100FEA00120D8920B248E4FBFA7D0A7F80120D892E
:100FFA00E51A24FE601214601A24027022D2017FBC
:10100A0002120D007F038014D2007F02120D007FAE
:10101A00058009D2027F02120D007F04120C77208C
:10102A00B20CE4FBFA7D017F80120D8980F1E4FBAA
:10103A00FA7D0A7F80120D8930013220B22FE4FB3B
:10104A00FA7D037F80120D8920B216E4FBFA7D0A2D
:10105A00800820B20CE4FBFA7D017F80120D8980A2
:10106A00F1C201E4FBFA7D037F80120D892000039F
:10107A0002112D20B137E4FBFA7D037F80120D891E
:10108A0020B12AE4FBFA7D0A7F80120D891518AF78
:10109A0018C3EF940274809480500375180120B12C
:1010AA000CE4FBFA7D017F80120D8980F120B037B4
:1010BA00E4FBFA7D037F80120D8920B02AE4FBFA53
:1010CA007D0A7F80120D890518AF18D3EF94077433
:1010DA00809480400375180820B00CE4FBFA7D0167
:1010EA007F80120D8980F120B22FE4FBFA7D037F05
:1010FA0080120D8920B216E4FBFA7D0A800820B21C
:10110A000CE4FBFA7D017F80120D8980F1C200E4B4
:10111A00FBFA7D037F80120D89E4FBFA7D0A7F804A
:10112A00120D89200203020F5A30B203020F5AE449
:10113A00FBFA7D037F80120D89E4FBFA7D0A8008A1
:10114A0020B20CE4FBFA7D017F80120D8980F1C286
:0E115A0002E4FBFA7D037F80120D89020F5A1A
:1013230012186AE4FBFA7D0A7F80120D8975A0AA60
:101333002001F02002ED2000EA7BFF7A0879267570
:101343005510E4FD7F1912174C7BFF7A08792C7531
:1013530055107D037F1912174C7BFF7A087934757A
:1013630055107D067F1912174CE51A24FE601F14D1
:101373006044240270707BFF7A08793A755510E453
:10138300FD7F0312174C7BFF7A08793D80167BFFA4
:101393007A08793D755510E4FD7F0312174C7BFFE6
:1013A3007A08793A7555107D037F0312174C7BFF3A
:1013B3007A08793D80267BFF7A08793D755510E4DC
:1013C300FD7F0312174C7BFF7A08793D7555107D1D
:1013D300037F0312174C7BFF7A08793A7555107D0A
:1013E300067F0312174CE4FBFA7D0A7F80120D89F6
:0313F300021333AF
:1017070030013612186A75A0013001127BFF7A0882
:1017170079407555107D037F0312174C80EB121823
:101727006AE4FBFA7D647F80120D89C2017F021291
:101737000C777F03120D0080C7E4FBFA7D647F807E
:05174700120D8980BBBA
:1016A70030025112116812186A75A00230022C7BA1
:1016B700FF7A08794E7555107D037F0312174C7B0F
:1016C700FF7A08795E7555107D067F0312174CE483
:1016D700FBFA7D147F80120D8980D1E4FBFA7D64CB
:1016E7007F80120D8912186A7F02120C777F04120D
:1016F7000D0080ACE4FBFA7D647F80120D8980A029
:1013F60020000302149712116812186AE4FBFA7DA2
:101406000A7F80120D8975A0037BFF7A08796E75B5
:101416005510E4FD7F7812174C30005B851819E4EF
:10142600FBFA7D0A7F80120D89E51975F00A84E5BD
:10143600F02430F51BE4F51CFBFA7D0A7F80120DC3
:10144600897BFF7A0879707555107D037F03121723
:101456004CE4FBFA7D0A7F80120D897B007A0079C5
:101466001B7555107D037F3C12174CE4FBFA7D1467
:101476007F80120D8980A2E4FBFA7D647F80120DC5
:101486008912186A7F02120C777F05120D0002136B
:0E149600F6E4FBFA7D647F80120D890213F6E6
:1019430030010CE4FBFA7D647F80120D8980F1E4A1
:0B195300FBFA7D647F80120D8980E5A7
:10192500D3EF9400EE940040147D657C18ED1D7096
:0D193500011CED4C70F7EF1F70E61E80E303
:011942002282
:10195E00EF1FAA0670011E4A600FE4FDEDC3947BD3
:09196E007480948050EA0D80F3AE
:01197700224D
:091A0200D290D291C291C290224F
:07000300D290C291D29122BC
:0B19C8001218A31219D3AF041218A3C9
:0519D300D290C2902239
:07189C00AC07121A027F786D
:1018A300C290E4FEEEC3940874809480501BAD078D
:1018B300530580ED64807004D2918002C291EF25BC
:0918C300E0FFD290C2900E80DB20
:0118CC0022F9
:0E19D80012189C1219D3E4FF1219C802000362
:0E19E60012189C1219D37F401219C802000378
:1018CD00EF24B0FFEE33FEE4FDFC1218E8E4FDFC5E
:0B18DD00FFFE1218E87F10E4FDFCFE87
:1018E800AB07AA06ED4C60030219E6AF031219D83C
:0118F80022CD
:021802008F1D38
:10180400E4F9E9FF7E00C3940874809480502312A5
:1018140018CDE4F51EC3E51E948074809480500FA7
:10182400AF1D7E007D017C001218E8051E80E609CC
:0218340080D062
:01183600228F
:1018F900A907ED24B0FFE433FEE4FDFC1218E8E982
:1019090054F0C4540F7E004410FFE4FDFC1218E8A3
:0C191900E9540FFF7E00E4FDFC0218E81A
:101990007F8D1218E4E4FDFC7F14FE1218E8E4FDCC
:0719A000FC7FAFFE0218E816
:1019A700E4FDFC7F8D1218DEE4FDFC7FAEFE02181D
:0119B700E847
:10186A00E4F9E9FF7E00C394087480948050221240
:10187A0018CDE4F550C3E550948074809480500EDE
:10188A007D017C00E4FFFE1218E8055080E709801C
:01189A00D17C
:01189B00222A
:10183700E4F9E9FF7E00C394087480948050231272
:1018470018CDE4F51FC3E51F948074809480500F72
:101857007D017C007F017E001218E8051F80E609E4
:0218670080D02F
:01186900225C
:041248008F578D58D7
:10124C00E4F55BF9EB24E0F55BD3EF947F748094C9
:10125C00804007E4F55705580558E55A6410707A34
:10126C00AD58AF571218F9E4F9E9C3940874809497
:10127C0080502975F010E55BA429F582E435F0F572
:10128C0083E5822436F582E5833402F583E493FF0B
:10129C007E007D017C001218E80980CDE55804FD24
:1012AC00AF571218F9E4F9E9C3940874809480508C
:1012BC006575F010E55BA429F582E435F0F583E55E
:1012CC0082243EF582E5833402F583E493FF7E00AD
:1012DC007D017C001218E80980CDAD58AF5712186B
:1012EC00F9E4F9E9C3940674809480502975F006EA
:1012FC00E55BA4240EF582E5F03400F583E5822944
:10130C00F582E43583F583E493FF7E007D017C0058
:06131C001218E80980CD63
:0113220022A8
:041978008F5CA905D2
:10197C007F017E00AD0119ED6009AD5C7C00121495
:03198C00D180F116
:01198F002235
:0815C4008F0E8D0F8A108B11B0
:1015CC00E4F516F514E514C395125065C3E51295B0
:1015DC001414FD7F0A121978AC10AD11CFCDCFCEFB
:1015EC00CCCE1214E37C007D0A1214E38D15E516A3
:1015FC007023E51214FFE514C39F5019E515701202
:10160C00E513C3138514F0A4250EFF85135A7B2014
:10161C008016751601E513C3138514F0A4250EFF6F
:10162C00E5152430FB85135AAD0F121248051480B2
:01163C009419
:01163D00228A
:0A174C008F508D518B528A5389543F
:10175600E4F556AB52AA53A95485568275830012F6
:1017660014A4FB602485555AAD51AF50121248742B
:10177600082550F550D39478748094804007E4F59A
:091786005005510551055680CAB9
:01178F002237
:04163E008F218B234A
:10164200E4F528F529E5245407700BE52413131358
:10165200541FF52B800AE524131313541F04F52B92
:101662008D2BE52BC39524503BAD2BAF211218F9DE
:1016720085212AE52AC395235026AB25AA26A92728
:101682000529E529AE287002052814F5828E8312F9
:1016920014A4FF7E007D017C001218E8052A80D385
:0416A200052B80BED6
:0116A6002221
:10116800E4FDFC7FAEFE1218D7E4FDFC7F40FE12C2
:1011780018E8E4FDFC7FB0FE1218E8E4FDFC7F816E
:10118800FE1218E8E4FDFC7FFFFE1218E8E4FDFCFF
:101198007FA1FE1218E8E4FDFC7FA6FE1218E8E421
:1011A800FDFC7FA8FE1218E8E4FDFC7F3FFE121844
:1011B800E8E4FDFC7FC8FE1218E8E4FDFC7FD3FEDE
:1011C8001218E8E4FDFCFFFE1218E8E4FDFC7FD5E8
:1011D800FE1218E8E4FDFC7F80FE1218E8E4FDFC2E
:1011E8007FD8FE1218E8E4FDFC7F05FE1218E8E43B
:1011F800FDFC7FD9FE1218E8E4FDFC7FF1FE121811
:10120800E8E4FDFC7FDAFE1218E8E4FDFC7F12FE3C
:101218001218E8E4FDFC7FDBFE1218E8E4FDFC7F11
:1012280030FE1218E8E4FDFC7F8DFE1218E8E4FD9C
:10123800FC7F14FE1218E8E4FDFC7FAFFE0218E8FC
:10179000AB05AA077F2D1219D8E4FF1219D8EA6405
:1017A00001700DFF1219D87F011219D87F07800D23
:1017B0007F031219D8EB14FF1219D87F051219D81C
:0A17C000E4FF1219D87F7F0219D848
:10000E000000000000000000002F000000000700AC
:10001E00070000147F147F1400242A7F2A12006226
:10002E0064081323003649552250000005030000D2
:10003E0000001C224100000041221C000014083E5A
:10004E0008140008083E0808000000A06000000820
:10005E000808080800006060000000201008040274
:10006E00003E5149453E0000427F40000042615132
:10007E004946002141454B31001814127F100027CC
:10008E0045454539003C4A4949300001710905038F
:10009E0000364949493600064949291E00003636C0
:1000AE000000000056360000000814224100001423
:1000BE001414141400004122140800020151090600
:1000CE0000324959513E007C1211127C007F494981
:1000DE004936003E41414122007F4141221C007FB2
:1000EE0049494941007F09090901003E4149497AC0
:1000FE00007F0808087F0000417F4100002040413A
:10010E003F01007F08142241007F40404040007FA5
:10011E00020C027F007F0408107F003E4141413EE9
:10012E00007F09090906003E4151215E007F091931
:10013E0029460046494949310001017F0101003F2E
:10014E004040403F001F2040201F003F4038403FAE
:10015E000063140814630007087008070061514912
:10016E00454300007F41410000552A552A550000A5
:10017E0041417F0000040201020400404040404023
:10018E00000001020400002054545478007F4844BB
:10019E00443800384444442000384444487F0038F2
:1001AE005454541800087E0901020018A4A4A47C1B
:1001BE00007F080404780000447D400000408084E5
:1001CE007D00007F102844000000417F4000007C2D
:1001DE0004180478007C0804047800384444443839
:1001EE0000FC242424180018242418FC007C080485
:1001FE00040800485454542000043F444020003C5E
:10020E004040207C001C2040201C003C4030403CE4
:10021E00004428102844001CA0A0A07C0044645474
:10022E004C441414141414140000000000000000B8
:10023E000000000000000000000000F800000000B8
:10024E00000000333000000000100C06100C0600F9
:10025E00000000000000000040C07840C078400060
:10026E00043F04043F040400007088FC08300000C2
:10027E00001820FF211E0000F008F000E01800001A
:10028E0000211C031E211E0000F0088870000000D3
:10029E001E2123241927211010160E000000000025
:1002AE000000000000000000000000E01804020042
:1002BE00000000071820400000020418E0000000B3
:1002CE000040201807000000404080F080404000B1
:1002DE000202010F01020200000000F00000000007
:1002EE000101011F010101000000000000000000DB
:1002FE0080B0700000000000000000000000000050
:10030E0000010101010101010000000000000000D8
:10031E000030300000000000000000008060180473
:10032E00006018060100000000E010080810E00050
:10033E00000F102020100F00001010F80000000019
:10034E000020203F20200000007008080888700060
:10035E0000302824222130000030088888483000E0
:10036E000018202020110E000000C02010F8000000
:10037E0000070424243F240000F808888808080099
:10038E000019212020110E0000E0108888180000AE
:10039E00000F112020110E0000380808C838080080
:1003AE000000003F00000000007088080888700000
:1003BE00001C222121221C0000E010080810E00081
:1003CE000000312222110F00000000C0C00000000A
:1003DE00000000303000000000000080000000002F
:1003EE000000806000000000000080402010080027
:1003FE0000010204081020004040404040404000F0
:10040E0004040404040404000008102040800000CA
:10041E000020100804020100007048080808F000CF
:10042E000000003036010000C030C828E810E0009F
:10043E000718272423140B000000C038E00000002A
:10044E00203C23020227382008F888888870000094
:10045E00203F202020110E00C03008080808380068
:10046E00071820202010080008F808080810E000DF
:10047E00203F202020100F0008F88888E808100080
:10048E00203F20202320180008F88888E808100054
:10049E00203F200003000000C0300808083800008C
:1004AE0007182020221E020008F808000008F8088D
:1004BE00203F210101213F20000808F80808000014
:1004CE000020203F2020000000000808F808080047
:1004DE00C08080807F00000008F888C028180800BF
:1004EE00203F20012638200008F8080000000000F8
:1004FE00203F20202020300008F8F800F8F80800EF
:10050E00203F003F003F200008F830C00008F808E8
:10051E00203F200007183F00E01008080810E000F8
:10052E000F10202020100F0008F808080808F0000F
:10053E00203F210101010000E01008080810E00032
:10054E000F18242438504F0008F8888888887000C7
:10055E00203F2000030C3020007088080808380067
:10056E000038202121221C00180808F8080818005D
:10057E000000203F2000000008F808000008F808DE
:10058E00001F202020201F000878880000C838088F
:10059E00000007380E010000F80800F80008F80007
:1005AE00033C0700073C03000818688080681808A1
:1005BE0020302C03032C30200838C800C83808001F
:1005CE000000203F2000000010080808C83808006E
:1005DE002038262120201800000000FE0202020012
:1005EE000000007F40404000000C30C000000000C2
:1005FE00000000010638C00000020202FE000000EA
:10060E00004040407F00000000000402020204008F
:10061E0000000000000000000000000000000000CC
:10062E0080808080808080800002020400000000B4
:10063E0000000000000000000000808080800000AC
:10064E000019242222223F2008F80080800000009A
:10065E00003F112020110E0000000080808000005D
:10066E00000E112020201100000000808088F8006C
:10067E00000E112020103F2000008080808000009E
:10068E00001F222222221300008080F08888881802
:10069E000020203F2020000000008080808080000D
:1006AE00006B94949493600008F8008080800000A2
:1006BE00203F210000203F2000809898000000007D
:1006CE000020203F202000000000008098980000AD
:1006DE0000C08080807F000008F8000080808000CD
:1006EE00203F24022D302000000808F800000000F2
:1006FE000020203F202000008080808080808000AD
:10070E00203F20003F20003F80800080808000003E
:10071E00203F210000203F200000808080800000CC
:10072E00001F202020201F008080008080000000FD
:10073E0080FFA12020110E0000000080808080002C
:10074E00000E112020A0FF8080808000808080001D
:10075E0020203F212000010000008080808080004A
:10076E000033242424241900008080E080800000BF
:10077E000000001F2020000080800000008080000C
:10078E00001F202020103F2080808000008080806D
:10079E0000010E30080601008080008000808080FD
:1007AE000F300C030C300F00008080008080800022
:1007BE000020312E0E31200080808000008080804D
:1007CE0080818E70180601000080808080808000FD
:1007DE000021302C2221300000000000807C02021B
:1007EE0000000000003F404000000000FF0000003D
:1007FE0000000000FF0000000002027C80000000EC
:10080E000040403F00000000000601010202040407
:08081E000000000000000000D2
:100C7700EFD3940640037FFF22745E2F2FF8E62000
:100C8700E5F4C2AFE64430F6D2AFAE0CEEC39F50E8
:100C9700210E746B2EF8E6F908E618BE060274FFFB
:100CA700FDED69600909E71919F7090980F31616B7
:100CB70080DAEED39F400405810581EED39F402261
:100CC700746B2EF808E6F9EEB50C02A98118060632
:100CD700E6FDED6960091919E70909F71980F31E9F
:100CE70080D9EF246BF8E604F8EF2F049019F493FA
:090CF700F608EF2F93F67F0022AE
:100D0000EFD3940640037FFF22EF23245EF8E63002
:100D1000E5F4C2AFE6548CF6D2AFE50CB5070A7421
:100D20006B2FF8E6F581020E63502E746C2FF8E6F7
:100D3000BF060274FFFD18E6F9746B2FF8FBE6FCA2
:100D4000E96C6008A805E7F61D1980F4A803A6055C
:100D50001FE50CB507E37F0022746C2FF8E6FD1841
:100D600086010F746B2FF8A601088604E50CB50701
:100D700002AC81ED6C60080D09A805E6F780F4E58A
:090D80000CB507DE89817F002219
:100D89008FF0E4FFFEE50C23245DF8C2A930F70DCE
:100D99007F08E6600B2DF660325030800730F1068F
:100DA900EDF660277E020830F010C2AFE610E725A5
:100DB9000E30E20CD2AF7F048014C2AFE610E71503
:100DC90054EC4EF6D2AFD2A9020E637F0808EF4465
:0F0DD90083F4C2AF56C6D2AFD2A954804FFF22C7
:03000B00020DEDF6
:100DE800C2AF80FE32120DEC85D00B75D008AAE098
:100DF800C28CE58A24F7F58AE58C34D8F58CD28C38
:100E0800EC246CF8E6BC060274FFC39581B41400A8
:100E180040CE7907785D16E608700BC2AFE630E180
:100E2800034418F6D2AF08D9EDEA8BD0300301227B
:100E3800D50DFCC0E0C0D0C0F0C083C082C000C0E7
:100E480001C002C003C004C005C006C007E50C23EA
:100E5800245EF87440C2AF46F6D2AFD203E50CFF69
:100E680023245EF80F0808BF07047F00785EE63089
:100E7800E4F200E50CC39F5020050C746B250CF8B8
:100E8800E6FDA68108E6AE0CBE060274FFCDF8E8C2
:100E98006D60E008E6C0E080F6E50CD39F4027E5EA
:100EA8000C246CF8E6AE0CBE060274FFFD18E6CD05
:100EB800F8E5816D6006D0E0F61880F5E50C246B46
:100EC800C8F6150C80D3750D05E50C23245EF87F54
:100ED80004C2AFE610E61E30E00310E20C7F0030DB
:050EE800E10730E30406
:100EED007F0854F4547CC6D2AF54804207C203220B
:100EFD00F6D2AFD007D006D005D004D003D002D0A3
:100F0D0001D000D082D083D0F0D0D0D0E0C2032267
:100F1D00786BA68174066006FF0876FFDFFB7F07FE
:100F2D00E4785DF608F608DFFA785E76309019F40D
:100F3D00740193C0E0E493C0E0750D05438901751C
:0D0F4D008AF0758CD8D28CD2AFD2A92206C2
:03000000021538AE
:0C153800787FE4F6D8FD75817102157F04
:1014A400BB010CE58229F582E5833AF583E02250FD
:1014B40006E92582F8E622BBFE06E92582F8E22247
:0D14C400E58229F582E5833AF583E4932261
:1014D100EF8DF0A4A8F0CF8CF0A428CE8DF0A42E2F
:0214E100FE22E9
:1014E300BC000BBE0029EF8DF084FFADF022E4CCED
:1014F300F875F008EF2FFFEE33FEEC33FCEE9DECB6
:10150300984005FCEE9DFE0FD5F0E9E4CEFD22EDFB
:10151300F8F5F0EE8420D21CFEADF075F008EF2F45
:10152300FFED33FD4007985006D5F0F222C398FD36
:051533000FD5F0EA22D3
:10154400020F1DE493A3F8E493A34003F68001F291
:1015540008DFF48029E493A3F85407240CC8C333A8
:10156400C4540F4420C8834004F456800146F6DF77
:10157400E4800B01020408102040809019B8E47E36
:10158400019360BCA3FF543F30E509541FFEE4936C
:10159400A360010ECF54C025E060A840B8E493A333
:1015A400FAE493A3F8E493A3C8C582C8CAC583CA5E
:1015B400F0A3C8C582C8CAC583CADFE9DEE780BE16
:0119C700001F
:00000001FF
