:02000E001C21B3
:020010000F8E51
:0200120013DEFB
:020014001B16B9
:020016001A4C82
:0200180011D8FD
:1008360053746172740053657474696E6700536310
:100846006F7265003E3E0020200067616D6573741F
:10085600617465206E6F7700747261636B31203D41
:100866002031303030303000747261636B32203D9D
:10087600203130303030300073706565643A0024C2
:10088600005065726665637400476F6F64202020B0
:10089600004261642020202000200051004D697331
:1008A600732020200000000000000000000000006F
:1008B6000000000000000000000000000000000032
:1008C6000000000000000000000000000000000022
:1008D6000000000000008080C0C0C0E0E0E0F0F052
:1008E600F0F0F0F0F0F0F0F0F0F0F0E0E0E0C0C092
:1008F600C0800000000000000000000000000000B2
:1009060000000000000000000000000000000000E1
:1009160000000000000000000000000000000000D1
:1009260000000000000000000000000000000000C1
:1009360000000000000000000000000000000000B1
:10094600000000000000000000000000000080E041
:10095600F0F8FCFEFEFFFFFFFFFF7F7F3F3F1F1FFC
:100966001F1F0F0F0F0F0F0F1F1F1F3F3F3F7F7FD1
:10097600FFFFFFFFFEFCF8F0E0C080000000000073
:100986000000000000000000000000000000000061
:100996000000000000000000000000000000000051
:1009A6000000000000000000000000000000000041
:1009B6000000000000000000000000000000000031
:1009C6000000000000000000000080F0FCFFFFFFB8
:1009D600FFFFFFFF3F0F07030100000000000000BC
:1009E6000080808080808080800000000000000001
:1009F600000181C3E7FFFFFFFFFFFFFFFCF0800060
:100A060000000000000000000000000000000000E0
:100A160000000000000000000000000000000000D0
:100A260000000000000000000000000000000000C0
:100A360000000000000000000000000000000000B0
:100A4600000000000000000000E0FFFFFFFFFFFFC6
:100A5600FFFF07000000000000000000F0FCFEFFA2
:100A6600FFFFFFFFFFFFFFFFFFFFFF3E3C78787CA5
:100A76007E7F7F7F7F7F7FFFFFFFFFFFFFFFFF0000
:100A86000000000000000000000000000000000060
:100A96000000000000000000000000000000000050
:100AA6000000000000000000000000000000000040
:100AB6000000000000000000000000000000000030
:100AC600000000000000000000037FFFFFFFFFFFA3
:100AD600FFFFF0000000000000000000071F7F7FFE
:100AE600FFFFFFFFFFFFFFFFFFFFFF00000000000B
:100AF60000000000000000FFFFFFFFFFFFFF7F0078
:100B060000000000000000000000000000000000DF
:100B160000000000000000000000000000000000CF
:100B260000000000000000000000000000000000BF
:100B360000000000000000000000000000000000AF
:100B46000000000000000000000000030F3F7FFFD0
:100B5600FFFFFFFFFCF8E0C080000000000000007F
:100B66000000010101010101010000000000000078
:100B7600000000000000F0FFFFFF7F1F0F030000D2
:100B8600000000000000000000000000000000005F
:100B9600000000000000000000000000000000004F
:100BA600000000000000000000000000000000003F
:100BB600000000000000000000000000000000002F
:100BC600000000000000000000000000000000C15E
:100BD600E3FFFFFFFFFFFFFFFFFFFFFEFEFCFCFC46
:100BE600F8F8F8F8F8F8F8F8F8F8F8FCFCFCFEFE67
:100BF600FCFCFCFCF8F8FFFFFFFFFFFFFFFFFFFF19
:100C06001F000000000000000000000000000000BF
:100C160000000000000000000000000000000000CE
:100C260000000000000000000000000000000000BE
:100C360000000000000000000000000000000000AE
:100C46000000000000000000000000000000030398
:100C56000303010101010000000000000000000084
:100C66000000000001010103030303070707070F44
:100C76000F0F0F0F0F0F0F0F0F0F0F0F07070301A8
:100C8600000000000000000000000000000000005E
:100C9600000000000000000000000000000000004E
:050CA600000000000049
:1019D600C101C100C10241009B0141009E77410047
:0C19E6009904C10341009F0041009801DA
:101C210075A0FF1215BD9000577408F0A374FFF062
:101C3100A37408F0A374ABF07B80E4FDFF1218B726
:101C4100E4FBFA7D327F80120DBD7F01120CAB7F68
:091C510002120CABE4FF020D3499
:100F8E0030010302107C30000302107C3002030299
:100F9E00107C20B139E4FBFA7D037F80120DBD2059
:100FAE00B12CE4FBFA7D0A7F80120DBD90009BE010
:100FBE0014F0E0C394017480948050037403F02005
:100FCE00B10CE4FBFA7D017F80120DBD80F120B0E3
:100FDE0039E4FBFA7D037F80120DBD20B02CE4FBBB
:100FEE00FA7D0A7F80120DBD90009BE004F0E0D3E5
:100FFE0094037480948040037401F020B00CE4FBE1
:10100E00FA7D017F80120DBD80F120B257E4FBFA0C
:10101E007D037F80120DBD20B24AE4FBFA7D0A7F6C
:10102E0080120DBD90009BE024FE601214601A2405
:10103E00027022D2017F02120D347F038014D2007F
:10104E007F02120D347F058009D2027F02120D3409
:10105E007F04120CAB20B20CE4FBFA7D017F8012F0
:10106E000DBD80F1E4FBFA7D0A7F80120DBD3001CB
:10107E003220B22FE4FBFA7D037F80120DBD20B229
:10108E0016E4FBFA7D0A800820B20CE4FBFA7D011F
:10109E007F80120DBD80F1C201E4FBFA7D037F80DB
:1010AE00120DBD20000302119D20B139E4FBFA7D23
:1010BE00037F80120DBD20B12CE4FBFA7D0A7F80E8
:1010CE00120DBD900099E014F0E0C3940274809468
:1010DE008050037401F020B10CE4FBFA7D017F8097
:1010EE00120DBD80F120B039E4FBFA7D037F801232
:1010FE000DBD20B02CE4FBFA7D0A7F80120DBD9051
:10110E000099E004F0E0D394077480948040037457
:10111E0008F020B00CE4FBFA7D017F80120DBD803B
:10112E00F120B22FE4FBFA7D037F80120DBD20B2B9
:10113E0016E4FBFA7D0A800820B20CE4FBFA7D016E
:10114E007F80120DBD80F1C200E4FBFA7D037F802B
:10115E00120DBD20B32FE4FBFA7D037F80120DBD6F
:10116E0020B316E4FBFA7D0A800820B30CE4FBFAE8
:10117E007D017F80120DBD80F1D203E4FBFA7D0369
:10118E007F80120DBDE4FBFA7D0A7F80120DBD201B
:10119E000203020F8E30B203020F8EE4FBFA7D03C0
:1011AE007F80120DBDE4FBFA7D0A800820B20CE4AC
:1011BE00FBFA7D017F80120DBD80F1C202E4FBFAC5
:0A11CE007D037F80120DBD020F8E1D
:1013DE00121C92E4FBFA7D0A7F80120DBD75A0AA45
:1013EE002001F02002ED2000EA7BFF7A087936908A
:1013FE0000887410F0E4FD7F19121AB27BFF7A0890
:10140E00793C9000887410F07D037F19121AB27B1C
:10141E00FF7A0879449000887410F07D067F1912C7
:10142E001AB290009BE024FE6025146050240260E6
:10143E00030214C47BFF7A08794A9000887410F076
:10144E00E4FD7F03121AB27BFF7A08794D80197B77
:10145E00FF7A08794D9000887410F0E4FD7F031236
:10146E001AB27BFF7A08794A9000887410F07D03D7
:10147E007F03121AB27BFF7A08794D802C7BFF7A9C
:10148E0008794D9000887410F0E4FD7F03121AB2B3
:10149E007BFF7A08794D9000887410F07D037F03EE
:1014AE00121AB27BFF7A08794A9000887410F07D88
:1014BE00067F03121AB2E4FBFA7D0A7F80120DBD7D
:0314CE000213EE18
:101B1600300145121C9275A0017BFF7A1C79C9120F
:101B26001D903001181217587BFF7A0879509000E3
:101B3600887410F07D037F03121AB280E5121C929E
:101B4600E4FBFA7D647F80120DBDC2017F02120C98
:101B5600AB7F03120D3480B8E4FBFA7D647F8012FC
:041B66000DBD80AC85
:101A4C003002571215BD121C9275A0023002327B67
:101A5C00FF7A08795E9000887410F07D037F031282
:101A6C001AB27BFF7A08796E9000887410F07D06AC
:101A7C007F03121AB2E4FBFA7D147F80120DBD8035
:101A8C00CBE4FBFA7D647F80120DBD121C927F02A9
:101A9C00120CAB7F04120D3480A6E4FBFA7D647F3C
:061AAC0080120DBD809ABE
:1011D8002000030213D11215BD121C92E4FBFA7D04
:1011E8000A7F80120DBD75A003900099E025E0FFED
:1011F800C374799F90009EF02000030213B79000FB
:1012080099E0A3F0E4FBFA7D017F80120DBD900008
:101218009AE075F00A84E5F0243090009CF0E4A38D
:10122800F0FBFA7D017F80120DBD7BFF7A08797E85
:101238009000887410F07D037F03121AB2E4FBFA61
:101248007D017F80120DBD7B017A00799C9000881A
:101258007410F07D037F3C121AB27BFF7A087985FF
:101268009000887410F0E4FD7F10121AB290009E6E
:10127800E024F0FFE434FFFE900099E0FD7C0012CA
:10128800184C90009FEFF090009EE0C3941F74806C
:1012980094805075300372A3E0C3940174809480E5
:1012A80050087BFF7A087987802890009FE0C394D4
:1012B800027480948050087BFF7A08798F8013909D
:1012C800009FE0C394037480948050137BFF7A08D6
:1012D80079979000887410F07D067F03121AB290F7
:1012E800009EE0FF7BFF7A08799F9000887410F0D9
:1012F800E4FD121AB2900099E025E0FFC374799FCB
:1013080090009EF0C203021200900099E0FF900046
:101318009EE0D39F4045E0947874809480503C20B0
:101328000339E0FF7BFF7A08799F9000887410F0FA
:10133800E4FD121AB290009EE0FF900099E0FEC30F
:10134800EF9E90009EF0E0FF7BFF7A0879A1900065
:10135800887410F0E4FD121AB2804790009EE0FFF6
:101368007BFF7A08799F9000887410F0E4FD121AC8
:10137800B2900099E0FF90009EE0C39F50137BFF5E
:101388007A0879A39000887410F07D067F03121AFA
:10139800B2900099E025E0FFC374799F90009EF019
:1013A800C203E4FBFA7D017F80120DBD021200E446
:1013B800FBFA7D647F80120DBD121C927F02120C15
:1013C800AB7F05120D340211D8E4FBFA7D647F80EF
:0613D800120DBD0211D848
:101DB700D3EF9400EE940040147D657C18ED1D7000
:0D1DC700011CED4C70F7EF1F70E61E80E36D
:011DD40022EC
:101DF300EF1FAA0670011E4A600FE4FDEDC3947B3A
:091E03007480948050EA0D80F314
:011E0C0022B3
:091E9100D290D291C291C29022BC
:07000300D290C291D29122BC
:0B1E6500121D3B121E70AF04121D3B4B
:051E7000D290C2902297
:071D3400AC07121E917F783D
:101D3B00C290E4FEEEC3940874809480501AAD07F1
:101D4B00ED548064807004D2918002C291EF25E043
:081D5B00FFD290C2900E80DC63
:011D6300225D
:0E1E7500121D34121E70E4FF121E65020003DF
:0E1E8300121D34121E707F40121E65020003F5
:101D6400EF24B0FFEE33FEE4FDFC121D7FE4FDFC26
:0B1D7400FFFE121D7F7F10E4FDFCFE4F
:101D7F00AB07AA06ED4C6003021E83AF03121E755C
:011D8F002231
:051B6A009000A0EFF067
:101B6F00E4F9E9FF7E00C3940874809480502C122E
:101B7F001D64E49000A1F09000A1E0C394807480F4
:101B8F00948050149000A0E0FF7E007D017C001235
:0B1B9F001D7FA3E004F080DF0980C779
:011BAA002218
:081D000090008AE0FFA3E0FD62
:101D0800A907ED24B0FFE433FEE4FDFC121D7FE9D2
:101D180054F0C4540F7E004410FFE4FDFC121D7FF4
:0C1D2800E9540FFF7E00E4FDFC021D7F6B
:101E26007F8D121D7BE4FDFC7F14FE121D7FE4FDF9
:071E3600FC7FAFFE021D7FDF
:101E5400E4FDFC7F8D121D75E4FDFC7FAEFE021DCA
:011E64007FFE
:101C9200E4F9E9FF7E00C39408748094805027120F
:101CA2001D64E4900083F0900083E0C3948074800C
:101CB2009480500F7D017C00E4FFFE121D7FE00442
:061CC200F080E40980CC73
:011CC80022F9
:101C5A00E4F9E9FF7E00C394087480948050281246
:101C6A001D64E49000A2F09000A2E0C39480748006
:101C7A00948050107D017C007F017E00121D7FE060
:071C8A0004F080E30980CBA8
:011C91002230
:0B14D10090008BEDF090008AEFF0FD22
:1014DC00E490008EF0F9EB24E0F0EDD3947F74806F
:1014EC009480400AE490008AF0A3E02402F090007B
:1014FC008DE064106003021582121D00E4F9E9C34B
:10150C00940874809480502B90008EE075F010A499
:10151C0029F582E435F0F583E5822446F582E583EE
:10152C003402F583E493FF7E007D017C00121D7F65
:10153C000980CB90008AE0FFA3E004FD121D08E4B3
:10154C00F9E9C3940874809480506590008EE0751E
:10155C00F010A429F582E435F0F583E582244EF5EC
:10156C0082E5833402F583E493FF7E007D017C00E9
:10157C00121D7F0980CB121D00E4F9E9C394067497
:10158C00809480502B90008EE075F006A4241EF5FC
:10159C0082E5F03400F583E58229F582E43583F5A4
:1015AC0083E493FF7E007D017C00121D7F0980CBBC
:0115BC00220C
:071DD5009000A3EFF0A90547
:101DDC007F017E00AD0119ED600C9000A3E0FD7C4D
:061DEC000012183A80EE1F
:011DF20022CE
:0E169D0090008FEFF0A3EDF0A3EAF0A3EBF0C6
:1016AB00E4900097F0900095F0900093E0FF90008D
:1016BB0095E0FEC39F4003021757C3EF9E14FD7FB7
:1016CB000A121DD5900091E0FCA3E0FDCFCDCFCE4B
:1016DB00CCCE12184C7C007D0A12184C900096ED63
:1016EB00F0A3E07036900093E014FF900095E0FEBD
:1016FB00C39F5027A3E0701D900094E0FCC3138E92
:10170B00F0A4FF90008FE02FFFA3E0FD90008DEC85
:10171B00F07B20802B9000977401F0900094E0FEFA
:10172B00C313FFA3E0FDEF8DF0A4FF90008FE02F1C
:10173B00FFA3E0FD900096E02430FB90008DEEF0CF
:0C174B001214D1900095E004F00216B4D6
:01175700226F
:101AB200900083EFF0A3EDF0A3EBF0A3EAF0A3E92B
:011AC200F033
:101AC300E4900089F0900085E0FBA3E0FAA3E0F93D
:101AD300900089E0F58275830012180DFB60339046
:101AE3000083E0FFA3E0FD900088E090008DF012FA
:101AF30014D1900083E02408F0E0D39478748094A8
:101B0300804007E4F0A3E02402F0900089E004F0B1
:021B130080B39D
:011B150022AD
:0A18B700900054EFF0900056EBF0A3
:1018C100E490005BF0A3F0900057E0FF540770082C
:1018D100EF131313541F800A900057E0131313548E
:1018E1001F0490005EF090005EEDF0900057E0FF65
:1018F10090005EE0FDC39F504F900054E0FF121D29
:1019010008E090005DF0900056E0FF90005DE0C3BC
:101911009F502D900058E0FBA3E0FAA3E0F9A3E467
:1019210075F0011218A185F082F58312180DFF7E62
:10193100007D017C00121D7F90005DE004F080C6F7
:0819410090005EE004F080A3B9
:01194900227B
:1015BD00E4FDFC7FAEFE121D6EE4FDFC7F40FE12CD
:1015CD001D7FE4FDFC7FB0FE121D7FE4FDFC7F81DD
:1015DD00FE121D7FE4FDFC7FFFFE121D7FE4FDFC6E
:1015ED007FA1FE121D7FE4FDFC7FA6FE121D7FE490
:1015FD00FDFC7FA8FE121D7FE4FDFC7F3FFE121D4A
:10160D007FE4FDFC7FC8FE121D7FE4FDFC7FD3FE51
:10161D00121D7FE4FDFCFFFE121D7FE4FDFC7FD556
:10162D00FE121D7FE4FDFC7F80FE121D7FE4FDFC9C
:10163D007FD8FE121D7FE4FDFC7F05FE121D7FE4A9
:10164D00FDFC7FD9FE121D7FE4FDFC7FF1FE121D16
:10165D007FE4FDFC7FDAFE121D7FE4FDFC7F12FEB0
:10166D00121D7FE4FDFC7FDBFE121D7FE4FDFC7F80
:10167D0030FE121D7FE4FDFC7F8DFE121D7FE4FD0B
:10168D00FC7F14FE121D7FE4FDFC7FAFFE021D7F6B
:101BE700AB05AA077F2D121E75E4FF121E75EA6466
:101BF70001700DFF121E757F01121E757F07800D84
:101C07007F03121E75EB14FF121E757F05121E75DA
:0A1C1700E4FF121E757F7F021E75A8
:10001E000000000000000000002F0000000007009C
:10002E00070000147F147F1400242A7F2A12006216
:10003E0064081323003649552250000005030000C2
:10004E0000001C224100000041221C000014083E4A
:10005E0008140008083E0808000000A06000000810
:10006E000808080800006060000000201008040264
:10007E00003E5149453E0000427F40000042615122
:10008E004946002141454B31001814127F100027BC
:10009E0045454539003C4A4949300001710905037F
:1000AE0000364949493600064949291E00003636B0
:1000BE000000000056360000000814224100001413
:1000CE0014141414000041221408000201510906F0
:1000DE0000324959513E007C1211127C007F494971
:1000EE004936003E41414122007F4141221C007FA2
:1000FE0049494941007F09090901003E4149497AB0
:10010E00007F0808087F0000417F41000020404129
:10011E003F01007F08142241007F40404040007F95
:10012E00020C027F007F0408107F003E4141413ED9
:10013E00007F09090906003E4151215E007F091921
:10014E0029460046494949310001017F0101003F1E
:10015E004040403F001F2040201F003F4038403F9E
:10016E000063140814630007087008070061514902
:10017E00454300007F41410000552A552A55000095
:10018E0041417F0000040201020400404040404013
:10019E00000001020400002054545478007F4844AB
:1001AE00443800384444442000384444487F0038E2
:1001BE005454541800087E0901020018A4A4A47C0B
:1001CE00007F080404780000447D400000408084D5
:1001DE007D00007F102844000000417F4000007C1D
:1001EE0004180478007C0804047800384444443829
:1001FE0000FC242424180018242418FC007C080475
:10020E00040800485454542000043F444020003C4D
:10021E004040207C001C2040201C003C4030403CD4
:10022E00004428102844001CA0A0A07C0044645464
:10023E004C441414141414140000000000000000A8
:10024E000000000000000000000000F800000000A8
:10025E00000000333000000000100C06100C0600E9
:10026E00000000000000000040C07840C078400050
:10027E00043F04043F040400007088FC08300000B2
:10028E00001820FF211E0000F008F000E01800000A
:10029E0000211C031E211E0000F0088870000000C3
:1002AE001E2123241927211010160E000000000015
:1002BE000000000000000000000000E01804020032
:1002CE00000000071820400000020418E0000000A3
:1002DE000040201807000000404080F080404000A1
:1002EE000202010F01020200000000F000000000F7
:1002FE000101011F010101000000000000000000CB
:10030E0080B070000000000000000000000000003F
:10031E0000010101010101010000000000000000C8
:10032E000030300000000000000000008060180463
:10033E00006018060100000000E010080810E00040
:10034E00000F102020100F00001010F80000000009
:10035E000020203F20200000007008080888700050
:10036E0000302824222130000030088888483000D0
:10037E000018202020110E000000C02010F80000F0
:10038E0000070424243F240000F808888808080089
:10039E000019212020110E0000E01088881800009E
:1003AE00000F112020110E0000380808C838080070
:1003BE000000003F000000000070880808887000F0
:1003CE00001C222121221C0000E010080810E00071
:1003DE000000312222110F00000000C0C0000000FA
:1003EE00000000303000000000000080000000001F
:1003FE000000806000000000000080402010080017
:10040E0000010204081020004040404040404000DF
:10041E0004040404040404000008102040800000BA
:10042E000020100804020100007048080808F000BF
:10043E000000003036010000C030C828E810E0008F
:10044E000718272423140B000000C038E00000001A
:10045E00203C23020227382008F888888870000084
:10046E00203F202020110E00C03008080808380058
:10047E00071820202010080008F808080810E000CF
:10048E00203F202020100F0008F88888E808100070
:10049E00203F20202320180008F88888E808100044
:1004AE00203F200003000000C0300808083800007C
:1004BE0007182020221E020008F808000008F8087D
:1004CE00203F210101213F20000808F80808000004
:1004DE000020203F2020000000000808F808080037
:1004EE00C08080807F00000008F888C028180800AF
:1004FE00203F20012638200008F8080000000000E8
:10050E00203F20202020300008F8F800F8F80800DE
:10051E00203F003F003F200008F830C00008F808D8
:10052E00203F200007183F00E01008080810E000E8
:10053E000F10202020100F0008F808080808F000FF
:10054E00203F210101010000E01008080810E00022
:10055E000F18242438504F0008F8888888887000B7
:10056E00203F2000030C3020007088080808380057
:10057E000038202121221C00180808F8080818004D
:10058E000000203F2000000008F808000008F808CE
:10059E00001F202020201F000878880000C838087F
:1005AE00000007380E010000F80800F80008F800F7
:1005BE00033C0700073C0300081868808068180891
:1005CE0020302C03032C30200838C800C83808000F
:1005DE000000203F2000000010080808C83808005E
:1005EE002038262120201800000000FE0202020002
:1005FE000000007F40404000000C30C000000000B2
:10060E00000000010638C00000020202FE000000D9
:10061E00004040407F00000000000402020204007F
:10062E0000000000000000000000000000000000BC
:10063E0080808080808080800002020400000000A4
:10064E00000000000000000000008080808000009C
:10065E000019242222223F2008F80080800000008A
:10066E00003F112020110E0000000080808000004D
:10067E00000E112020201100000000808088F8005C
:10068E00000E112020103F2000008080808000008E
:10069E00001F222222221300008080F088888818F2
:1006AE000020203F202000000000808080808000FD
:1006BE00006B94949493600008F800808080000092
:1006CE00203F210000203F2000809898000000006D
:1006DE000020203F2020000000000080989800009D
:1006EE0000C08080807F000008F8000080808000BD
:1006FE00203F24022D302000000808F800000000E2
:10070E000020203F2020000080808080808080009C
:10071E00203F20003F20003F80800080808000002E
:10072E00203F210000203F200000808080800000BC
:10073E00001F202020201F008080008080000000ED
:10074E0080FFA12020110E0000000080808080001C
:10075E00000E112020A0FF8080808000808080000D
:10076E0020203F212000010000008080808080003A
:10077E000033242424241900008080E080800000AF
:10078E000000001F202000008080000000808000FC
:10079E00001F202020103F2080808000008080805D
:1007AE0000010E30080601008080008000808080ED
:1007BE000F300C030C300F00008080008080800012
:1007CE000020312E0E31200080808000008080803D
:1007DE0080818E70180601000080808080808000ED
:1007EE000021302C2221300000000000807C02020B
:1007FE0000000000003F404000000000FF0000002D
:10080E0000000000FF0000000002027C80000000DB
:10081E000040403F000000000006010102020404F7
:08082E000000000000000000C2
:101CC9001D04001B02001904001B02001D03001E55
:101CD90001001D02001B04000000001D04001B027E
:101CE900001904001B02001D03001E01001D020053
:071CF9001B0400000000FFC6
:1019F200604A000A0000F88CF8F3F95BF9B8FA15AE
:101A0200FA67FAB9FB04FB4BFB90FBCFFC10FC44DA
:101A1200FC79FCACFCDCFD09FD34FD5CFD82FDA61D
:101A2200FDC8FDE8FE06FE22FE3DFE56FE6EFE8568
:101A3200FE9AFEAEFEC1FED3FEE4FEF4FF034300B7
:091A420000000000420005000054
:101D900053890F438910758DFC758B18C28FC28EC5
:101DA000D2ABD2AFE4900005F0A3F0900000EBF0CE
:071DB000A3EAF0A3E9F02211
:03001B00021BAB1A
:101BAB00C0E0C083C082C0D075D000C006900009D1
:101BBB00E025E0240AF582E43400F583E0FEA3E09F
:101BCB004E600E900004E0F58B900003E0F58DB2B3
:0C1BDB00A5D006D0D0D082D083D0E0325C
:101E3D00900003E0F58BA3E0F58DD28E900007E0C6
:071E4D00FEA3E0FF021E0DE1
:10175800900000E0FBA3E0FAA3E0F9EA494B70022D
:10176800801C900000E0FBA3E0FAA3E0F9900005DC
:10177800E0FEA3E0F5828E8312180DF47003021EBA
:101788009A900000E0FBA3E0FAA3E0F9900005E0DE
:10179800FEA3E0F5828E8312180D900009F09000E8
:1017A80006E004F07006900005E004F0900005E003
:1017B800FEA3E0F5828E8312180DFF7E007C017D6A
:1017C8002C12183AEF7802CEC313CE13D8F9FF9033
:1017D8000007EEF0A3EFF0900006E02402F090007E
:1017E80005E03400F0900009E025E0240AF582E4E1
:1017F8003400F583E0FCA3E0FDEC900003F0A3EDDA
:05180800F0121E3D225C
:051E9A00C28EC2A5226A
:101E0D00EF1FAC0670011E4C600E750E02750FEFC4
:081E1D00D50FFDD50EFA80E897
:011E2500229A
:100CAB00EFD3940540037FFF2274112F2FF8E6201A
:100CBB00E5F4C2AFE64430F6D2AFAE0CEEC39F50B4
:100CCB00210E74212EF8E6F908E618BE050274FF12
:100CDB00FDED69600909E71919F7090980F3161683
:100CEB0080DAEED39F400405810581EED39F40222D
:100CFB0074212EF808E6F9EEB50C02A98118060648
:100D0B00E6FDED6960091919E70909F71980F31E6A
:100D1B0080D9EF2421F8E604F8EF2F0490000E930E
:090D2B00F608EF2F93F67F002279
:100D3400EFD3940540037FFF22EF232411F8E6301C
:100D4400E5F4C2AFE6548CF6D2AFE50CB5070A74ED
:100D5400212FF8E6F581020E97502E74222FF8E623
:100D6400BF050274FFFD18E6F974212FF8FBE6FCB9
:100D7400E96C6008A805E7F61D1980F4A803A60528
:100D84001FE50CB507E37F002274222FF8E6FD1857
:100D940086010F74212FF8A601088604E50CB50717
:100DA40002AC81ED6C60080D09A805E6F780F4E556
:090DB4000CB507DE89817F0022E5
:100DBD008FF0E4FFFEE50C232410F8C2A930F70DE7
:100DCD007F08E6600B2DF660325030800730F1065B
:100DDD00EDF660277E020830F010C2AFE610E72571
:100DED000E30E20CD2AF7F048014C2AFE610E715CF
:100DFD0054EC4EF6D2AFD2A9020E977F0808EF44FD
:0F0E0D0083F4C2AF56C6D2AFD2A954804FFF2292
:03000B00020E21C1
:100E1C00C2AF80FE32120E2085D00B75D008AAE02E
:100E2C00C28CE58A24F7F58AE58C34D8F58CD28C03
:100E3C00EC2422F8E6BC050274FFC39581B41400BF
:100E4C0040CE7906781016E608700BC2AFE630E19A
:100E5C00034418F6D2AF08D9EDEA8BD03004012246
:100E6C00D50DFCC0E0C0D0C0F0C083C082C000C0B3
:100E7C0001C002C003C004C005C006C007E50C23B6
:100E8C002411F87440C2AF46F6D2AFD204E50CFF81
:100E9C00232411F80F0808BF06047F007811E630F0
:100EAC00E4F200E50CC39F5020050C7421250CF8CE
:100EBC00E6FDA68108E6AE0CBE050274FFCDF8E88F
:100ECC006D60E008E6C0E080F6E50CD39F4027E5B6
:100EDC000C2422F8E6AE0CBE050274FFFD18E6CD1C
:100EEC00F8E5816D6006D0E0F61880F5E50C24215C
:100EFC00C8F6150C80D3750D05E50C232411F87F6D
:100F0C0004C2AFE610E61E30E00310E20C7F0030A6
:050F1C00E10730E304D1
:100F21007F0854F4547CC6D2AF54804207C20422D5
:100F3100F6D2AFD007D006D005D004D003D002D06E
:100F410001D000D082D083D0F0D0D0D0E0C2042232
:100F51007821A68174056006FF0876FFDFFB7F0616
:100F6100E47810F608F608DFFA7811763090000E72
:100F7100740193C0E0E493C0E0750D0543890175E8
:0D0F81008AF0758CD8D28CD2AFD2A922058F
:0300000002194A98
:0C194A00787FE4F6D8FD75812602199123
:10180D00BB010CE58229F582E5833AF583E0225090
:10181D0006E92582F8E622BBFE06E92582F8E222DA
:0D182D00E58229F582E5833AF583E49322F4
:10183A00EF8DF0A4A8F0CF8CF0A428CE8DF0A42EC2
:02184A00FE227C
:10184C00BC000BBE0029EF8DF084FFADF022E4CC80
:10185C00F875F008EF2FFFEE33FEEC33FCEE9DEC49
:10186C00984005FCEE9DFE0FD5F0E9E4CEFD22ED8F
:10187C00F8F5F0EE8420D21CFEADF075F008EF2FD9
:10188C00FFED33FD4007985006D5F0F222C398FDCA
:05189C000FD5F0EA2267
:1018A100A3F8E0C5F025F0F0E582158270021583FA
:0618B100E0C838F0E82257
:10195600020F51E493A3F8E493A34003F68001F247
:1019660008DFF48029E493A3F85407240CC8C33392
:10197600C4540F4420C8834004F456800146F6DF61
:10198600E4800B01020408102040809019D6E47E02
:10199600019360BCA3FF543F30E509541FFEE49356
:1019A600A360010ECF54C025E060A840B8E493A31D
:1019B600FAE493A3F8E493A3C8C582C8CAC583CA48
:1019C600F0A3C8C582C8CAC583CADFE9DEE780BE00
:011A4B00009A
:00000001FF
